
ADC1.elf:     file format elf32-avr

Sections:
Idx Name          Size      VMA       LMA       File off  Algn
  0 .text         00001a4c  00000000  00000000  00000074  2**1
                  CONTENTS, ALLOC, LOAD, READONLY, CODE
  1 .bss          00003ed5  00802000  00802000  00001ac0  2**0
                  ALLOC
  2 .comment      00000030  00000000  00000000  00001ac0  2**0
                  CONTENTS, READONLY
  3 .debug_aranges 00000370  00000000  00000000  00001af0  2**3
                  CONTENTS, READONLY, DEBUGGING
  4 .debug_info   00007ba0  00000000  00000000  00001e60  2**0
                  CONTENTS, READONLY, DEBUGGING
  5 .debug_abbrev 0000146b  00000000  00000000  00009a00  2**0
                  CONTENTS, READONLY, DEBUGGING
  6 .debug_line   0000454a  00000000  00000000  0000ae6b  2**0
                  CONTENTS, READONLY, DEBUGGING
  7 .debug_frame  00001338  00000000  00000000  0000f3b8  2**2
                  CONTENTS, READONLY, DEBUGGING
  8 .debug_str    0002c54b  00000000  00000000  000106f0  2**0
                  CONTENTS, READONLY, DEBUGGING
  9 .debug_loc    0000383c  00000000  00000000  0003cc3b  2**0
                  CONTENTS, READONLY, DEBUGGING
 10 .debug_ranges 00000380  00000000  00000000  00040478  2**3
                  CONTENTS, READONLY, DEBUGGING
 11 .debug_macro  0000a70d  00000000  00000000  000407f8  2**0
                  CONTENTS, READONLY, DEBUGGING

Disassembly of section .text:

00000000 <__vectors>:
       0:	fd c0       	rjmp	.+506    	; 0x1fc <__ctors_end>
       2:	00 00       	nop
       4:	1c c1       	rjmp	.+568    	; 0x23e <__bad_interrupt>
       6:	00 00       	nop
       8:	1a c1       	rjmp	.+564    	; 0x23e <__bad_interrupt>
       a:	00 00       	nop
       c:	18 c1       	rjmp	.+560    	; 0x23e <__bad_interrupt>
       e:	00 00       	nop
      10:	16 c1       	rjmp	.+556    	; 0x23e <__bad_interrupt>
      12:	00 00       	nop
      14:	14 c1       	rjmp	.+552    	; 0x23e <__bad_interrupt>
      16:	00 00       	nop
      18:	12 c1       	rjmp	.+548    	; 0x23e <__bad_interrupt>
      1a:	00 00       	nop
      1c:	10 c1       	rjmp	.+544    	; 0x23e <__bad_interrupt>
      1e:	00 00       	nop
      20:	0e c1       	rjmp	.+540    	; 0x23e <__bad_interrupt>
      22:	00 00       	nop
      24:	0c c1       	rjmp	.+536    	; 0x23e <__bad_interrupt>
      26:	00 00       	nop
      28:	0a c1       	rjmp	.+532    	; 0x23e <__bad_interrupt>
      2a:	00 00       	nop
      2c:	08 c1       	rjmp	.+528    	; 0x23e <__bad_interrupt>
      2e:	00 00       	nop
      30:	06 c1       	rjmp	.+524    	; 0x23e <__bad_interrupt>
      32:	00 00       	nop
      34:	04 c1       	rjmp	.+520    	; 0x23e <__bad_interrupt>
      36:	00 00       	nop
      38:	64 c5       	rjmp	.+2760   	; 0xb02 <__vector_14>
      3a:	00 00       	nop
      3c:	8f c5       	rjmp	.+2846   	; 0xb5c <__vector_15>
      3e:	00 00       	nop
      40:	ba c5       	rjmp	.+2932   	; 0xbb6 <__vector_16>
      42:	00 00       	nop
      44:	e5 c5       	rjmp	.+3018   	; 0xc10 <__vector_17>
      46:	00 00       	nop
      48:	10 c6       	rjmp	.+3104   	; 0xc6a <__vector_18>
      4a:	00 00       	nop
      4c:	3b c6       	rjmp	.+3190   	; 0xcc4 <__vector_19>
      4e:	00 00       	nop
      50:	66 c6       	rjmp	.+3276   	; 0xd1e <__vector_20>
      52:	00 00       	nop
      54:	91 c6       	rjmp	.+3362   	; 0xd78 <__vector_21>
      56:	00 00       	nop
      58:	bc c6       	rjmp	.+3448   	; 0xdd2 <__vector_22>
      5a:	00 00       	nop
      5c:	e7 c6       	rjmp	.+3534   	; 0xe2c <__vector_23>
      5e:	00 00       	nop
      60:	ee c0       	rjmp	.+476    	; 0x23e <__bad_interrupt>
      62:	00 00       	nop
      64:	ec c0       	rjmp	.+472    	; 0x23e <__bad_interrupt>
      66:	00 00       	nop
      68:	ea c0       	rjmp	.+468    	; 0x23e <__bad_interrupt>
      6a:	00 00       	nop
      6c:	e8 c0       	rjmp	.+464    	; 0x23e <__bad_interrupt>
      6e:	00 00       	nop
      70:	e6 c0       	rjmp	.+460    	; 0x23e <__bad_interrupt>
      72:	00 00       	nop
      74:	e4 c0       	rjmp	.+456    	; 0x23e <__bad_interrupt>
      76:	00 00       	nop
      78:	e2 c0       	rjmp	.+452    	; 0x23e <__bad_interrupt>
      7a:	00 00       	nop
      7c:	e0 c0       	rjmp	.+448    	; 0x23e <__bad_interrupt>
      7e:	00 00       	nop
      80:	de c0       	rjmp	.+444    	; 0x23e <__bad_interrupt>
      82:	00 00       	nop
      84:	dc c0       	rjmp	.+440    	; 0x23e <__bad_interrupt>
      86:	00 00       	nop
      88:	da c0       	rjmp	.+436    	; 0x23e <__bad_interrupt>
      8a:	00 00       	nop
      8c:	d8 c0       	rjmp	.+432    	; 0x23e <__bad_interrupt>
      8e:	00 00       	nop
      90:	d6 c0       	rjmp	.+428    	; 0x23e <__bad_interrupt>
      92:	00 00       	nop
      94:	d4 c0       	rjmp	.+424    	; 0x23e <__bad_interrupt>
      96:	00 00       	nop
      98:	d2 c0       	rjmp	.+420    	; 0x23e <__bad_interrupt>
      9a:	00 00       	nop
      9c:	f1 c1       	rjmp	.+994    	; 0x480 <__vector_39>
      9e:	00 00       	nop
      a0:	21 c2       	rjmp	.+1090   	; 0x4e4 <__vector_40>
      a2:	00 00       	nop
      a4:	51 c2       	rjmp	.+1186   	; 0x548 <__vector_41>
      a6:	00 00       	nop
      a8:	81 c2       	rjmp	.+1282   	; 0x5ac <__vector_42>
      aa:	00 00       	nop
      ac:	c8 c0       	rjmp	.+400    	; 0x23e <__bad_interrupt>
      ae:	00 00       	nop
      b0:	c6 c0       	rjmp	.+396    	; 0x23e <__bad_interrupt>
      b2:	00 00       	nop
      b4:	c4 c0       	rjmp	.+392    	; 0x23e <__bad_interrupt>
      b6:	00 00       	nop
      b8:	c2 c0       	rjmp	.+388    	; 0x23e <__bad_interrupt>
      ba:	00 00       	nop
      bc:	0c 94 05 09 	jmp	0x120a	; 0x120a <__vector_47>
      c0:	0c 94 32 09 	jmp	0x1264	; 0x1264 <__vector_48>
      c4:	0c 94 5f 09 	jmp	0x12be	; 0x12be <__vector_49>
      c8:	0c 94 8c 09 	jmp	0x1318	; 0x1318 <__vector_50>
      cc:	0c 94 b9 09 	jmp	0x1372	; 0x1372 <__vector_51>
      d0:	0c 94 e6 09 	jmp	0x13cc	; 0x13cc <__vector_52>
      d4:	0c 94 13 0a 	jmp	0x1426	; 0x1426 <__vector_53>
      d8:	0c 94 40 0a 	jmp	0x1480	; 0x1480 <__vector_54>
      dc:	0c 94 6d 0a 	jmp	0x14da	; 0x14da <__vector_55>
      e0:	0c 94 9a 0a 	jmp	0x1534	; 0x1534 <__vector_56>
      e4:	ac c0       	rjmp	.+344    	; 0x23e <__bad_interrupt>
      e6:	00 00       	nop
      e8:	aa c0       	rjmp	.+340    	; 0x23e <__bad_interrupt>
      ea:	00 00       	nop
      ec:	a8 c0       	rjmp	.+336    	; 0x23e <__bad_interrupt>
      ee:	00 00       	nop
      f0:	a6 c0       	rjmp	.+332    	; 0x23e <__bad_interrupt>
      f2:	00 00       	nop
      f4:	a4 c0       	rjmp	.+328    	; 0x23e <__bad_interrupt>
      f6:	00 00       	nop
      f8:	a2 c0       	rjmp	.+324    	; 0x23e <__bad_interrupt>
      fa:	00 00       	nop
      fc:	a0 c0       	rjmp	.+320    	; 0x23e <__bad_interrupt>
      fe:	00 00       	nop
     100:	9e c0       	rjmp	.+316    	; 0x23e <__bad_interrupt>
     102:	00 00       	nop
     104:	9c c0       	rjmp	.+312    	; 0x23e <__bad_interrupt>
     106:	00 00       	nop
     108:	9a c0       	rjmp	.+308    	; 0x23e <__bad_interrupt>
     10a:	00 00       	nop
     10c:	98 c0       	rjmp	.+304    	; 0x23e <__bad_interrupt>
     10e:	00 00       	nop
     110:	96 c0       	rjmp	.+300    	; 0x23e <__bad_interrupt>
     112:	00 00       	nop
     114:	94 c0       	rjmp	.+296    	; 0x23e <__bad_interrupt>
     116:	00 00       	nop
     118:	92 c0       	rjmp	.+292    	; 0x23e <__bad_interrupt>
     11a:	00 00       	nop
     11c:	e9 c0       	rjmp	.+466    	; 0x2f0 <__vector_71>
     11e:	00 00       	nop
     120:	19 c1       	rjmp	.+562    	; 0x354 <__vector_72>
     122:	00 00       	nop
     124:	49 c1       	rjmp	.+658    	; 0x3b8 <__vector_73>
     126:	00 00       	nop
     128:	79 c1       	rjmp	.+754    	; 0x41c <__vector_74>
     12a:	00 00       	nop
     12c:	88 c0       	rjmp	.+272    	; 0x23e <__bad_interrupt>
     12e:	00 00       	nop
     130:	86 c0       	rjmp	.+268    	; 0x23e <__bad_interrupt>
     132:	00 00       	nop
     134:	a8 c6       	rjmp	.+3408   	; 0xe86 <__vector_77>
     136:	00 00       	nop
     138:	d3 c6       	rjmp	.+3494   	; 0xee0 <__vector_78>
     13a:	00 00       	nop
     13c:	fe c6       	rjmp	.+3580   	; 0xf3a <__vector_79>
     13e:	00 00       	nop
     140:	29 c7       	rjmp	.+3666   	; 0xf94 <__vector_80>
     142:	00 00       	nop
     144:	54 c7       	rjmp	.+3752   	; 0xfee <__vector_81>
     146:	00 00       	nop
     148:	7f c7       	rjmp	.+3838   	; 0x1048 <__vector_82>
     14a:	00 00       	nop
     14c:	aa c7       	rjmp	.+3924   	; 0x10a2 <__vector_83>
     14e:	00 00       	nop
     150:	d5 c7       	rjmp	.+4010   	; 0x10fc <__vector_84>
     152:	00 00       	nop
     154:	0c 94 ab 08 	jmp	0x1156	; 0x1156 <__vector_85>
     158:	0c 94 d8 08 	jmp	0x11b0	; 0x11b0 <__vector_86>
     15c:	70 c0       	rjmp	.+224    	; 0x23e <__bad_interrupt>
     15e:	00 00       	nop
     160:	6e c0       	rjmp	.+220    	; 0x23e <__bad_interrupt>
     162:	00 00       	nop
     164:	6c c0       	rjmp	.+216    	; 0x23e <__bad_interrupt>
     166:	00 00       	nop
     168:	6a c0       	rjmp	.+212    	; 0x23e <__bad_interrupt>
     16a:	00 00       	nop
     16c:	68 c0       	rjmp	.+208    	; 0x23e <__bad_interrupt>
     16e:	00 00       	nop
     170:	66 c0       	rjmp	.+204    	; 0x23e <__bad_interrupt>
     172:	00 00       	nop
     174:	64 c0       	rjmp	.+200    	; 0x23e <__bad_interrupt>
     176:	00 00       	nop
     178:	62 c0       	rjmp	.+196    	; 0x23e <__bad_interrupt>
     17a:	00 00       	nop
     17c:	60 c0       	rjmp	.+192    	; 0x23e <__bad_interrupt>
     17e:	00 00       	nop
     180:	5e c0       	rjmp	.+188    	; 0x23e <__bad_interrupt>
     182:	00 00       	nop
     184:	5c c0       	rjmp	.+184    	; 0x23e <__bad_interrupt>
     186:	00 00       	nop
     188:	5a c0       	rjmp	.+180    	; 0x23e <__bad_interrupt>
     18a:	00 00       	nop
     18c:	58 c0       	rjmp	.+176    	; 0x23e <__bad_interrupt>
     18e:	00 00       	nop
     190:	56 c0       	rjmp	.+172    	; 0x23e <__bad_interrupt>
     192:	00 00       	nop
     194:	54 c0       	rjmp	.+168    	; 0x23e <__bad_interrupt>
     196:	00 00       	nop
     198:	52 c0       	rjmp	.+164    	; 0x23e <__bad_interrupt>
     19a:	00 00       	nop
     19c:	50 c0       	rjmp	.+160    	; 0x23e <__bad_interrupt>
     19e:	00 00       	nop
     1a0:	4e c0       	rjmp	.+156    	; 0x23e <__bad_interrupt>
     1a2:	00 00       	nop
     1a4:	4c c0       	rjmp	.+152    	; 0x23e <__bad_interrupt>
     1a6:	00 00       	nop
     1a8:	4a c0       	rjmp	.+148    	; 0x23e <__bad_interrupt>
     1aa:	00 00       	nop
     1ac:	48 c0       	rjmp	.+144    	; 0x23e <__bad_interrupt>
     1ae:	00 00       	nop
     1b0:	0c 94 c7 0a 	jmp	0x158e	; 0x158e <__vector_108>
     1b4:	0c 94 f4 0a 	jmp	0x15e8	; 0x15e8 <__vector_109>
     1b8:	0c 94 21 0b 	jmp	0x1642	; 0x1642 <__vector_110>
     1bc:	0c 94 4e 0b 	jmp	0x169c	; 0x169c <__vector_111>
     1c0:	0c 94 7b 0b 	jmp	0x16f6	; 0x16f6 <__vector_112>
     1c4:	0c 94 a8 0b 	jmp	0x1750	; 0x1750 <__vector_113>
     1c8:	3a c0       	rjmp	.+116    	; 0x23e <__bad_interrupt>
     1ca:	00 00       	nop
     1cc:	38 c0       	rjmp	.+112    	; 0x23e <__bad_interrupt>
     1ce:	00 00       	nop
     1d0:	36 c0       	rjmp	.+108    	; 0x23e <__bad_interrupt>
     1d2:	00 00       	nop
     1d4:	34 c0       	rjmp	.+104    	; 0x23e <__bad_interrupt>
     1d6:	00 00       	nop
     1d8:	32 c0       	rjmp	.+100    	; 0x23e <__bad_interrupt>
     1da:	00 00       	nop
     1dc:	30 c0       	rjmp	.+96     	; 0x23e <__bad_interrupt>
     1de:	00 00       	nop
     1e0:	2e c0       	rjmp	.+92     	; 0x23e <__bad_interrupt>
     1e2:	00 00       	nop
     1e4:	2c c0       	rjmp	.+88     	; 0x23e <__bad_interrupt>
     1e6:	00 00       	nop
     1e8:	2a c0       	rjmp	.+84     	; 0x23e <__bad_interrupt>
     1ea:	00 00       	nop
     1ec:	28 c0       	rjmp	.+80     	; 0x23e <__bad_interrupt>
     1ee:	00 00       	nop
     1f0:	26 c0       	rjmp	.+76     	; 0x23e <__bad_interrupt>
     1f2:	00 00       	nop
     1f4:	24 c0       	rjmp	.+72     	; 0x23e <__bad_interrupt>
     1f6:	00 00       	nop
     1f8:	22 c0       	rjmp	.+68     	; 0x23e <__bad_interrupt>
	...

000001fc <__ctors_end>:
     1fc:	11 24       	eor	r1, r1
     1fe:	1f be       	out	0x3f, r1	; 63
     200:	cf ef       	ldi	r28, 0xFF	; 255
     202:	cd bf       	out	0x3d, r28	; 61
     204:	df e5       	ldi	r29, 0x5F	; 95
     206:	de bf       	out	0x3e, r29	; 62
     208:	00 e0       	ldi	r16, 0x00	; 0
     20a:	0c bf       	out	0x3c, r16	; 60

0000020c <__do_copy_data>:
     20c:	10 e2       	ldi	r17, 0x20	; 32
     20e:	a0 e0       	ldi	r26, 0x00	; 0
     210:	b0 e2       	ldi	r27, 0x20	; 32
     212:	ec e4       	ldi	r30, 0x4C	; 76
     214:	fa e1       	ldi	r31, 0x1A	; 26
     216:	00 e0       	ldi	r16, 0x00	; 0
     218:	0b bf       	out	0x3b, r16	; 59
     21a:	02 c0       	rjmp	.+4      	; 0x220 <__do_copy_data+0x14>
     21c:	07 90       	elpm	r0, Z+
     21e:	0d 92       	st	X+, r0
     220:	a0 30       	cpi	r26, 0x00	; 0
     222:	b1 07       	cpc	r27, r17
     224:	d9 f7       	brne	.-10     	; 0x21c <__do_copy_data+0x10>

00000226 <__do_clear_bss>:
     226:	2e e5       	ldi	r18, 0x5E	; 94
     228:	a0 e0       	ldi	r26, 0x00	; 0
     22a:	b0 e2       	ldi	r27, 0x20	; 32
     22c:	01 c0       	rjmp	.+2      	; 0x230 <.do_clear_bss_start>

0000022e <.do_clear_bss_loop>:
     22e:	1d 92       	st	X+, r1

00000230 <.do_clear_bss_start>:
     230:	a5 3d       	cpi	r26, 0xD5	; 213
     232:	b2 07       	cpc	r27, r18
     234:	e1 f7       	brne	.-8      	; 0x22e <.do_clear_bss_loop>
     236:	0e 94 82 0c 	call	0x1904	; 0x1904 <main>
     23a:	0c 94 24 0d 	jmp	0x1a48	; 0x1a48 <_exit>

0000023e <__bad_interrupt>:
     23e:	e0 ce       	rjmp	.-576    	; 0x0 <__vectors>

00000240 <adc_enable_clock>:
void adc_enable_clock(ADC_t *adc);

void adc_enable_clock(ADC_t *adc)
{
#ifdef ADCA
	if ((uintptr_t)adc == (uintptr_t)(&ADCA)) {
     240:	81 15       	cp	r24, r1
     242:	22 e0       	ldi	r18, 0x02	; 2
     244:	92 07       	cpc	r25, r18
     246:	61 f4       	brne	.+24     	; 0x260 <adc_enable_clock+0x20>
		Assert(adca_enable_count < 0xff);
		if (!adca_enable_count++) {
     248:	80 91 01 20 	lds	r24, 0x2001
     24c:	91 e0       	ldi	r25, 0x01	; 1
     24e:	98 0f       	add	r25, r24
     250:	90 93 01 20 	sts	0x2001, r25
     254:	81 11       	cpse	r24, r1
     256:	12 c0       	rjmp	.+36     	; 0x27c <adc_enable_clock+0x3c>
			sysclk_enable_module(SYSCLK_PORT_A, SYSCLK_ADC);
     258:	62 e0       	ldi	r22, 0x02	; 2
     25a:	81 e0       	ldi	r24, 0x01	; 1
     25c:	d0 c2       	rjmp	.+1440   	; 0x7fe <sysclk_enable_module>
     25e:	08 95       	ret
		}
	} else
#endif

#ifdef ADCB
	if ((uintptr_t)adc == (uintptr_t)(&ADCB)) {
     260:	80 34       	cpi	r24, 0x40	; 64
     262:	92 40       	sbci	r25, 0x02	; 2
     264:	59 f4       	brne	.+22     	; 0x27c <adc_enable_clock+0x3c>
		Assert(adcb_enable_count < 0xff);
		if (!adcb_enable_count++) {
     266:	80 91 00 20 	lds	r24, 0x2000
     26a:	91 e0       	ldi	r25, 0x01	; 1
     26c:	98 0f       	add	r25, r24
     26e:	90 93 00 20 	sts	0x2000, r25
     272:	81 11       	cpse	r24, r1
     274:	03 c0       	rjmp	.+6      	; 0x27c <adc_enable_clock+0x3c>
			sysclk_enable_module(SYSCLK_PORT_B, SYSCLK_ADC);
     276:	62 e0       	ldi	r22, 0x02	; 2
     278:	82 e0       	ldi	r24, 0x02	; 2
     27a:	c1 c2       	rjmp	.+1410   	; 0x7fe <sysclk_enable_module>
     27c:	08 95       	ret

0000027e <adc_disable_clock>:
void adc_disable_clock(ADC_t *adc);

void adc_disable_clock(ADC_t *adc)
{
#ifdef ADCA
	if ((uintptr_t)adc == (uintptr_t)(&ADCA)) {
     27e:	81 15       	cp	r24, r1
     280:	22 e0       	ldi	r18, 0x02	; 2
     282:	92 07       	cpc	r25, r18
     284:	59 f4       	brne	.+22     	; 0x29c <adc_disable_clock+0x1e>
		Assert(adca_enable_count);
		if (!--adca_enable_count) {
     286:	80 91 01 20 	lds	r24, 0x2001
     28a:	81 50       	subi	r24, 0x01	; 1
     28c:	80 93 01 20 	sts	0x2001, r24
     290:	81 11       	cpse	r24, r1
     292:	11 c0       	rjmp	.+34     	; 0x2b6 <adc_disable_clock+0x38>
			sysclk_disable_module(SYSCLK_PORT_A, SYSCLK_ADC);
     294:	62 e0       	ldi	r22, 0x02	; 2
     296:	81 e0       	ldi	r24, 0x01	; 1
     298:	be c2       	rjmp	.+1404   	; 0x816 <sysclk_disable_module>
     29a:	08 95       	ret
		}
	} else
#endif

#ifdef ADCB
	if ((uintptr_t)adc == (uintptr_t)(&ADCB)) {
     29c:	80 34       	cpi	r24, 0x40	; 64
     29e:	92 40       	sbci	r25, 0x02	; 2
     2a0:	51 f4       	brne	.+20     	; 0x2b6 <adc_disable_clock+0x38>
		Assert(adcb_enable_count);
		if (!--adcb_enable_count) {
     2a2:	80 91 00 20 	lds	r24, 0x2000
     2a6:	81 50       	subi	r24, 0x01	; 1
     2a8:	80 93 00 20 	sts	0x2000, r24
     2ac:	81 11       	cpse	r24, r1
     2ae:	03 c0       	rjmp	.+6      	; 0x2b6 <adc_disable_clock+0x38>
			sysclk_disable_module(SYSCLK_PORT_B, SYSCLK_ADC);
     2b0:	62 e0       	ldi	r22, 0x02	; 2
     2b2:	82 e0       	ldi	r24, 0x02	; 2
     2b4:	b0 c2       	rjmp	.+1376   	; 0x816 <sysclk_disable_module>
     2b6:	08 95       	ret

000002b8 <adc_enable>:
 * a conversion. For most XMEGA devices the start-up time is specified
 * to be a maximum of 24 ADC clock cycles. Please verify the start-up time for
 * the device in use.
 */
void adc_enable(ADC_t *adc)
{
     2b8:	1f 93       	push	r17
     2ba:	cf 93       	push	r28
     2bc:	df 93       	push	r29
     2be:	ec 01       	movw	r28, r24

typedef uint8_t irqflags_t;

static inline irqflags_t cpu_irq_save(void)
{
	irqflags_t flags = SREG;
     2c0:	1f b7       	in	r17, 0x3f	; 63
	cpu_irq_disable();
     2c2:	f8 94       	cli
	irqflags_t flags = cpu_irq_save();
	adc_enable_clock(adc);
     2c4:	bd df       	rcall	.-134    	; 0x240 <adc_enable_clock>
	adc->CTRLA |= ADC_ENABLE_bm;
     2c6:	88 81       	ld	r24, Y
     2c8:	81 60       	ori	r24, 0x01	; 1
     2ca:	88 83       	st	Y, r24
}

static inline void cpu_irq_restore(irqflags_t flags)
{
	barrier();
	SREG = flags;
     2cc:	1f bf       	out	0x3f, r17	; 63
static inline void sleepmgr_lock_mode(enum sleepmgr_mode mode)
{
#ifdef CONFIG_SLEEPMGR_ENABLE
	irqflags_t flags;

	if(sleepmgr_locks[mode] >= 0xff) {
     2ce:	80 91 50 20 	lds	r24, 0x2050
     2d2:	8f 3f       	cpi	r24, 0xFF	; 255
     2d4:	09 f4       	brne	.+2      	; 0x2d8 <adc_enable+0x20>
     2d6:	ff cf       	rjmp	.-2      	; 0x2d6 <adc_enable+0x1e>

typedef uint8_t irqflags_t;

static inline irqflags_t cpu_irq_save(void)
{
	irqflags_t flags = SREG;
     2d8:	8f b7       	in	r24, 0x3f	; 63
	cpu_irq_disable();
     2da:	f8 94       	cli
	}

	// Enter a critical section
	flags = cpu_irq_save();

	++sleepmgr_locks[mode];
     2dc:	e0 e5       	ldi	r30, 0x50	; 80
     2de:	f0 e2       	ldi	r31, 0x20	; 32
     2e0:	90 81       	ld	r25, Z
     2e2:	9f 5f       	subi	r25, 0xFF	; 255
     2e4:	90 83       	st	Z, r25
}

static inline void cpu_irq_restore(irqflags_t flags)
{
	barrier();
	SREG = flags;
     2e6:	8f bf       	out	0x3f, r24	; 63
	cpu_irq_restore(flags);

	sleepmgr_lock_mode(SLEEPMGR_IDLE);
}
     2e8:	df 91       	pop	r29
     2ea:	cf 91       	pop	r28
     2ec:	1f 91       	pop	r17
     2ee:	08 95       	ret

000002f0 <__vector_71>:
 *
 * Calls the callback function that has been set for the ADC when the channel's
 * interrupt flag is set, if its interrupt has been enabled.
 */
ISR(ADCA_CH0_vect)
{
     2f0:	1f 92       	push	r1
     2f2:	0f 92       	push	r0
     2f4:	0f b6       	in	r0, 0x3f	; 63
     2f6:	0f 92       	push	r0
     2f8:	11 24       	eor	r1, r1
     2fa:	0b b6       	in	r0, 0x3b	; 59
     2fc:	0f 92       	push	r0
     2fe:	2f 93       	push	r18
     300:	3f 93       	push	r19
     302:	4f 93       	push	r20
     304:	5f 93       	push	r21
     306:	6f 93       	push	r22
     308:	7f 93       	push	r23
     30a:	8f 93       	push	r24
     30c:	9f 93       	push	r25
     30e:	af 93       	push	r26
     310:	bf 93       	push	r27
     312:	ef 93       	push	r30
     314:	ff 93       	push	r31
	adca_callback(&ADCA, ADC_CH0, adc_get_result(&ADCA, ADC_CH0));
     316:	e0 e0       	ldi	r30, 0x00	; 0
     318:	f2 e0       	ldi	r31, 0x02	; 2
     31a:	44 a1       	ldd	r20, Z+36	; 0x24
     31c:	55 a1       	ldd	r21, Z+37	; 0x25
     31e:	e0 91 4d 20 	lds	r30, 0x204D
     322:	f0 91 4e 20 	lds	r31, 0x204E
     326:	61 e0       	ldi	r22, 0x01	; 1
     328:	80 e0       	ldi	r24, 0x00	; 0
     32a:	92 e0       	ldi	r25, 0x02	; 2
     32c:	19 95       	eicall
}
     32e:	ff 91       	pop	r31
     330:	ef 91       	pop	r30
     332:	bf 91       	pop	r27
     334:	af 91       	pop	r26
     336:	9f 91       	pop	r25
     338:	8f 91       	pop	r24
     33a:	7f 91       	pop	r23
     33c:	6f 91       	pop	r22
     33e:	5f 91       	pop	r21
     340:	4f 91       	pop	r20
     342:	3f 91       	pop	r19
     344:	2f 91       	pop	r18
     346:	0f 90       	pop	r0
     348:	0b be       	out	0x3b, r0	; 59
     34a:	0f 90       	pop	r0
     34c:	0f be       	out	0x3f, r0	; 63
     34e:	0f 90       	pop	r0
     350:	1f 90       	pop	r1
     352:	18 95       	reti

00000354 <__vector_72>:
 *
 * Calls the callback function that has been set for the ADC when the channel's
 * interrupt flag is set, if its interrupt has been enabled.
 */
ISR(ADCA_CH1_vect)
{
     354:	1f 92       	push	r1
     356:	0f 92       	push	r0
     358:	0f b6       	in	r0, 0x3f	; 63
     35a:	0f 92       	push	r0
     35c:	11 24       	eor	r1, r1
     35e:	0b b6       	in	r0, 0x3b	; 59
     360:	0f 92       	push	r0
     362:	2f 93       	push	r18
     364:	3f 93       	push	r19
     366:	4f 93       	push	r20
     368:	5f 93       	push	r21
     36a:	6f 93       	push	r22
     36c:	7f 93       	push	r23
     36e:	8f 93       	push	r24
     370:	9f 93       	push	r25
     372:	af 93       	push	r26
     374:	bf 93       	push	r27
     376:	ef 93       	push	r30
     378:	ff 93       	push	r31
	adca_callback(&ADCA, ADC_CH1, adc_get_result(&ADCA, ADC_CH1));
     37a:	e8 e2       	ldi	r30, 0x28	; 40
     37c:	f2 e0       	ldi	r31, 0x02	; 2
     37e:	44 81       	ldd	r20, Z+4	; 0x04
     380:	55 81       	ldd	r21, Z+5	; 0x05
     382:	e0 91 4d 20 	lds	r30, 0x204D
     386:	f0 91 4e 20 	lds	r31, 0x204E
     38a:	62 e0       	ldi	r22, 0x02	; 2
     38c:	80 e0       	ldi	r24, 0x00	; 0
     38e:	92 e0       	ldi	r25, 0x02	; 2
     390:	19 95       	eicall
}
     392:	ff 91       	pop	r31
     394:	ef 91       	pop	r30
     396:	bf 91       	pop	r27
     398:	af 91       	pop	r26
     39a:	9f 91       	pop	r25
     39c:	8f 91       	pop	r24
     39e:	7f 91       	pop	r23
     3a0:	6f 91       	pop	r22
     3a2:	5f 91       	pop	r21
     3a4:	4f 91       	pop	r20
     3a6:	3f 91       	pop	r19
     3a8:	2f 91       	pop	r18
     3aa:	0f 90       	pop	r0
     3ac:	0b be       	out	0x3b, r0	; 59
     3ae:	0f 90       	pop	r0
     3b0:	0f be       	out	0x3f, r0	; 63
     3b2:	0f 90       	pop	r0
     3b4:	1f 90       	pop	r1
     3b6:	18 95       	reti

000003b8 <__vector_73>:
 *
 * Calls the callback function that has been set for the ADC when the channel's
 * interrupt flag is set, if its interrupt has been enabled.
 */
ISR(ADCA_CH2_vect)
{
     3b8:	1f 92       	push	r1
     3ba:	0f 92       	push	r0
     3bc:	0f b6       	in	r0, 0x3f	; 63
     3be:	0f 92       	push	r0
     3c0:	11 24       	eor	r1, r1
     3c2:	0b b6       	in	r0, 0x3b	; 59
     3c4:	0f 92       	push	r0
     3c6:	2f 93       	push	r18
     3c8:	3f 93       	push	r19
     3ca:	4f 93       	push	r20
     3cc:	5f 93       	push	r21
     3ce:	6f 93       	push	r22
     3d0:	7f 93       	push	r23
     3d2:	8f 93       	push	r24
     3d4:	9f 93       	push	r25
     3d6:	af 93       	push	r26
     3d8:	bf 93       	push	r27
     3da:	ef 93       	push	r30
     3dc:	ff 93       	push	r31
	adca_callback(&ADCA, ADC_CH2, adc_get_result(&ADCA, ADC_CH2));
     3de:	e0 e3       	ldi	r30, 0x30	; 48
     3e0:	f2 e0       	ldi	r31, 0x02	; 2
     3e2:	44 81       	ldd	r20, Z+4	; 0x04
     3e4:	55 81       	ldd	r21, Z+5	; 0x05
     3e6:	e0 91 4d 20 	lds	r30, 0x204D
     3ea:	f0 91 4e 20 	lds	r31, 0x204E
     3ee:	64 e0       	ldi	r22, 0x04	; 4
     3f0:	80 e0       	ldi	r24, 0x00	; 0
     3f2:	92 e0       	ldi	r25, 0x02	; 2
     3f4:	19 95       	eicall
}
     3f6:	ff 91       	pop	r31
     3f8:	ef 91       	pop	r30
     3fa:	bf 91       	pop	r27
     3fc:	af 91       	pop	r26
     3fe:	9f 91       	pop	r25
     400:	8f 91       	pop	r24
     402:	7f 91       	pop	r23
     404:	6f 91       	pop	r22
     406:	5f 91       	pop	r21
     408:	4f 91       	pop	r20
     40a:	3f 91       	pop	r19
     40c:	2f 91       	pop	r18
     40e:	0f 90       	pop	r0
     410:	0b be       	out	0x3b, r0	; 59
     412:	0f 90       	pop	r0
     414:	0f be       	out	0x3f, r0	; 63
     416:	0f 90       	pop	r0
     418:	1f 90       	pop	r1
     41a:	18 95       	reti

0000041c <__vector_74>:
 *
 * Calls the callback function that has been set for the ADC when the channel's
 * interrupt flag is set, if its interrupt has been enabled.
 */
ISR(ADCA_CH3_vect)
{
     41c:	1f 92       	push	r1
     41e:	0f 92       	push	r0
     420:	0f b6       	in	r0, 0x3f	; 63
     422:	0f 92       	push	r0
     424:	11 24       	eor	r1, r1
     426:	0b b6       	in	r0, 0x3b	; 59
     428:	0f 92       	push	r0
     42a:	2f 93       	push	r18
     42c:	3f 93       	push	r19
     42e:	4f 93       	push	r20
     430:	5f 93       	push	r21
     432:	6f 93       	push	r22
     434:	7f 93       	push	r23
     436:	8f 93       	push	r24
     438:	9f 93       	push	r25
     43a:	af 93       	push	r26
     43c:	bf 93       	push	r27
     43e:	ef 93       	push	r30
     440:	ff 93       	push	r31
	adca_callback(&ADCA, ADC_CH3, adc_get_result(&ADCA, ADC_CH3));
     442:	e8 e3       	ldi	r30, 0x38	; 56
     444:	f2 e0       	ldi	r31, 0x02	; 2
     446:	44 81       	ldd	r20, Z+4	; 0x04
     448:	55 81       	ldd	r21, Z+5	; 0x05
     44a:	e0 91 4d 20 	lds	r30, 0x204D
     44e:	f0 91 4e 20 	lds	r31, 0x204E
     452:	68 e0       	ldi	r22, 0x08	; 8
     454:	80 e0       	ldi	r24, 0x00	; 0
     456:	92 e0       	ldi	r25, 0x02	; 2
     458:	19 95       	eicall
}
     45a:	ff 91       	pop	r31
     45c:	ef 91       	pop	r30
     45e:	bf 91       	pop	r27
     460:	af 91       	pop	r26
     462:	9f 91       	pop	r25
     464:	8f 91       	pop	r24
     466:	7f 91       	pop	r23
     468:	6f 91       	pop	r22
     46a:	5f 91       	pop	r21
     46c:	4f 91       	pop	r20
     46e:	3f 91       	pop	r19
     470:	2f 91       	pop	r18
     472:	0f 90       	pop	r0
     474:	0b be       	out	0x3b, r0	; 59
     476:	0f 90       	pop	r0
     478:	0f be       	out	0x3f, r0	; 63
     47a:	0f 90       	pop	r0
     47c:	1f 90       	pop	r1
     47e:	18 95       	reti

00000480 <__vector_39>:
 *
 * Calls the callback function that has been set for the ADC when the channel's
 * interrupt flag is set, if its interrupt has been enabled.
 */
ISR(ADCB_CH0_vect)
{
     480:	1f 92       	push	r1
     482:	0f 92       	push	r0
     484:	0f b6       	in	r0, 0x3f	; 63
     486:	0f 92       	push	r0
     488:	11 24       	eor	r1, r1
     48a:	0b b6       	in	r0, 0x3b	; 59
     48c:	0f 92       	push	r0
     48e:	2f 93       	push	r18
     490:	3f 93       	push	r19
     492:	4f 93       	push	r20
     494:	5f 93       	push	r21
     496:	6f 93       	push	r22
     498:	7f 93       	push	r23
     49a:	8f 93       	push	r24
     49c:	9f 93       	push	r25
     49e:	af 93       	push	r26
     4a0:	bf 93       	push	r27
     4a2:	ef 93       	push	r30
     4a4:	ff 93       	push	r31
	adcb_callback(&ADCB, ADC_CH0, adc_get_result(&ADCB, ADC_CH0));
     4a6:	e0 e4       	ldi	r30, 0x40	; 64
     4a8:	f2 e0       	ldi	r31, 0x02	; 2
     4aa:	44 a1       	ldd	r20, Z+36	; 0x24
     4ac:	55 a1       	ldd	r21, Z+37	; 0x25
     4ae:	e0 91 4b 20 	lds	r30, 0x204B
     4b2:	f0 91 4c 20 	lds	r31, 0x204C
     4b6:	61 e0       	ldi	r22, 0x01	; 1
     4b8:	80 e4       	ldi	r24, 0x40	; 64
     4ba:	92 e0       	ldi	r25, 0x02	; 2
     4bc:	19 95       	eicall
}
     4be:	ff 91       	pop	r31
     4c0:	ef 91       	pop	r30
     4c2:	bf 91       	pop	r27
     4c4:	af 91       	pop	r26
     4c6:	9f 91       	pop	r25
     4c8:	8f 91       	pop	r24
     4ca:	7f 91       	pop	r23
     4cc:	6f 91       	pop	r22
     4ce:	5f 91       	pop	r21
     4d0:	4f 91       	pop	r20
     4d2:	3f 91       	pop	r19
     4d4:	2f 91       	pop	r18
     4d6:	0f 90       	pop	r0
     4d8:	0b be       	out	0x3b, r0	; 59
     4da:	0f 90       	pop	r0
     4dc:	0f be       	out	0x3f, r0	; 63
     4de:	0f 90       	pop	r0
     4e0:	1f 90       	pop	r1
     4e2:	18 95       	reti

000004e4 <__vector_40>:
 *
 * Calls the callback function that has been set for the ADC when the channel's
 * interrupt flag is set, if its interrupt has been enabled.
 */
ISR(ADCB_CH1_vect)
{
     4e4:	1f 92       	push	r1
     4e6:	0f 92       	push	r0
     4e8:	0f b6       	in	r0, 0x3f	; 63
     4ea:	0f 92       	push	r0
     4ec:	11 24       	eor	r1, r1
     4ee:	0b b6       	in	r0, 0x3b	; 59
     4f0:	0f 92       	push	r0
     4f2:	2f 93       	push	r18
     4f4:	3f 93       	push	r19
     4f6:	4f 93       	push	r20
     4f8:	5f 93       	push	r21
     4fa:	6f 93       	push	r22
     4fc:	7f 93       	push	r23
     4fe:	8f 93       	push	r24
     500:	9f 93       	push	r25
     502:	af 93       	push	r26
     504:	bf 93       	push	r27
     506:	ef 93       	push	r30
     508:	ff 93       	push	r31
	adcb_callback(&ADCB, ADC_CH1, adc_get_result(&ADCB, ADC_CH1));
     50a:	e8 e6       	ldi	r30, 0x68	; 104
     50c:	f2 e0       	ldi	r31, 0x02	; 2
     50e:	44 81       	ldd	r20, Z+4	; 0x04
     510:	55 81       	ldd	r21, Z+5	; 0x05
     512:	e0 91 4b 20 	lds	r30, 0x204B
     516:	f0 91 4c 20 	lds	r31, 0x204C
     51a:	62 e0       	ldi	r22, 0x02	; 2
     51c:	80 e4       	ldi	r24, 0x40	; 64
     51e:	92 e0       	ldi	r25, 0x02	; 2
     520:	19 95       	eicall
}
     522:	ff 91       	pop	r31
     524:	ef 91       	pop	r30
     526:	bf 91       	pop	r27
     528:	af 91       	pop	r26
     52a:	9f 91       	pop	r25
     52c:	8f 91       	pop	r24
     52e:	7f 91       	pop	r23
     530:	6f 91       	pop	r22
     532:	5f 91       	pop	r21
     534:	4f 91       	pop	r20
     536:	3f 91       	pop	r19
     538:	2f 91       	pop	r18
     53a:	0f 90       	pop	r0
     53c:	0b be       	out	0x3b, r0	; 59
     53e:	0f 90       	pop	r0
     540:	0f be       	out	0x3f, r0	; 63
     542:	0f 90       	pop	r0
     544:	1f 90       	pop	r1
     546:	18 95       	reti

00000548 <__vector_41>:
 *
 * Calls the callback function that has been set for the ADC when the channel's
 * interrupt flag is set, if its interrupt has been enabled.
 */
ISR(ADCB_CH2_vect)
{
     548:	1f 92       	push	r1
     54a:	0f 92       	push	r0
     54c:	0f b6       	in	r0, 0x3f	; 63
     54e:	0f 92       	push	r0
     550:	11 24       	eor	r1, r1
     552:	0b b6       	in	r0, 0x3b	; 59
     554:	0f 92       	push	r0
     556:	2f 93       	push	r18
     558:	3f 93       	push	r19
     55a:	4f 93       	push	r20
     55c:	5f 93       	push	r21
     55e:	6f 93       	push	r22
     560:	7f 93       	push	r23
     562:	8f 93       	push	r24
     564:	9f 93       	push	r25
     566:	af 93       	push	r26
     568:	bf 93       	push	r27
     56a:	ef 93       	push	r30
     56c:	ff 93       	push	r31
	adcb_callback(&ADCB, ADC_CH2, adc_get_result(&ADCB, ADC_CH2));
     56e:	e0 e7       	ldi	r30, 0x70	; 112
     570:	f2 e0       	ldi	r31, 0x02	; 2
     572:	44 81       	ldd	r20, Z+4	; 0x04
     574:	55 81       	ldd	r21, Z+5	; 0x05
     576:	e0 91 4b 20 	lds	r30, 0x204B
     57a:	f0 91 4c 20 	lds	r31, 0x204C
     57e:	64 e0       	ldi	r22, 0x04	; 4
     580:	80 e4       	ldi	r24, 0x40	; 64
     582:	92 e0       	ldi	r25, 0x02	; 2
     584:	19 95       	eicall
}
     586:	ff 91       	pop	r31
     588:	ef 91       	pop	r30
     58a:	bf 91       	pop	r27
     58c:	af 91       	pop	r26
     58e:	9f 91       	pop	r25
     590:	8f 91       	pop	r24
     592:	7f 91       	pop	r23
     594:	6f 91       	pop	r22
     596:	5f 91       	pop	r21
     598:	4f 91       	pop	r20
     59a:	3f 91       	pop	r19
     59c:	2f 91       	pop	r18
     59e:	0f 90       	pop	r0
     5a0:	0b be       	out	0x3b, r0	; 59
     5a2:	0f 90       	pop	r0
     5a4:	0f be       	out	0x3f, r0	; 63
     5a6:	0f 90       	pop	r0
     5a8:	1f 90       	pop	r1
     5aa:	18 95       	reti

000005ac <__vector_42>:
 *
 * Calls the callback function that has been set for the ADC when the channel's
 * interrupt flag is set, if its interrupt has been enabled.
 */
ISR(ADCB_CH3_vect)
{
     5ac:	1f 92       	push	r1
     5ae:	0f 92       	push	r0
     5b0:	0f b6       	in	r0, 0x3f	; 63
     5b2:	0f 92       	push	r0
     5b4:	11 24       	eor	r1, r1
     5b6:	0b b6       	in	r0, 0x3b	; 59
     5b8:	0f 92       	push	r0
     5ba:	2f 93       	push	r18
     5bc:	3f 93       	push	r19
     5be:	4f 93       	push	r20
     5c0:	5f 93       	push	r21
     5c2:	6f 93       	push	r22
     5c4:	7f 93       	push	r23
     5c6:	8f 93       	push	r24
     5c8:	9f 93       	push	r25
     5ca:	af 93       	push	r26
     5cc:	bf 93       	push	r27
     5ce:	ef 93       	push	r30
     5d0:	ff 93       	push	r31
	adcb_callback(&ADCB, ADC_CH3, adc_get_result(&ADCB, ADC_CH3));
     5d2:	e8 e7       	ldi	r30, 0x78	; 120
     5d4:	f2 e0       	ldi	r31, 0x02	; 2
     5d6:	44 81       	ldd	r20, Z+4	; 0x04
     5d8:	55 81       	ldd	r21, Z+5	; 0x05
     5da:	e0 91 4b 20 	lds	r30, 0x204B
     5de:	f0 91 4c 20 	lds	r31, 0x204C
     5e2:	68 e0       	ldi	r22, 0x08	; 8
     5e4:	80 e4       	ldi	r24, 0x40	; 64
     5e6:	92 e0       	ldi	r25, 0x02	; 2
     5e8:	19 95       	eicall
}
     5ea:	ff 91       	pop	r31
     5ec:	ef 91       	pop	r30
     5ee:	bf 91       	pop	r27
     5f0:	af 91       	pop	r26
     5f2:	9f 91       	pop	r25
     5f4:	8f 91       	pop	r24
     5f6:	7f 91       	pop	r23
     5f8:	6f 91       	pop	r22
     5fa:	5f 91       	pop	r21
     5fc:	4f 91       	pop	r20
     5fe:	3f 91       	pop	r19
     600:	2f 91       	pop	r18
     602:	0f 90       	pop	r0
     604:	0b be       	out	0x3b, r0	; 59
     606:	0f 90       	pop	r0
     608:	0f be       	out	0x3f, r0	; 63
     60a:	0f 90       	pop	r0
     60c:	1f 90       	pop	r1
     60e:	18 95       	reti

00000610 <adc_write_configuration>:
 *
 * \param adc Pointer to ADC module.
 * \param conf Pointer to ADC module configuration.
 */
void adc_write_configuration(ADC_t *adc, const struct adc_config *conf)
{
     610:	df 92       	push	r13
     612:	ef 92       	push	r14
     614:	ff 92       	push	r15
     616:	0f 93       	push	r16
     618:	1f 93       	push	r17
     61a:	cf 93       	push	r28
     61c:	df 93       	push	r29
     61e:	ec 01       	movw	r28, r24
     620:	8b 01       	movw	r16, r22
	uint16_t cal;
	uint8_t enable;
	irqflags_t flags;

#ifdef ADCA
	if ((uintptr_t)adc == (uintptr_t)&ADCA) {
     622:	c1 15       	cp	r28, r1
     624:	22 e0       	ldi	r18, 0x02	; 2
     626:	d2 07       	cpc	r29, r18
     628:	71 f4       	brne	.+28     	; 0x646 <adc_write_configuration+0x36>
 *
 * \param address Byte offset into the signature row
 */
static inline uint8_t nvm_read_production_signature_row(uint8_t address)
{
	return nvm_read_byte(NVM_CMD_READ_CALIB_ROW_gc, address);
     62a:	61 e2       	ldi	r22, 0x21	; 33
     62c:	70 e0       	ldi	r23, 0x00	; 0
     62e:	82 e0       	ldi	r24, 0x02	; 2
     630:	99 d1       	rcall	.+818    	; 0x964 <nvm_read_byte>
	uint16_t data;

	switch (cal) {
#ifdef ADCA
	case ADC_CAL_ADCA:
		data = nvm_read_production_signature_row(ADCACAL1);
     632:	e8 2e       	mov	r14, r24
     634:	f1 2c       	mov	r15, r1
     636:	60 e2       	ldi	r22, 0x20	; 32
     638:	70 e0       	ldi	r23, 0x00	; 0
     63a:	82 e0       	ldi	r24, 0x02	; 2
     63c:	93 d1       	rcall	.+806    	; 0x964 <nvm_read_byte>
		data <<= 8;
     63e:	fe 2c       	mov	r15, r14
     640:	ee 24       	eor	r14, r14
		data |= nvm_read_production_signature_row(ADCACAL0);
     642:	e8 2a       	or	r14, r24
     644:	10 c0       	rjmp	.+32     	; 0x666 <adc_write_configuration+0x56>
		cal = adc_get_calibration_data(ADC_CAL_ADCA);
	} else
#endif

#ifdef ADCB
	if ((uintptr_t)adc == (uintptr_t)&ADCB) {
     646:	80 34       	cpi	r24, 0x40	; 64
     648:	92 40       	sbci	r25, 0x02	; 2
     64a:	59 f5       	brne	.+86     	; 0x6a2 <adc_write_configuration+0x92>
     64c:	65 e2       	ldi	r22, 0x25	; 37
     64e:	70 e0       	ldi	r23, 0x00	; 0
     650:	82 e0       	ldi	r24, 0x02	; 2
     652:	88 d1       	rcall	.+784    	; 0x964 <nvm_read_byte>
		break;
#endif

#ifdef ADCB
	case ADC_CAL_ADCB:
		data = nvm_read_production_signature_row(ADCBCAL1);
     654:	e8 2e       	mov	r14, r24
     656:	f1 2c       	mov	r15, r1
     658:	64 e2       	ldi	r22, 0x24	; 36
     65a:	70 e0       	ldi	r23, 0x00	; 0
     65c:	82 e0       	ldi	r24, 0x02	; 2
     65e:	82 d1       	rcall	.+772    	; 0x964 <nvm_read_byte>
		data <<= 8;
     660:	fe 2c       	mov	r15, r14
     662:	ee 24       	eor	r14, r14
		data |= nvm_read_production_signature_row(ADCBCAL0);
     664:	e8 2a       	or	r14, r24

typedef uint8_t irqflags_t;

static inline irqflags_t cpu_irq_save(void)
{
	irqflags_t flags = SREG;
     666:	df b6       	in	r13, 0x3f	; 63
	cpu_irq_disable();
     668:	f8 94       	cli
		Assert(0);
		return;
	}

	flags = cpu_irq_save();
	adc_enable_clock(adc);
     66a:	ce 01       	movw	r24, r28
     66c:	e9 dd       	rcall	.-1070   	; 0x240 <adc_enable_clock>
	enable = adc->CTRLA & ADC_ENABLE_bm;
     66e:	28 81       	ld	r18, Y

	adc->CTRLA = ADC_FLUSH_bm;
     670:	82 e0       	ldi	r24, 0x02	; 2
     672:	88 83       	st	Y, r24
	adc->CAL = cal;
     674:	ec 86       	std	Y+12, r14	; 0x0c
     676:	fd 86       	std	Y+13, r15	; 0x0d
	adc->CMP = conf->cmp;
     678:	f8 01       	movw	r30, r16
     67a:	85 81       	ldd	r24, Z+5	; 0x05
     67c:	96 81       	ldd	r25, Z+6	; 0x06
     67e:	88 8f       	std	Y+24, r24	; 0x18
     680:	99 8f       	std	Y+25, r25	; 0x19
	adc->REFCTRL = conf->refctrl;
     682:	82 81       	ldd	r24, Z+2	; 0x02
     684:	8a 83       	std	Y+2, r24	; 0x02
	adc->PRESCALER = conf->prescaler;
     686:	84 81       	ldd	r24, Z+4	; 0x04
     688:	8c 83       	std	Y+4, r24	; 0x04
	adc->EVCTRL = conf->evctrl;
     68a:	83 81       	ldd	r24, Z+3	; 0x03
     68c:	8b 83       	std	Y+3, r24	; 0x03
	adc->CTRLB = conf->ctrlb;
     68e:	81 81       	ldd	r24, Z+1	; 0x01
     690:	89 83       	std	Y+1, r24	; 0x01
		return;
	}

	flags = cpu_irq_save();
	adc_enable_clock(adc);
	enable = adc->CTRLA & ADC_ENABLE_bm;
     692:	82 2f       	mov	r24, r18
     694:	81 70       	andi	r24, 0x01	; 1
	adc->REFCTRL = conf->refctrl;
	adc->PRESCALER = conf->prescaler;
	adc->EVCTRL = conf->evctrl;
	adc->CTRLB = conf->ctrlb;

	adc->CTRLA = enable | conf->ctrla;
     696:	90 81       	ld	r25, Z
     698:	89 2b       	or	r24, r25
     69a:	88 83       	st	Y, r24

	adc_disable_clock(adc);
     69c:	ce 01       	movw	r24, r28
     69e:	ef dd       	rcall	.-1058   	; 0x27e <adc_disable_clock>
}

static inline void cpu_irq_restore(irqflags_t flags)
{
	barrier();
	SREG = flags;
     6a0:	df be       	out	0x3f, r13	; 63

	cpu_irq_restore(flags);
}
     6a2:	df 91       	pop	r29
     6a4:	cf 91       	pop	r28
     6a6:	1f 91       	pop	r17
     6a8:	0f 91       	pop	r16
     6aa:	ff 90       	pop	r15
     6ac:	ef 90       	pop	r14
     6ae:	df 90       	pop	r13
     6b0:	08 95       	ret

000006b2 <adc_read_configuration>:
 *
 * \param adc Pointer to ADC module.
 * \param conf Pointer to ADC module configuration.
 */
void adc_read_configuration(ADC_t *adc, struct adc_config *conf)
{
     6b2:	ff 92       	push	r15
     6b4:	0f 93       	push	r16
     6b6:	1f 93       	push	r17
     6b8:	cf 93       	push	r28
     6ba:	df 93       	push	r29
     6bc:	ec 01       	movw	r28, r24
     6be:	8b 01       	movw	r16, r22

typedef uint8_t irqflags_t;

static inline irqflags_t cpu_irq_save(void)
{
	irqflags_t flags = SREG;
     6c0:	ff b6       	in	r15, 0x3f	; 63
	cpu_irq_disable();
     6c2:	f8 94       	cli
	irqflags_t flags = cpu_irq_save();

	adc_enable_clock(adc);
     6c4:	bd dd       	rcall	.-1158   	; 0x240 <adc_enable_clock>

	conf->ctrla = adc->CTRLA & ADC_DMASEL_gm;
     6c6:	88 81       	ld	r24, Y
     6c8:	80 7c       	andi	r24, 0xC0	; 192
     6ca:	f8 01       	movw	r30, r16
     6cc:	80 83       	st	Z, r24

	conf->cmp = adc->CMP;
     6ce:	88 8d       	ldd	r24, Y+24	; 0x18
     6d0:	99 8d       	ldd	r25, Y+25	; 0x19
     6d2:	85 83       	std	Z+5, r24	; 0x05
     6d4:	96 83       	std	Z+6, r25	; 0x06
	conf->refctrl = adc->REFCTRL;
     6d6:	8a 81       	ldd	r24, Y+2	; 0x02
     6d8:	82 83       	std	Z+2, r24	; 0x02
	conf->prescaler = adc->PRESCALER;
     6da:	8c 81       	ldd	r24, Y+4	; 0x04
     6dc:	84 83       	std	Z+4, r24	; 0x04
	conf->evctrl = adc->EVCTRL;
     6de:	8b 81       	ldd	r24, Y+3	; 0x03
     6e0:	83 83       	std	Z+3, r24	; 0x03
	conf->ctrlb = adc->CTRLB;
     6e2:	89 81       	ldd	r24, Y+1	; 0x01
     6e4:	81 83       	std	Z+1, r24	; 0x01

	adc_disable_clock(adc);
     6e6:	ce 01       	movw	r24, r28
     6e8:	ca dd       	rcall	.-1132   	; 0x27e <adc_disable_clock>
}

static inline void cpu_irq_restore(irqflags_t flags)
{
	barrier();
	SREG = flags;
     6ea:	ff be       	out	0x3f, r15	; 63

	cpu_irq_restore(flags);
}
     6ec:	df 91       	pop	r29
     6ee:	cf 91       	pop	r28
     6f0:	1f 91       	pop	r17
     6f2:	0f 91       	pop	r16
     6f4:	ff 90       	pop	r15
     6f6:	08 95       	ret

000006f8 <adcch_write_configuration>:
 * is called if callbacks are enabled and interrupts are enabled in the
 * channel configuration.
 */
void adcch_write_configuration(ADC_t *adc, uint8_t ch_mask,
		const struct adc_channel_config *ch_conf)
{
     6f8:	cf 92       	push	r12
     6fa:	df 92       	push	r13
     6fc:	ef 92       	push	r14
     6fe:	ff 92       	push	r15
     700:	0f 93       	push	r16
     702:	1f 93       	push	r17
     704:	cf 93       	push	r28
     706:	df 93       	push	r29
     708:	7c 01       	movw	r14, r24
     70a:	d6 2e       	mov	r13, r22
     70c:	8a 01       	movw	r16, r20
		index += 4;
		ch_mask >>= 4;
	}
#endif
#if ADC_NR_OF_CHANNELS > 2
	if (!(ch_mask & 0x03)) {
     70e:	86 2f       	mov	r24, r22
     710:	83 70       	andi	r24, 0x03	; 3
     712:	29 f4       	brne	.+10     	; 0x71e <adcch_write_configuration+0x26>
		index += 2;
		ch_mask >>= 2;
     714:	96 2f       	mov	r25, r22
     716:	96 95       	lsr	r25
     718:	96 95       	lsr	r25
		ch_mask >>= 4;
	}
#endif
#if ADC_NR_OF_CHANNELS > 2
	if (!(ch_mask & 0x03)) {
		index += 2;
     71a:	82 e0       	ldi	r24, 0x02	; 2
     71c:	02 c0       	rjmp	.+4      	; 0x722 <adcch_write_configuration+0x2a>
		index += 4;
		ch_mask >>= 4;
	}
#endif
#if ADC_NR_OF_CHANNELS > 2
	if (!(ch_mask & 0x03)) {
     71e:	96 2f       	mov	r25, r22
 * \return Pointer to ADC channel
 */
__always_inline static  ADC_CH_t *adc_get_channel(
		ADC_t *adc, uint8_t ch_mask)
{
	uint8_t index = 0;
     720:	80 e0       	ldi	r24, 0x00	; 0
		index += 2;
		ch_mask >>= 2;
	}
#endif
#if ADC_NR_OF_CHANNELS > 1
	if (!(ch_mask & 0x01)) {
     722:	90 ff       	sbrs	r25, 0
		index++;
     724:	8f 5f       	subi	r24, 0xFF	; 255
	}
#endif

	return (ADC_CH_t *)(&adc->CH0 + index);
     726:	e7 01       	movw	r28, r14
     728:	a0 96       	adiw	r28, 0x20	; 32
     72a:	98 e0       	ldi	r25, 0x08	; 8
     72c:	89 9f       	mul	r24, r25
     72e:	c0 0d       	add	r28, r0
     730:	d1 1d       	adc	r29, r1
     732:	11 24       	eor	r1, r1

typedef uint8_t irqflags_t;

static inline irqflags_t cpu_irq_save(void)
{
	irqflags_t flags = SREG;
     734:	cf b6       	in	r12, 0x3f	; 63
	cpu_irq_disable();
     736:	f8 94       	cli
			return;
		}
	}
#endif

	adc_enable_clock(adc);
     738:	c7 01       	movw	r24, r14
     73a:	82 dd       	rcall	.-1276   	; 0x240 <adc_enable_clock>
	adc_ch->CTRL = ch_conf->ctrl;
     73c:	f8 01       	movw	r30, r16
     73e:	80 81       	ld	r24, Z
     740:	88 83       	st	Y, r24
	adc_ch->INTCTRL = ch_conf->intctrl;
     742:	82 81       	ldd	r24, Z+2	; 0x02
     744:	8a 83       	std	Y+2, r24	; 0x02
	adc_ch->MUXCTRL = ch_conf->muxctrl;
     746:	81 81       	ldd	r24, Z+1	; 0x01
     748:	89 83       	std	Y+1, r24	; 0x01
	if (ch_mask & ADC_CH0) {
     74a:	d0 fe       	sbrs	r13, 0
     74c:	02 c0       	rjmp	.+4      	; 0x752 <adcch_write_configuration+0x5a>
		/* USB devices has channel scan available on ADC channel 0 */
		adc_ch->SCAN = ch_conf->scan;
     74e:	83 81       	ldd	r24, Z+3	; 0x03
     750:	8e 83       	std	Y+6, r24	; 0x06
	}
	adc_disable_clock(adc);
     752:	c7 01       	movw	r24, r14
     754:	94 dd       	rcall	.-1240   	; 0x27e <adc_disable_clock>
}

static inline void cpu_irq_restore(irqflags_t flags)
{
	barrier();
	SREG = flags;
     756:	cf be       	out	0x3f, r12	; 63

	cpu_irq_restore(flags);
}
     758:	df 91       	pop	r29
     75a:	cf 91       	pop	r28
     75c:	1f 91       	pop	r17
     75e:	0f 91       	pop	r16
     760:	ff 90       	pop	r15
     762:	ef 90       	pop	r14
     764:	df 90       	pop	r13
     766:	cf 90       	pop	r12
     768:	08 95       	ret

0000076a <adcch_read_configuration>:
 * can be given in mask)
 * \param ch_conf Pointer to ADC channel configuration.
 */
void adcch_read_configuration(ADC_t *adc, uint8_t ch_mask,
		struct adc_channel_config *ch_conf)
{
     76a:	cf 92       	push	r12
     76c:	df 92       	push	r13
     76e:	ef 92       	push	r14
     770:	ff 92       	push	r15
     772:	0f 93       	push	r16
     774:	1f 93       	push	r17
     776:	cf 93       	push	r28
     778:	df 93       	push	r29
     77a:	7c 01       	movw	r14, r24
     77c:	d6 2e       	mov	r13, r22
     77e:	ea 01       	movw	r28, r20
		index += 4;
		ch_mask >>= 4;
	}
#endif
#if ADC_NR_OF_CHANNELS > 2
	if (!(ch_mask & 0x03)) {
     780:	86 2f       	mov	r24, r22
     782:	83 70       	andi	r24, 0x03	; 3
     784:	29 f4       	brne	.+10     	; 0x790 <adcch_read_configuration+0x26>
		index += 2;
		ch_mask >>= 2;
     786:	96 2f       	mov	r25, r22
     788:	96 95       	lsr	r25
     78a:	96 95       	lsr	r25
		ch_mask >>= 4;
	}
#endif
#if ADC_NR_OF_CHANNELS > 2
	if (!(ch_mask & 0x03)) {
		index += 2;
     78c:	82 e0       	ldi	r24, 0x02	; 2
     78e:	02 c0       	rjmp	.+4      	; 0x794 <adcch_read_configuration+0x2a>
		index += 4;
		ch_mask >>= 4;
	}
#endif
#if ADC_NR_OF_CHANNELS > 2
	if (!(ch_mask & 0x03)) {
     790:	96 2f       	mov	r25, r22
 * \return Pointer to ADC channel
 */
__always_inline static  ADC_CH_t *adc_get_channel(
		ADC_t *adc, uint8_t ch_mask)
{
	uint8_t index = 0;
     792:	80 e0       	ldi	r24, 0x00	; 0
		index += 2;
		ch_mask >>= 2;
	}
#endif
#if ADC_NR_OF_CHANNELS > 1
	if (!(ch_mask & 0x01)) {
     794:	90 ff       	sbrs	r25, 0
		index++;
     796:	8f 5f       	subi	r24, 0xFF	; 255
	}
#endif

	return (ADC_CH_t *)(&adc->CH0 + index);
     798:	87 01       	movw	r16, r14
     79a:	00 5e       	subi	r16, 0xE0	; 224
     79c:	1f 4f       	sbci	r17, 0xFF	; 255
     79e:	98 e0       	ldi	r25, 0x08	; 8
     7a0:	89 9f       	mul	r24, r25
     7a2:	00 0d       	add	r16, r0
     7a4:	11 1d       	adc	r17, r1
     7a6:	11 24       	eor	r1, r1

typedef uint8_t irqflags_t;

static inline irqflags_t cpu_irq_save(void)
{
	irqflags_t flags = SREG;
     7a8:	cf b6       	in	r12, 0x3f	; 63
	cpu_irq_disable();
     7aa:	f8 94       	cli

	adc_ch = adc_get_channel(adc, ch_mask);

	flags = cpu_irq_save();

	adc_enable_clock(adc);
     7ac:	c7 01       	movw	r24, r14
     7ae:	48 dd       	rcall	.-1392   	; 0x240 <adc_enable_clock>
	ch_conf->ctrl = adc_ch->CTRL;
     7b0:	f8 01       	movw	r30, r16
     7b2:	80 81       	ld	r24, Z
     7b4:	88 83       	st	Y, r24
	ch_conf->intctrl = adc_ch->INTCTRL;
     7b6:	82 81       	ldd	r24, Z+2	; 0x02
     7b8:	8a 83       	std	Y+2, r24	; 0x02
	ch_conf->muxctrl = adc_ch->MUXCTRL;
     7ba:	81 81       	ldd	r24, Z+1	; 0x01
     7bc:	89 83       	std	Y+1, r24	; 0x01
	if (ch_mask & ADC_CH0) {
     7be:	d0 fe       	sbrs	r13, 0
     7c0:	02 c0       	rjmp	.+4      	; 0x7c6 <adcch_read_configuration+0x5c>
		/* USB devices has channel scan available on ADC channel 0 */
		ch_conf->scan = adc_ch->SCAN;
     7c2:	86 81       	ldd	r24, Z+6	; 0x06
     7c4:	8b 83       	std	Y+3, r24	; 0x03
	}
	adc_disable_clock(adc);
     7c6:	c7 01       	movw	r24, r14
     7c8:	5a dd       	rcall	.-1356   	; 0x27e <adc_disable_clock>
}

static inline void cpu_irq_restore(irqflags_t flags)
{
	barrier();
	SREG = flags;
     7ca:	cf be       	out	0x3f, r12	; 63

	cpu_irq_restore(flags);
}
     7cc:	df 91       	pop	r29
     7ce:	cf 91       	pop	r28
     7d0:	1f 91       	pop	r17
     7d2:	0f 91       	pop	r16
     7d4:	ff 90       	pop	r15
     7d6:	ef 90       	pop	r14
     7d8:	df 90       	pop	r13
     7da:	cf 90       	pop	r12
     7dc:	08 95       	ret

000007de <sysclk_init>:
#endif
	bool need_rc2mhz = false;

	/* Turn off all peripheral clocks that can be turned off. */
	for (i = 0; i <= SYSCLK_PORT_F; i++) {
		*(reg++) = 0xff;
     7de:	8f ef       	ldi	r24, 0xFF	; 255
     7e0:	80 93 70 00 	sts	0x0070, r24
     7e4:	80 93 71 00 	sts	0x0071, r24
     7e8:	80 93 72 00 	sts	0x0072, r24
     7ec:	80 93 73 00 	sts	0x0073, r24
     7f0:	80 93 74 00 	sts	0x0074, r24
     7f4:	80 93 75 00 	sts	0x0075, r24
     7f8:	80 93 76 00 	sts	0x0076, r24
     7fc:	08 95       	ret

000007fe <sysclk_enable_module>:

typedef uint8_t irqflags_t;

static inline irqflags_t cpu_irq_save(void)
{
	irqflags_t flags = SREG;
     7fe:	9f b7       	in	r25, 0x3f	; 63
	cpu_irq_disable();
     800:	f8 94       	cli

void sysclk_enable_module(enum sysclk_port_id port, uint8_t id)
{
	irqflags_t flags = cpu_irq_save();

	*((uint8_t *)&PR.PRGEN + port) &= ~id;
     802:	e8 2f       	mov	r30, r24
     804:	f0 e0       	ldi	r31, 0x00	; 0
     806:	e0 59       	subi	r30, 0x90	; 144
     808:	ff 4f       	sbci	r31, 0xFF	; 255
     80a:	60 95       	com	r22
     80c:	80 81       	ld	r24, Z
     80e:	68 23       	and	r22, r24
     810:	60 83       	st	Z, r22
}

static inline void cpu_irq_restore(irqflags_t flags)
{
	barrier();
	SREG = flags;
     812:	9f bf       	out	0x3f, r25	; 63
     814:	08 95       	ret

00000816 <sysclk_disable_module>:

typedef uint8_t irqflags_t;

static inline irqflags_t cpu_irq_save(void)
{
	irqflags_t flags = SREG;
     816:	9f b7       	in	r25, 0x3f	; 63
	cpu_irq_disable();
     818:	f8 94       	cli

void sysclk_disable_module(enum sysclk_port_id port, uint8_t id)
{
	irqflags_t flags = cpu_irq_save();

	*((uint8_t *)&PR.PRGEN + port) |= id;
     81a:	e8 2f       	mov	r30, r24
     81c:	f0 e0       	ldi	r31, 0x00	; 0
     81e:	e0 59       	subi	r30, 0x90	; 144
     820:	ff 4f       	sbci	r31, 0xFF	; 255
     822:	80 81       	ld	r24, Z
     824:	68 2b       	or	r22, r24
     826:	60 83       	st	Z, r22
}

static inline void cpu_irq_restore(irqflags_t flags)
{
	barrier();
	SREG = flags;
     828:	9f bf       	out	0x3f, r25	; 63
     82a:	08 95       	ret

0000082c <dac_enable_clock>:

	{
		Assert(0);
		return false;
	}
}
     82c:	80 32       	cpi	r24, 0x20	; 32
     82e:	93 40       	sbci	r25, 0x03	; 3
     830:	59 f4       	brne	.+22     	; 0x848 <dac_enable_clock+0x1c>
     832:	80 91 02 20 	lds	r24, 0x2002
     836:	91 e0       	ldi	r25, 0x01	; 1
     838:	98 0f       	add	r25, r24
     83a:	90 93 02 20 	sts	0x2002, r25
     83e:	81 11       	cpse	r24, r1
     840:	03 c0       	rjmp	.+6      	; 0x848 <dac_enable_clock+0x1c>
     842:	64 e0       	ldi	r22, 0x04	; 4
     844:	82 e0       	ldi	r24, 0x02	; 2
     846:	db cf       	rjmp	.-74     	; 0x7fe <sysclk_enable_module>
     848:	08 95       	ret

0000084a <dac_disable_clock>:
     84a:	80 32       	cpi	r24, 0x20	; 32
     84c:	93 40       	sbci	r25, 0x03	; 3
     84e:	51 f4       	brne	.+20     	; 0x864 <dac_disable_clock+0x1a>
     850:	80 91 02 20 	lds	r24, 0x2002
     854:	81 50       	subi	r24, 0x01	; 1
     856:	80 93 02 20 	sts	0x2002, r24
     85a:	81 11       	cpse	r24, r1
     85c:	03 c0       	rjmp	.+6      	; 0x864 <dac_disable_clock+0x1a>
     85e:	64 e0       	ldi	r22, 0x04	; 4
     860:	82 e0       	ldi	r24, 0x02	; 2
     862:	d9 cf       	rjmp	.-78     	; 0x816 <sysclk_disable_module>
     864:	08 95       	ret

00000866 <dac_enable>:
     866:	1f 93       	push	r17
     868:	cf 93       	push	r28
     86a:	df 93       	push	r29
     86c:	ec 01       	movw	r28, r24
     86e:	1f b7       	in	r17, 0x3f	; 63
     870:	f8 94       	cli
     872:	80 91 50 20 	lds	r24, 0x2050
     876:	8f 3f       	cpi	r24, 0xFF	; 255
     878:	09 f4       	brne	.+2      	; 0x87c <dac_enable+0x16>
     87a:	ff cf       	rjmp	.-2      	; 0x87a <dac_enable+0x14>
     87c:	8f b7       	in	r24, 0x3f	; 63
     87e:	f8 94       	cli
     880:	e0 e5       	ldi	r30, 0x50	; 80
     882:	f0 e2       	ldi	r31, 0x20	; 32
     884:	90 81       	ld	r25, Z
     886:	9f 5f       	subi	r25, 0xFF	; 255
     888:	90 83       	st	Z, r25
     88a:	8f bf       	out	0x3f, r24	; 63
     88c:	ce 01       	movw	r24, r28
     88e:	ce df       	rcall	.-100    	; 0x82c <dac_enable_clock>
     890:	88 81       	ld	r24, Y
     892:	81 60       	ori	r24, 0x01	; 1
     894:	88 83       	st	Y, r24
     896:	1f bf       	out	0x3f, r17	; 63
     898:	df 91       	pop	r29
     89a:	cf 91       	pop	r28
     89c:	1f 91       	pop	r17
     89e:	08 95       	ret

000008a0 <dac_write_configuration>:
 *
 * \param dac Pointer to DAC module.
 * \param conf Pointer to DAC configuration.
 */
void dac_write_configuration(DAC_t *dac, struct dac_config *conf)
{
     8a0:	bf 92       	push	r11
     8a2:	cf 92       	push	r12
     8a4:	df 92       	push	r13
     8a6:	ef 92       	push	r14
     8a8:	ff 92       	push	r15
     8aa:	0f 93       	push	r16
     8ac:	1f 93       	push	r17
     8ae:	cf 93       	push	r28
     8b0:	df 93       	push	r29
     8b2:	ec 01       	movw	r28, r24
     8b4:	8b 01       	movw	r16, r22
#  endif
	} else
#endif

#if defined(DACB)
	if ((uintptr_t)dac == (uintptr_t)&DACB) {
     8b6:	c0 32       	cpi	r28, 0x20	; 32
     8b8:	83 e0       	ldi	r24, 0x03	; 3
     8ba:	d8 07       	cpc	r29, r24
     8bc:	61 f5       	brne	.+88     	; 0x916 <dac_write_configuration+0x76>
     8be:	63 e3       	ldi	r22, 0x33	; 51
     8c0:	70 e0       	ldi	r23, 0x00	; 0
     8c2:	82 e0       	ldi	r24, 0x02	; 2
     8c4:	4f d0       	rcall	.+158    	; 0x964 <nvm_read_byte>
     8c6:	b8 2e       	mov	r11, r24
     8c8:	62 e3       	ldi	r22, 0x32	; 50
     8ca:	70 e0       	ldi	r23, 0x00	; 0
     8cc:	82 e0       	ldi	r24, 0x02	; 2
     8ce:	4a d0       	rcall	.+148    	; 0x964 <nvm_read_byte>
     8d0:	c8 2e       	mov	r12, r24
     8d2:	67 e3       	ldi	r22, 0x37	; 55
     8d4:	70 e0       	ldi	r23, 0x00	; 0
     8d6:	82 e0       	ldi	r24, 0x02	; 2
     8d8:	45 d0       	rcall	.+138    	; 0x964 <nvm_read_byte>
     8da:	d8 2e       	mov	r13, r24
     8dc:	66 e3       	ldi	r22, 0x36	; 54
     8de:	70 e0       	ldi	r23, 0x00	; 0
     8e0:	82 e0       	ldi	r24, 0x02	; 2
     8e2:	40 d0       	rcall	.+128    	; 0x964 <nvm_read_byte>
     8e4:	e8 2e       	mov	r14, r24

typedef uint8_t irqflags_t;

static inline irqflags_t cpu_irq_save(void)
{
	irqflags_t flags = SREG;
     8e6:	ff b6       	in	r15, 0x3f	; 63
	cpu_irq_disable();
     8e8:	f8 94       	cli
		Assert(0);
		return;
	}

	flags = cpu_irq_save();
	dac_enable_clock(dac);
     8ea:	ce 01       	movw	r24, r28
     8ec:	9f df       	rcall	.-194    	; 0x82c <dac_enable_clock>

	// Temporarily disable the DAC, remember if it was enabled.
	enable = dac->CTRLA & DAC_ENABLE_bm;
     8ee:	88 81       	ld	r24, Y
	dac->CTRLA = 0;
     8f0:	18 82       	st	Y, r1

	dac->CTRLB = conf->ctrlb;
     8f2:	f8 01       	movw	r30, r16
     8f4:	91 81       	ldd	r25, Z+1	; 0x01
     8f6:	99 83       	std	Y+1, r25	; 0x01
	dac->CTRLC = conf->ctrlc;
     8f8:	92 81       	ldd	r25, Z+2	; 0x02
     8fa:	9a 83       	std	Y+2, r25	; 0x02
	dac->EVCTRL = conf->evctrl;
     8fc:	93 81       	ldd	r25, Z+3	; 0x03
     8fe:	9b 83       	std	Y+3, r25	; 0x03
	dac->TIMCTRL = conf->timctrl;

	dac->GAINCAL = gaincal0;
	dac->OFFSETCAL = offsetcal0;
#elif XMEGA_DAC_VERSION_2
	dac->CH0GAINCAL = gaincal0;
     900:	b8 86       	std	Y+8, r11	; 0x08
	dac->CH0OFFSETCAL = offsetcal0;
     902:	c9 86       	std	Y+9, r12	; 0x09
	dac->CH1GAINCAL = gaincal1;
     904:	da 86       	std	Y+10, r13	; 0x0a
	dac->CH1OFFSETCAL = offsetcal1;
     906:	eb 86       	std	Y+11, r14	; 0x0b

	flags = cpu_irq_save();
	dac_enable_clock(dac);

	// Temporarily disable the DAC, remember if it was enabled.
	enable = dac->CTRLA & DAC_ENABLE_bm;
     908:	81 70       	andi	r24, 0x01	; 1
	dac->CH0OFFSETCAL = offsetcal0;
	dac->CH1GAINCAL = gaincal1;
	dac->CH1OFFSETCAL = offsetcal1;
#endif

	dac->CTRLA = conf->ctrla | enable;
     90a:	90 81       	ld	r25, Z
     90c:	89 2b       	or	r24, r25
     90e:	88 83       	st	Y, r24

	dac_disable_clock(dac);
     910:	ce 01       	movw	r24, r28
     912:	9b df       	rcall	.-202    	; 0x84a <dac_disable_clock>
}

static inline void cpu_irq_restore(irqflags_t flags)
{
	barrier();
	SREG = flags;
     914:	ff be       	out	0x3f, r15	; 63
	cpu_irq_restore(flags);
}
     916:	df 91       	pop	r29
     918:	cf 91       	pop	r28
     91a:	1f 91       	pop	r17
     91c:	0f 91       	pop	r16
     91e:	ff 90       	pop	r15
     920:	ef 90       	pop	r14
     922:	df 90       	pop	r13
     924:	cf 90       	pop	r12
     926:	bf 90       	pop	r11
     928:	08 95       	ret

0000092a <dac_read_configuration>:
 *
 * \param dac Pointer to DAC module.
 * \param conf Pointer to DAC configuration.
 */
void dac_read_configuration(DAC_t *dac, struct dac_config *conf)
{
     92a:	ff 92       	push	r15
     92c:	0f 93       	push	r16
     92e:	1f 93       	push	r17
     930:	cf 93       	push	r28
     932:	df 93       	push	r29
     934:	ec 01       	movw	r28, r24
     936:	8b 01       	movw	r16, r22

typedef uint8_t irqflags_t;

static inline irqflags_t cpu_irq_save(void)
{
	irqflags_t flags = SREG;
     938:	ff b6       	in	r15, 0x3f	; 63
	cpu_irq_disable();
     93a:	f8 94       	cli
	irqflags_t flags;

	flags = cpu_irq_save();
	dac_enable_clock(dac);
     93c:	77 df       	rcall	.-274    	; 0x82c <dac_enable_clock>

	conf->ctrla = dac->CTRLA & ~DAC_ENABLE_bm;
     93e:	88 81       	ld	r24, Y
     940:	8e 7f       	andi	r24, 0xFE	; 254
     942:	f8 01       	movw	r30, r16
     944:	80 83       	st	Z, r24
	conf->ctrlb = dac->CTRLB;
     946:	89 81       	ldd	r24, Y+1	; 0x01
     948:	81 83       	std	Z+1, r24	; 0x01
	conf->ctrlc = dac->CTRLC;
     94a:	8a 81       	ldd	r24, Y+2	; 0x02
     94c:	82 83       	std	Z+2, r24	; 0x02
	conf->evctrl = dac->EVCTRL;
     94e:	8b 81       	ldd	r24, Y+3	; 0x03
     950:	83 83       	std	Z+3, r24	; 0x03

#if XMEGA_DAC_VERSION_1
	conf->timctrl = dac->TIMCTRL;
#endif

	dac_disable_clock(dac);
     952:	ce 01       	movw	r24, r28
     954:	7a df       	rcall	.-268    	; 0x84a <dac_disable_clock>
}

static inline void cpu_irq_restore(irqflags_t flags)
{
	barrier();
	SREG = flags;
     956:	ff be       	out	0x3f, r15	; 63
	cpu_irq_restore(flags);
}
     958:	df 91       	pop	r29
     95a:	cf 91       	pop	r28
     95c:	1f 91       	pop	r17
     95e:	0f 91       	pop	r16
     960:	ff 90       	pop	r15
     962:	08 95       	ret

00000964 <nvm_read_byte>:
#endif

#ifndef __DOXYGEN__
	PUBLIC_FUNCTION(nvm_read_byte)
#if defined(__GNUC__)
	lds r20, NVM_CMD          ; Store NVM command register
     964:	40 91 ca 01 	lds	r20, 0x01CA
	mov ZL, r22               ; Load byte index into low byte of Z.
     968:	e6 2f       	mov	r30, r22
	mov ZH, r23               ; Load high byte into Z.
     96a:	f7 2f       	mov	r31, r23
	sts NVM_CMD, r24          ; Load prepared command into NVM Command register.
     96c:	80 93 ca 01 	sts	0x01CA, r24
	lpm r24, Z                ; Perform an LPM to read out byte
     970:	84 91       	lpm	r24, Z
	sts NVM_CMD, r20          ; Restore NVM command register
     972:	40 93 ca 01 	sts	0x01CA, r20
	sts NVM_CMD, r16          ; Load prepared command into NVM Command register.
	lpm r16, Z                ; Perform an LPM to read out byte
	sts NVM_CMD, r20          ; Restore NVM command register
#endif

	ret
     976:	08 95       	ret

00000978 <ioport_configure_port_pin>:
#include "ioport_compat.h"

#if defined(IOPORT_XMEGA_COMPAT)
void ioport_configure_port_pin(void *port, pin_mask_t pin_mask,
		port_pin_flags_t flags)
{
     978:	cf 93       	push	r28
     97a:	df 93       	push	r29
     97c:	fc 01       	movw	r30, r24
     97e:	70 96       	adiw	r30, 0x10	; 16
	uint8_t pin;

	for (pin = 0; pin < 8; pin++) {
		if (pin_mask & (1 << pin)) {
			*((uint8_t *)port + PORT_PIN0CTRL + pin) = flags >> 8;
     980:	20 e0       	ldi	r18, 0x00	; 0
     982:	30 e0       	ldi	r19, 0x00	; 0
		port_pin_flags_t flags)
{
	uint8_t pin;

	for (pin = 0; pin < 8; pin++) {
		if (pin_mask & (1 << pin)) {
     984:	c6 2f       	mov	r28, r22
     986:	d0 e0       	ldi	r29, 0x00	; 0
     988:	de 01       	movw	r26, r28
     98a:	02 2e       	mov	r0, r18
     98c:	02 c0       	rjmp	.+4      	; 0x992 <ioport_configure_port_pin+0x1a>
     98e:	b5 95       	asr	r27
     990:	a7 95       	ror	r26
     992:	0a 94       	dec	r0
     994:	e2 f7       	brpl	.-8      	; 0x98e <ioport_configure_port_pin+0x16>
     996:	a0 fd       	sbrc	r26, 0
			*((uint8_t *)port + PORT_PIN0CTRL + pin) = flags >> 8;
     998:	50 83       	st	Z, r21
     99a:	2f 5f       	subi	r18, 0xFF	; 255
     99c:	3f 4f       	sbci	r19, 0xFF	; 255
     99e:	31 96       	adiw	r30, 0x01	; 1
void ioport_configure_port_pin(void *port, pin_mask_t pin_mask,
		port_pin_flags_t flags)
{
	uint8_t pin;

	for (pin = 0; pin < 8; pin++) {
     9a0:	28 30       	cpi	r18, 0x08	; 8
     9a2:	31 05       	cpc	r19, r1
     9a4:	89 f7       	brne	.-30     	; 0x988 <ioport_configure_port_pin+0x10>
		if (pin_mask & (1 << pin)) {
			*((uint8_t *)port + PORT_PIN0CTRL + pin) = flags >> 8;
		}
	}
	/* Select direction and initial pin state */
	if (flags & IOPORT_DIR_OUTPUT) {
     9a6:	40 ff       	sbrs	r20, 0
     9a8:	0a c0       	rjmp	.+20     	; 0x9be <ioport_configure_port_pin+0x46>
		if (flags & IOPORT_INIT_HIGH) {
     9aa:	41 ff       	sbrs	r20, 1
     9ac:	03 c0       	rjmp	.+6      	; 0x9b4 <ioport_configure_port_pin+0x3c>
			*((uint8_t *)port + PORT_OUTSET) = pin_mask;
     9ae:	fc 01       	movw	r30, r24
     9b0:	65 83       	std	Z+5, r22	; 0x05
     9b2:	02 c0       	rjmp	.+4      	; 0x9b8 <ioport_configure_port_pin+0x40>
		} else {
			*((uint8_t *)port + PORT_OUTCLR) = pin_mask;
     9b4:	fc 01       	movw	r30, r24
     9b6:	66 83       	std	Z+6, r22	; 0x06
		}

		*((uint8_t *)port + PORT_DIRSET) = pin_mask;
     9b8:	fc 01       	movw	r30, r24
     9ba:	61 83       	std	Z+1, r22	; 0x01
     9bc:	02 c0       	rjmp	.+4      	; 0x9c2 <ioport_configure_port_pin+0x4a>
	} else {
		*((uint8_t *)port + PORT_DIRCLR) = pin_mask;
     9be:	fc 01       	movw	r30, r24
     9c0:	62 83       	std	Z+2, r22	; 0x02
	}
}
     9c2:	df 91       	pop	r29
     9c4:	cf 91       	pop	r28
     9c6:	08 95       	ret

000009c8 <board_init>:
 * \param flags Bitmask of flags specifying additional configuration
 * parameters.
 */
static inline void ioport_configure_pin(port_pin_t pin, port_pin_flags_t flags)
{
	ioport_configure_port_pin(arch_ioport_pin_to_base(pin),
     9c8:	43 e0       	ldi	r20, 0x03	; 3
     9ca:	50 e0       	ldi	r21, 0x00	; 0
     9cc:	61 e0       	ldi	r22, 0x01	; 1
     9ce:	80 ee       	ldi	r24, 0xE0	; 224
     9d0:	97 e0       	ldi	r25, 0x07	; 7
     9d2:	d2 df       	rcall	.-92     	; 0x978 <ioport_configure_port_pin>
     9d4:	43 e0       	ldi	r20, 0x03	; 3
     9d6:	50 e0       	ldi	r21, 0x00	; 0
     9d8:	62 e0       	ldi	r22, 0x02	; 2
     9da:	80 ee       	ldi	r24, 0xE0	; 224
     9dc:	97 e0       	ldi	r25, 0x07	; 7
     9de:	cc df       	rcall	.-104    	; 0x978 <ioport_configure_port_pin>
     9e0:	43 e0       	ldi	r20, 0x03	; 3
     9e2:	50 e0       	ldi	r21, 0x00	; 0
     9e4:	60 e1       	ldi	r22, 0x10	; 16
     9e6:	80 e6       	ldi	r24, 0x60	; 96
     9e8:	96 e0       	ldi	r25, 0x06	; 6
     9ea:	c6 df       	rcall	.-116    	; 0x978 <ioport_configure_port_pin>
     9ec:	41 e0       	ldi	r20, 0x01	; 1
     9ee:	50 e4       	ldi	r21, 0x40	; 64
     9f0:	60 e2       	ldi	r22, 0x20	; 32
     9f2:	80 e6       	ldi	r24, 0x60	; 96
     9f4:	96 e0       	ldi	r25, 0x06	; 6
     9f6:	c0 df       	rcall	.-128    	; 0x978 <ioport_configure_port_pin>
     9f8:	40 e0       	ldi	r20, 0x00	; 0
     9fa:	5b e1       	ldi	r21, 0x1B	; 27
     9fc:	60 e2       	ldi	r22, 0x20	; 32
     9fe:	80 e8       	ldi	r24, 0x80	; 128
     a00:	96 e0       	ldi	r25, 0x06	; 6
     a02:	ba df       	rcall	.-140    	; 0x978 <ioport_configure_port_pin>
     a04:	40 e0       	ldi	r20, 0x00	; 0
     a06:	5b e1       	ldi	r21, 0x1B	; 27
     a08:	62 e0       	ldi	r22, 0x02	; 2
     a0a:	80 ea       	ldi	r24, 0xA0	; 160
     a0c:	96 e0       	ldi	r25, 0x06	; 6
     a0e:	b4 df       	rcall	.-152    	; 0x978 <ioport_configure_port_pin>
     a10:	40 e0       	ldi	r20, 0x00	; 0
     a12:	5b e1       	ldi	r21, 0x1B	; 27
     a14:	64 e0       	ldi	r22, 0x04	; 4
     a16:	80 ea       	ldi	r24, 0xA0	; 160
     a18:	96 e0       	ldi	r25, 0x06	; 6
     a1a:	ae df       	rcall	.-164    	; 0x978 <ioport_configure_port_pin>
     a1c:	43 e0       	ldi	r20, 0x03	; 3
     a1e:	50 e0       	ldi	r21, 0x00	; 0
     a20:	62 e0       	ldi	r22, 0x02	; 2
     a22:	80 e6       	ldi	r24, 0x60	; 96
     a24:	96 e0       	ldi	r25, 0x06	; 6
     a26:	a8 df       	rcall	.-176    	; 0x978 <ioport_configure_port_pin>
     a28:	43 e0       	ldi	r20, 0x03	; 3
     a2a:	50 e0       	ldi	r21, 0x00	; 0
     a2c:	68 e0       	ldi	r22, 0x08	; 8
     a2e:	80 e6       	ldi	r24, 0x60	; 96
     a30:	96 e0       	ldi	r25, 0x06	; 6
     a32:	a2 df       	rcall	.-188    	; 0x978 <ioport_configure_port_pin>
     a34:	43 e0       	ldi	r20, 0x03	; 3
     a36:	50 e0       	ldi	r21, 0x00	; 0
     a38:	68 e0       	ldi	r22, 0x08	; 8
     a3a:	80 ea       	ldi	r24, 0xA0	; 160
     a3c:	96 e0       	ldi	r25, 0x06	; 6
     a3e:	9c df       	rcall	.-200    	; 0x978 <ioport_configure_port_pin>
     a40:	43 e0       	ldi	r20, 0x03	; 3
     a42:	50 e0       	ldi	r21, 0x00	; 0
     a44:	61 e0       	ldi	r22, 0x01	; 1
     a46:	80 e6       	ldi	r24, 0x60	; 96
     a48:	96 e0       	ldi	r25, 0x06	; 6
     a4a:	96 df       	rcall	.-212    	; 0x978 <ioport_configure_port_pin>
     a4c:	43 e0       	ldi	r20, 0x03	; 3
     a4e:	50 e0       	ldi	r21, 0x00	; 0
     a50:	68 e0       	ldi	r22, 0x08	; 8
     a52:	80 e0       	ldi	r24, 0x00	; 0
     a54:	96 e0       	ldi	r25, 0x06	; 6
     a56:	90 df       	rcall	.-224    	; 0x978 <ioport_configure_port_pin>
     a58:	41 e0       	ldi	r20, 0x01	; 1
     a5a:	50 e0       	ldi	r21, 0x00	; 0
     a5c:	60 e1       	ldi	r22, 0x10	; 16
     a5e:	80 e8       	ldi	r24, 0x80	; 128
     a60:	96 e0       	ldi	r25, 0x06	; 6
     a62:	8a df       	rcall	.-236    	; 0x978 <ioport_configure_port_pin>
     a64:	43 e0       	ldi	r20, 0x03	; 3
     a66:	50 e0       	ldi	r21, 0x00	; 0
     a68:	62 e0       	ldi	r22, 0x02	; 2
     a6a:	80 e6       	ldi	r24, 0x60	; 96
     a6c:	96 e0       	ldi	r25, 0x06	; 6
     a6e:	84 df       	rcall	.-248    	; 0x978 <ioport_configure_port_pin>
     a70:	43 e0       	ldi	r20, 0x03	; 3
     a72:	50 e0       	ldi	r21, 0x00	; 0
     a74:	68 e0       	ldi	r22, 0x08	; 8
     a76:	80 e6       	ldi	r24, 0x60	; 96
     a78:	96 e0       	ldi	r25, 0x06	; 6
     a7a:	7e df       	rcall	.-260    	; 0x978 <ioport_configure_port_pin>
     a7c:	40 e0       	ldi	r20, 0x00	; 0
     a7e:	50 e0       	ldi	r21, 0x00	; 0
     a80:	64 e0       	ldi	r22, 0x04	; 4
     a82:	80 e6       	ldi	r24, 0x60	; 96
     a84:	96 e0       	ldi	r25, 0x06	; 6
     a86:	78 df       	rcall	.-272    	; 0x978 <ioport_configure_port_pin>
     a88:	43 e0       	ldi	r20, 0x03	; 3
     a8a:	50 e0       	ldi	r21, 0x00	; 0
     a8c:	60 e1       	ldi	r22, 0x10	; 16
     a8e:	80 ea       	ldi	r24, 0xA0	; 160
     a90:	96 e0       	ldi	r25, 0x06	; 6
     a92:	72 df       	rcall	.-284    	; 0x978 <ioport_configure_port_pin>
     a94:	40 e0       	ldi	r20, 0x00	; 0
     a96:	50 e0       	ldi	r21, 0x00	; 0
     a98:	61 e0       	ldi	r22, 0x01	; 1
     a9a:	80 e0       	ldi	r24, 0x00	; 0
     a9c:	96 e0       	ldi	r25, 0x06	; 6
     a9e:	6c df       	rcall	.-296    	; 0x978 <ioport_configure_port_pin>
     aa0:	40 e0       	ldi	r20, 0x00	; 0
     aa2:	50 e0       	ldi	r21, 0x00	; 0
     aa4:	64 e0       	ldi	r22, 0x04	; 4
     aa6:	80 e0       	ldi	r24, 0x00	; 0
     aa8:	96 e0       	ldi	r25, 0x06	; 6
     aaa:	66 df       	rcall	.-308    	; 0x978 <ioport_configure_port_pin>
     aac:	40 e0       	ldi	r20, 0x00	; 0
     aae:	50 e0       	ldi	r21, 0x00	; 0
     ab0:	62 e0       	ldi	r22, 0x02	; 2
     ab2:	80 e2       	ldi	r24, 0x20	; 32
     ab4:	96 e0       	ldi	r25, 0x06	; 6
     ab6:	60 df       	rcall	.-320    	; 0x978 <ioport_configure_port_pin>
     ab8:	43 e0       	ldi	r20, 0x03	; 3
     aba:	50 e0       	ldi	r21, 0x00	; 0
     abc:	68 e0       	ldi	r22, 0x08	; 8
     abe:	80 e4       	ldi	r24, 0x40	; 64
     ac0:	96 e0       	ldi	r25, 0x06	; 6
     ac2:	5a df       	rcall	.-332    	; 0x978 <ioport_configure_port_pin>
     ac4:	40 e0       	ldi	r20, 0x00	; 0
     ac6:	50 e0       	ldi	r21, 0x00	; 0
     ac8:	64 e0       	ldi	r22, 0x04	; 4
     aca:	80 e4       	ldi	r24, 0x40	; 64
     acc:	96 e0       	ldi	r25, 0x06	; 6
     ace:	54 df       	rcall	.-344    	; 0x978 <ioport_configure_port_pin>
     ad0:	43 e0       	ldi	r20, 0x03	; 3
     ad2:	50 e0       	ldi	r21, 0x00	; 0
     ad4:	68 e0       	ldi	r22, 0x08	; 8
     ad6:	80 e6       	ldi	r24, 0x60	; 96
     ad8:	96 e0       	ldi	r25, 0x06	; 6
     ada:	4e df       	rcall	.-356    	; 0x978 <ioport_configure_port_pin>
     adc:	40 e0       	ldi	r20, 0x00	; 0
     ade:	50 e0       	ldi	r21, 0x00	; 0
     ae0:	64 e0       	ldi	r22, 0x04	; 4
     ae2:	80 e6       	ldi	r24, 0x60	; 96
     ae4:	96 e0       	ldi	r25, 0x06	; 6
     ae6:	48 df       	rcall	.-368    	; 0x978 <ioport_configure_port_pin>
     ae8:	43 e0       	ldi	r20, 0x03	; 3
     aea:	50 e0       	ldi	r21, 0x00	; 0
     aec:	68 e0       	ldi	r22, 0x08	; 8
     aee:	80 e8       	ldi	r24, 0x80	; 128
     af0:	96 e0       	ldi	r25, 0x06	; 6
     af2:	42 df       	rcall	.-380    	; 0x978 <ioport_configure_port_pin>
     af4:	40 e0       	ldi	r20, 0x00	; 0
     af6:	50 e0       	ldi	r21, 0x00	; 0
     af8:	64 e0       	ldi	r22, 0x04	; 4
     afa:	80 e8       	ldi	r24, 0x80	; 128
     afc:	96 e0       	ldi	r25, 0x06	; 6
     afe:	3c cf       	rjmp	.-392    	; 0x978 <ioport_configure_port_pin>
     b00:	08 95       	ret

00000b02 <__vector_14>:
 *
 * This function will handle interrupt on Timer Counter CO overflow and
 * call the callback function.
 */
ISR(TCC0_OVF_vect)
{
     b02:	1f 92       	push	r1
     b04:	0f 92       	push	r0
     b06:	0f b6       	in	r0, 0x3f	; 63
     b08:	0f 92       	push	r0
     b0a:	11 24       	eor	r1, r1
     b0c:	0b b6       	in	r0, 0x3b	; 59
     b0e:	0f 92       	push	r0
     b10:	2f 93       	push	r18
     b12:	3f 93       	push	r19
     b14:	4f 93       	push	r20
     b16:	5f 93       	push	r21
     b18:	6f 93       	push	r22
     b1a:	7f 93       	push	r23
     b1c:	8f 93       	push	r24
     b1e:	9f 93       	push	r25
     b20:	af 93       	push	r26
     b22:	bf 93       	push	r27
     b24:	ef 93       	push	r30
     b26:	ff 93       	push	r31
	if (tc_tcc0_ovf_callback) {
     b28:	e0 91 49 20 	lds	r30, 0x2049
     b2c:	f0 91 4a 20 	lds	r31, 0x204A
     b30:	30 97       	sbiw	r30, 0x00	; 0
     b32:	09 f0       	breq	.+2      	; 0xb36 <__vector_14+0x34>
		tc_tcc0_ovf_callback();
     b34:	19 95       	eicall
	}
}
     b36:	ff 91       	pop	r31
     b38:	ef 91       	pop	r30
     b3a:	bf 91       	pop	r27
     b3c:	af 91       	pop	r26
     b3e:	9f 91       	pop	r25
     b40:	8f 91       	pop	r24
     b42:	7f 91       	pop	r23
     b44:	6f 91       	pop	r22
     b46:	5f 91       	pop	r21
     b48:	4f 91       	pop	r20
     b4a:	3f 91       	pop	r19
     b4c:	2f 91       	pop	r18
     b4e:	0f 90       	pop	r0
     b50:	0b be       	out	0x3b, r0	; 59
     b52:	0f 90       	pop	r0
     b54:	0f be       	out	0x3f, r0	; 63
     b56:	0f 90       	pop	r0
     b58:	1f 90       	pop	r1
     b5a:	18 95       	reti

00000b5c <__vector_15>:
 *
 * This function will handle interrupt on Timer Counter CO error and
 * call the callback function.
 */
ISR(TCC0_ERR_vect)
{
     b5c:	1f 92       	push	r1
     b5e:	0f 92       	push	r0
     b60:	0f b6       	in	r0, 0x3f	; 63
     b62:	0f 92       	push	r0
     b64:	11 24       	eor	r1, r1
     b66:	0b b6       	in	r0, 0x3b	; 59
     b68:	0f 92       	push	r0
     b6a:	2f 93       	push	r18
     b6c:	3f 93       	push	r19
     b6e:	4f 93       	push	r20
     b70:	5f 93       	push	r21
     b72:	6f 93       	push	r22
     b74:	7f 93       	push	r23
     b76:	8f 93       	push	r24
     b78:	9f 93       	push	r25
     b7a:	af 93       	push	r26
     b7c:	bf 93       	push	r27
     b7e:	ef 93       	push	r30
     b80:	ff 93       	push	r31
	if (tc_tcc0_err_callback) {
     b82:	e0 91 47 20 	lds	r30, 0x2047
     b86:	f0 91 48 20 	lds	r31, 0x2048
     b8a:	30 97       	sbiw	r30, 0x00	; 0
     b8c:	09 f0       	breq	.+2      	; 0xb90 <__vector_15+0x34>
		tc_tcc0_err_callback();
     b8e:	19 95       	eicall
	}
}
     b90:	ff 91       	pop	r31
     b92:	ef 91       	pop	r30
     b94:	bf 91       	pop	r27
     b96:	af 91       	pop	r26
     b98:	9f 91       	pop	r25
     b9a:	8f 91       	pop	r24
     b9c:	7f 91       	pop	r23
     b9e:	6f 91       	pop	r22
     ba0:	5f 91       	pop	r21
     ba2:	4f 91       	pop	r20
     ba4:	3f 91       	pop	r19
     ba6:	2f 91       	pop	r18
     ba8:	0f 90       	pop	r0
     baa:	0b be       	out	0x3b, r0	; 59
     bac:	0f 90       	pop	r0
     bae:	0f be       	out	0x3f, r0	; 63
     bb0:	0f 90       	pop	r0
     bb2:	1f 90       	pop	r1
     bb4:	18 95       	reti

00000bb6 <__vector_16>:
 *
 * This function will handle interrupt on Timer Counter CO Compare/CaptureA and
 * call the callback function.
 */
ISR(TCC0_CCA_vect)
{
     bb6:	1f 92       	push	r1
     bb8:	0f 92       	push	r0
     bba:	0f b6       	in	r0, 0x3f	; 63
     bbc:	0f 92       	push	r0
     bbe:	11 24       	eor	r1, r1
     bc0:	0b b6       	in	r0, 0x3b	; 59
     bc2:	0f 92       	push	r0
     bc4:	2f 93       	push	r18
     bc6:	3f 93       	push	r19
     bc8:	4f 93       	push	r20
     bca:	5f 93       	push	r21
     bcc:	6f 93       	push	r22
     bce:	7f 93       	push	r23
     bd0:	8f 93       	push	r24
     bd2:	9f 93       	push	r25
     bd4:	af 93       	push	r26
     bd6:	bf 93       	push	r27
     bd8:	ef 93       	push	r30
     bda:	ff 93       	push	r31
	if (tc_tcc0_cca_callback) {
     bdc:	e0 91 45 20 	lds	r30, 0x2045
     be0:	f0 91 46 20 	lds	r31, 0x2046
     be4:	30 97       	sbiw	r30, 0x00	; 0
     be6:	09 f0       	breq	.+2      	; 0xbea <__vector_16+0x34>
		tc_tcc0_cca_callback();
     be8:	19 95       	eicall
	}
}
     bea:	ff 91       	pop	r31
     bec:	ef 91       	pop	r30
     bee:	bf 91       	pop	r27
     bf0:	af 91       	pop	r26
     bf2:	9f 91       	pop	r25
     bf4:	8f 91       	pop	r24
     bf6:	7f 91       	pop	r23
     bf8:	6f 91       	pop	r22
     bfa:	5f 91       	pop	r21
     bfc:	4f 91       	pop	r20
     bfe:	3f 91       	pop	r19
     c00:	2f 91       	pop	r18
     c02:	0f 90       	pop	r0
     c04:	0b be       	out	0x3b, r0	; 59
     c06:	0f 90       	pop	r0
     c08:	0f be       	out	0x3f, r0	; 63
     c0a:	0f 90       	pop	r0
     c0c:	1f 90       	pop	r1
     c0e:	18 95       	reti

00000c10 <__vector_17>:
 *
 * This function will handle interrupt on Timer Counter CO Compare/CaptureB and
 * call the callback function.
 */
ISR(TCC0_CCB_vect)
{
     c10:	1f 92       	push	r1
     c12:	0f 92       	push	r0
     c14:	0f b6       	in	r0, 0x3f	; 63
     c16:	0f 92       	push	r0
     c18:	11 24       	eor	r1, r1
     c1a:	0b b6       	in	r0, 0x3b	; 59
     c1c:	0f 92       	push	r0
     c1e:	2f 93       	push	r18
     c20:	3f 93       	push	r19
     c22:	4f 93       	push	r20
     c24:	5f 93       	push	r21
     c26:	6f 93       	push	r22
     c28:	7f 93       	push	r23
     c2a:	8f 93       	push	r24
     c2c:	9f 93       	push	r25
     c2e:	af 93       	push	r26
     c30:	bf 93       	push	r27
     c32:	ef 93       	push	r30
     c34:	ff 93       	push	r31
	if (tc_tcc0_ccb_callback) {
     c36:	e0 91 43 20 	lds	r30, 0x2043
     c3a:	f0 91 44 20 	lds	r31, 0x2044
     c3e:	30 97       	sbiw	r30, 0x00	; 0
     c40:	09 f0       	breq	.+2      	; 0xc44 <__vector_17+0x34>
		tc_tcc0_ccb_callback();
     c42:	19 95       	eicall
	}
}
     c44:	ff 91       	pop	r31
     c46:	ef 91       	pop	r30
     c48:	bf 91       	pop	r27
     c4a:	af 91       	pop	r26
     c4c:	9f 91       	pop	r25
     c4e:	8f 91       	pop	r24
     c50:	7f 91       	pop	r23
     c52:	6f 91       	pop	r22
     c54:	5f 91       	pop	r21
     c56:	4f 91       	pop	r20
     c58:	3f 91       	pop	r19
     c5a:	2f 91       	pop	r18
     c5c:	0f 90       	pop	r0
     c5e:	0b be       	out	0x3b, r0	; 59
     c60:	0f 90       	pop	r0
     c62:	0f be       	out	0x3f, r0	; 63
     c64:	0f 90       	pop	r0
     c66:	1f 90       	pop	r1
     c68:	18 95       	reti

00000c6a <__vector_18>:
 *
 * This function will handle interrupt on Timer Counter CO Compare/CaptureC and
 * call the callback function.
 */
ISR(TCC0_CCC_vect)
{
     c6a:	1f 92       	push	r1
     c6c:	0f 92       	push	r0
     c6e:	0f b6       	in	r0, 0x3f	; 63
     c70:	0f 92       	push	r0
     c72:	11 24       	eor	r1, r1
     c74:	0b b6       	in	r0, 0x3b	; 59
     c76:	0f 92       	push	r0
     c78:	2f 93       	push	r18
     c7a:	3f 93       	push	r19
     c7c:	4f 93       	push	r20
     c7e:	5f 93       	push	r21
     c80:	6f 93       	push	r22
     c82:	7f 93       	push	r23
     c84:	8f 93       	push	r24
     c86:	9f 93       	push	r25
     c88:	af 93       	push	r26
     c8a:	bf 93       	push	r27
     c8c:	ef 93       	push	r30
     c8e:	ff 93       	push	r31
	if (tc_tcc0_ccc_callback) {
     c90:	e0 91 41 20 	lds	r30, 0x2041
     c94:	f0 91 42 20 	lds	r31, 0x2042
     c98:	30 97       	sbiw	r30, 0x00	; 0
     c9a:	09 f0       	breq	.+2      	; 0xc9e <__vector_18+0x34>
		tc_tcc0_ccc_callback();
     c9c:	19 95       	eicall
	}
}
     c9e:	ff 91       	pop	r31
     ca0:	ef 91       	pop	r30
     ca2:	bf 91       	pop	r27
     ca4:	af 91       	pop	r26
     ca6:	9f 91       	pop	r25
     ca8:	8f 91       	pop	r24
     caa:	7f 91       	pop	r23
     cac:	6f 91       	pop	r22
     cae:	5f 91       	pop	r21
     cb0:	4f 91       	pop	r20
     cb2:	3f 91       	pop	r19
     cb4:	2f 91       	pop	r18
     cb6:	0f 90       	pop	r0
     cb8:	0b be       	out	0x3b, r0	; 59
     cba:	0f 90       	pop	r0
     cbc:	0f be       	out	0x3f, r0	; 63
     cbe:	0f 90       	pop	r0
     cc0:	1f 90       	pop	r1
     cc2:	18 95       	reti

00000cc4 <__vector_19>:
 *
 * This function will handle interrupt on Timer Counter CO Compare/CaptureD and
 * call the callback function.
 */
ISR(TCC0_CCD_vect)
{
     cc4:	1f 92       	push	r1
     cc6:	0f 92       	push	r0
     cc8:	0f b6       	in	r0, 0x3f	; 63
     cca:	0f 92       	push	r0
     ccc:	11 24       	eor	r1, r1
     cce:	0b b6       	in	r0, 0x3b	; 59
     cd0:	0f 92       	push	r0
     cd2:	2f 93       	push	r18
     cd4:	3f 93       	push	r19
     cd6:	4f 93       	push	r20
     cd8:	5f 93       	push	r21
     cda:	6f 93       	push	r22
     cdc:	7f 93       	push	r23
     cde:	8f 93       	push	r24
     ce0:	9f 93       	push	r25
     ce2:	af 93       	push	r26
     ce4:	bf 93       	push	r27
     ce6:	ef 93       	push	r30
     ce8:	ff 93       	push	r31
	if (tc_tcc0_ccd_callback) {
     cea:	e0 91 3f 20 	lds	r30, 0x203F
     cee:	f0 91 40 20 	lds	r31, 0x2040
     cf2:	30 97       	sbiw	r30, 0x00	; 0
     cf4:	09 f0       	breq	.+2      	; 0xcf8 <__vector_19+0x34>
		tc_tcc0_ccd_callback();
     cf6:	19 95       	eicall
	}
}
     cf8:	ff 91       	pop	r31
     cfa:	ef 91       	pop	r30
     cfc:	bf 91       	pop	r27
     cfe:	af 91       	pop	r26
     d00:	9f 91       	pop	r25
     d02:	8f 91       	pop	r24
     d04:	7f 91       	pop	r23
     d06:	6f 91       	pop	r22
     d08:	5f 91       	pop	r21
     d0a:	4f 91       	pop	r20
     d0c:	3f 91       	pop	r19
     d0e:	2f 91       	pop	r18
     d10:	0f 90       	pop	r0
     d12:	0b be       	out	0x3b, r0	; 59
     d14:	0f 90       	pop	r0
     d16:	0f be       	out	0x3f, r0	; 63
     d18:	0f 90       	pop	r0
     d1a:	1f 90       	pop	r1
     d1c:	18 95       	reti

00000d1e <__vector_20>:
 *
 * This function will handle interrupt on Timer Counter C1 overflow and
 * call the callback function.
 */
ISR(TCC1_OVF_vect)
{
     d1e:	1f 92       	push	r1
     d20:	0f 92       	push	r0
     d22:	0f b6       	in	r0, 0x3f	; 63
     d24:	0f 92       	push	r0
     d26:	11 24       	eor	r1, r1
     d28:	0b b6       	in	r0, 0x3b	; 59
     d2a:	0f 92       	push	r0
     d2c:	2f 93       	push	r18
     d2e:	3f 93       	push	r19
     d30:	4f 93       	push	r20
     d32:	5f 93       	push	r21
     d34:	6f 93       	push	r22
     d36:	7f 93       	push	r23
     d38:	8f 93       	push	r24
     d3a:	9f 93       	push	r25
     d3c:	af 93       	push	r26
     d3e:	bf 93       	push	r27
     d40:	ef 93       	push	r30
     d42:	ff 93       	push	r31
	if (tc_tcc1_ovf_callback) {
     d44:	e0 91 3d 20 	lds	r30, 0x203D
     d48:	f0 91 3e 20 	lds	r31, 0x203E
     d4c:	30 97       	sbiw	r30, 0x00	; 0
     d4e:	09 f0       	breq	.+2      	; 0xd52 <__vector_20+0x34>
		tc_tcc1_ovf_callback();
     d50:	19 95       	eicall
	}
}
     d52:	ff 91       	pop	r31
     d54:	ef 91       	pop	r30
     d56:	bf 91       	pop	r27
     d58:	af 91       	pop	r26
     d5a:	9f 91       	pop	r25
     d5c:	8f 91       	pop	r24
     d5e:	7f 91       	pop	r23
     d60:	6f 91       	pop	r22
     d62:	5f 91       	pop	r21
     d64:	4f 91       	pop	r20
     d66:	3f 91       	pop	r19
     d68:	2f 91       	pop	r18
     d6a:	0f 90       	pop	r0
     d6c:	0b be       	out	0x3b, r0	; 59
     d6e:	0f 90       	pop	r0
     d70:	0f be       	out	0x3f, r0	; 63
     d72:	0f 90       	pop	r0
     d74:	1f 90       	pop	r1
     d76:	18 95       	reti

00000d78 <__vector_21>:
 *
 * This function will handle interrupt on Timer Counter C1 error and
 * call the callback function.
 */
ISR(TCC1_ERR_vect)
{
     d78:	1f 92       	push	r1
     d7a:	0f 92       	push	r0
     d7c:	0f b6       	in	r0, 0x3f	; 63
     d7e:	0f 92       	push	r0
     d80:	11 24       	eor	r1, r1
     d82:	0b b6       	in	r0, 0x3b	; 59
     d84:	0f 92       	push	r0
     d86:	2f 93       	push	r18
     d88:	3f 93       	push	r19
     d8a:	4f 93       	push	r20
     d8c:	5f 93       	push	r21
     d8e:	6f 93       	push	r22
     d90:	7f 93       	push	r23
     d92:	8f 93       	push	r24
     d94:	9f 93       	push	r25
     d96:	af 93       	push	r26
     d98:	bf 93       	push	r27
     d9a:	ef 93       	push	r30
     d9c:	ff 93       	push	r31
	if (tc_tcc1_err_callback) {
     d9e:	e0 91 3b 20 	lds	r30, 0x203B
     da2:	f0 91 3c 20 	lds	r31, 0x203C
     da6:	30 97       	sbiw	r30, 0x00	; 0
     da8:	09 f0       	breq	.+2      	; 0xdac <__vector_21+0x34>
		tc_tcc1_err_callback();
     daa:	19 95       	eicall
	}
}
     dac:	ff 91       	pop	r31
     dae:	ef 91       	pop	r30
     db0:	bf 91       	pop	r27
     db2:	af 91       	pop	r26
     db4:	9f 91       	pop	r25
     db6:	8f 91       	pop	r24
     db8:	7f 91       	pop	r23
     dba:	6f 91       	pop	r22
     dbc:	5f 91       	pop	r21
     dbe:	4f 91       	pop	r20
     dc0:	3f 91       	pop	r19
     dc2:	2f 91       	pop	r18
     dc4:	0f 90       	pop	r0
     dc6:	0b be       	out	0x3b, r0	; 59
     dc8:	0f 90       	pop	r0
     dca:	0f be       	out	0x3f, r0	; 63
     dcc:	0f 90       	pop	r0
     dce:	1f 90       	pop	r1
     dd0:	18 95       	reti

00000dd2 <__vector_22>:
 *
 * This function will handle interrupt on Timer Counter C1 Compare/CaptureA and
 * call the callback function.
 */
ISR(TCC1_CCA_vect)
{
     dd2:	1f 92       	push	r1
     dd4:	0f 92       	push	r0
     dd6:	0f b6       	in	r0, 0x3f	; 63
     dd8:	0f 92       	push	r0
     dda:	11 24       	eor	r1, r1
     ddc:	0b b6       	in	r0, 0x3b	; 59
     dde:	0f 92       	push	r0
     de0:	2f 93       	push	r18
     de2:	3f 93       	push	r19
     de4:	4f 93       	push	r20
     de6:	5f 93       	push	r21
     de8:	6f 93       	push	r22
     dea:	7f 93       	push	r23
     dec:	8f 93       	push	r24
     dee:	9f 93       	push	r25
     df0:	af 93       	push	r26
     df2:	bf 93       	push	r27
     df4:	ef 93       	push	r30
     df6:	ff 93       	push	r31
	if (tc_tcc1_cca_callback) {
     df8:	e0 91 39 20 	lds	r30, 0x2039
     dfc:	f0 91 3a 20 	lds	r31, 0x203A
     e00:	30 97       	sbiw	r30, 0x00	; 0
     e02:	09 f0       	breq	.+2      	; 0xe06 <__vector_22+0x34>
		tc_tcc1_cca_callback();
     e04:	19 95       	eicall
	}
}
     e06:	ff 91       	pop	r31
     e08:	ef 91       	pop	r30
     e0a:	bf 91       	pop	r27
     e0c:	af 91       	pop	r26
     e0e:	9f 91       	pop	r25
     e10:	8f 91       	pop	r24
     e12:	7f 91       	pop	r23
     e14:	6f 91       	pop	r22
     e16:	5f 91       	pop	r21
     e18:	4f 91       	pop	r20
     e1a:	3f 91       	pop	r19
     e1c:	2f 91       	pop	r18
     e1e:	0f 90       	pop	r0
     e20:	0b be       	out	0x3b, r0	; 59
     e22:	0f 90       	pop	r0
     e24:	0f be       	out	0x3f, r0	; 63
     e26:	0f 90       	pop	r0
     e28:	1f 90       	pop	r1
     e2a:	18 95       	reti

00000e2c <__vector_23>:
 *
 * This function will handle interrupt on Timer Counter C1 Compare/CaptureB and
 * call the callback function.
 */
ISR(TCC1_CCB_vect)
{
     e2c:	1f 92       	push	r1
     e2e:	0f 92       	push	r0
     e30:	0f b6       	in	r0, 0x3f	; 63
     e32:	0f 92       	push	r0
     e34:	11 24       	eor	r1, r1
     e36:	0b b6       	in	r0, 0x3b	; 59
     e38:	0f 92       	push	r0
     e3a:	2f 93       	push	r18
     e3c:	3f 93       	push	r19
     e3e:	4f 93       	push	r20
     e40:	5f 93       	push	r21
     e42:	6f 93       	push	r22
     e44:	7f 93       	push	r23
     e46:	8f 93       	push	r24
     e48:	9f 93       	push	r25
     e4a:	af 93       	push	r26
     e4c:	bf 93       	push	r27
     e4e:	ef 93       	push	r30
     e50:	ff 93       	push	r31
	if (tc_tcc1_ccb_callback) {
     e52:	e0 91 37 20 	lds	r30, 0x2037
     e56:	f0 91 38 20 	lds	r31, 0x2038
     e5a:	30 97       	sbiw	r30, 0x00	; 0
     e5c:	09 f0       	breq	.+2      	; 0xe60 <__vector_23+0x34>
		tc_tcc1_ccb_callback();
     e5e:	19 95       	eicall
	}
}
     e60:	ff 91       	pop	r31
     e62:	ef 91       	pop	r30
     e64:	bf 91       	pop	r27
     e66:	af 91       	pop	r26
     e68:	9f 91       	pop	r25
     e6a:	8f 91       	pop	r24
     e6c:	7f 91       	pop	r23
     e6e:	6f 91       	pop	r22
     e70:	5f 91       	pop	r21
     e72:	4f 91       	pop	r20
     e74:	3f 91       	pop	r19
     e76:	2f 91       	pop	r18
     e78:	0f 90       	pop	r0
     e7a:	0b be       	out	0x3b, r0	; 59
     e7c:	0f 90       	pop	r0
     e7e:	0f be       	out	0x3f, r0	; 63
     e80:	0f 90       	pop	r0
     e82:	1f 90       	pop	r1
     e84:	18 95       	reti

00000e86 <__vector_77>:
 *
 * This function will handle interrupt on Timer Counter D0 overflow and
 * call the callback function.
 */
ISR(TCD0_OVF_vect)
{
     e86:	1f 92       	push	r1
     e88:	0f 92       	push	r0
     e8a:	0f b6       	in	r0, 0x3f	; 63
     e8c:	0f 92       	push	r0
     e8e:	11 24       	eor	r1, r1
     e90:	0b b6       	in	r0, 0x3b	; 59
     e92:	0f 92       	push	r0
     e94:	2f 93       	push	r18
     e96:	3f 93       	push	r19
     e98:	4f 93       	push	r20
     e9a:	5f 93       	push	r21
     e9c:	6f 93       	push	r22
     e9e:	7f 93       	push	r23
     ea0:	8f 93       	push	r24
     ea2:	9f 93       	push	r25
     ea4:	af 93       	push	r26
     ea6:	bf 93       	push	r27
     ea8:	ef 93       	push	r30
     eaa:	ff 93       	push	r31
	if (tc_tcd0_ovf_callback) {
     eac:	e0 91 35 20 	lds	r30, 0x2035
     eb0:	f0 91 36 20 	lds	r31, 0x2036
     eb4:	30 97       	sbiw	r30, 0x00	; 0
     eb6:	09 f0       	breq	.+2      	; 0xeba <__vector_77+0x34>
		tc_tcd0_ovf_callback();
     eb8:	19 95       	eicall
	}
}
     eba:	ff 91       	pop	r31
     ebc:	ef 91       	pop	r30
     ebe:	bf 91       	pop	r27
     ec0:	af 91       	pop	r26
     ec2:	9f 91       	pop	r25
     ec4:	8f 91       	pop	r24
     ec6:	7f 91       	pop	r23
     ec8:	6f 91       	pop	r22
     eca:	5f 91       	pop	r21
     ecc:	4f 91       	pop	r20
     ece:	3f 91       	pop	r19
     ed0:	2f 91       	pop	r18
     ed2:	0f 90       	pop	r0
     ed4:	0b be       	out	0x3b, r0	; 59
     ed6:	0f 90       	pop	r0
     ed8:	0f be       	out	0x3f, r0	; 63
     eda:	0f 90       	pop	r0
     edc:	1f 90       	pop	r1
     ede:	18 95       	reti

00000ee0 <__vector_78>:
 *
 * This function will handle interrupt on Timer Counter D0 error and
 * call the callback function.
 */
ISR(TCD0_ERR_vect)
{
     ee0:	1f 92       	push	r1
     ee2:	0f 92       	push	r0
     ee4:	0f b6       	in	r0, 0x3f	; 63
     ee6:	0f 92       	push	r0
     ee8:	11 24       	eor	r1, r1
     eea:	0b b6       	in	r0, 0x3b	; 59
     eec:	0f 92       	push	r0
     eee:	2f 93       	push	r18
     ef0:	3f 93       	push	r19
     ef2:	4f 93       	push	r20
     ef4:	5f 93       	push	r21
     ef6:	6f 93       	push	r22
     ef8:	7f 93       	push	r23
     efa:	8f 93       	push	r24
     efc:	9f 93       	push	r25
     efe:	af 93       	push	r26
     f00:	bf 93       	push	r27
     f02:	ef 93       	push	r30
     f04:	ff 93       	push	r31
	if (tc_tcd0_err_callback) {
     f06:	e0 91 33 20 	lds	r30, 0x2033
     f0a:	f0 91 34 20 	lds	r31, 0x2034
     f0e:	30 97       	sbiw	r30, 0x00	; 0
     f10:	09 f0       	breq	.+2      	; 0xf14 <__vector_78+0x34>
		tc_tcd0_err_callback();
     f12:	19 95       	eicall
	}
}
     f14:	ff 91       	pop	r31
     f16:	ef 91       	pop	r30
     f18:	bf 91       	pop	r27
     f1a:	af 91       	pop	r26
     f1c:	9f 91       	pop	r25
     f1e:	8f 91       	pop	r24
     f20:	7f 91       	pop	r23
     f22:	6f 91       	pop	r22
     f24:	5f 91       	pop	r21
     f26:	4f 91       	pop	r20
     f28:	3f 91       	pop	r19
     f2a:	2f 91       	pop	r18
     f2c:	0f 90       	pop	r0
     f2e:	0b be       	out	0x3b, r0	; 59
     f30:	0f 90       	pop	r0
     f32:	0f be       	out	0x3f, r0	; 63
     f34:	0f 90       	pop	r0
     f36:	1f 90       	pop	r1
     f38:	18 95       	reti

00000f3a <__vector_79>:
 *
 * This function will handle interrupt on Timer Counter D0 Compare/CaptureA and
 * call the callback function.
 */
ISR(TCD0_CCA_vect)
{
     f3a:	1f 92       	push	r1
     f3c:	0f 92       	push	r0
     f3e:	0f b6       	in	r0, 0x3f	; 63
     f40:	0f 92       	push	r0
     f42:	11 24       	eor	r1, r1
     f44:	0b b6       	in	r0, 0x3b	; 59
     f46:	0f 92       	push	r0
     f48:	2f 93       	push	r18
     f4a:	3f 93       	push	r19
     f4c:	4f 93       	push	r20
     f4e:	5f 93       	push	r21
     f50:	6f 93       	push	r22
     f52:	7f 93       	push	r23
     f54:	8f 93       	push	r24
     f56:	9f 93       	push	r25
     f58:	af 93       	push	r26
     f5a:	bf 93       	push	r27
     f5c:	ef 93       	push	r30
     f5e:	ff 93       	push	r31
	if (tc_tcd0_cca_callback) {
     f60:	e0 91 31 20 	lds	r30, 0x2031
     f64:	f0 91 32 20 	lds	r31, 0x2032
     f68:	30 97       	sbiw	r30, 0x00	; 0
     f6a:	09 f0       	breq	.+2      	; 0xf6e <__vector_79+0x34>
		tc_tcd0_cca_callback();
     f6c:	19 95       	eicall
	}
}
     f6e:	ff 91       	pop	r31
     f70:	ef 91       	pop	r30
     f72:	bf 91       	pop	r27
     f74:	af 91       	pop	r26
     f76:	9f 91       	pop	r25
     f78:	8f 91       	pop	r24
     f7a:	7f 91       	pop	r23
     f7c:	6f 91       	pop	r22
     f7e:	5f 91       	pop	r21
     f80:	4f 91       	pop	r20
     f82:	3f 91       	pop	r19
     f84:	2f 91       	pop	r18
     f86:	0f 90       	pop	r0
     f88:	0b be       	out	0x3b, r0	; 59
     f8a:	0f 90       	pop	r0
     f8c:	0f be       	out	0x3f, r0	; 63
     f8e:	0f 90       	pop	r0
     f90:	1f 90       	pop	r1
     f92:	18 95       	reti

00000f94 <__vector_80>:
 *
 * This function will handle interrupt on Timer Counter D0 Compare/CaptureB and
 * call the callback function.
 */
ISR(TCD0_CCB_vect)
{
     f94:	1f 92       	push	r1
     f96:	0f 92       	push	r0
     f98:	0f b6       	in	r0, 0x3f	; 63
     f9a:	0f 92       	push	r0
     f9c:	11 24       	eor	r1, r1
     f9e:	0b b6       	in	r0, 0x3b	; 59
     fa0:	0f 92       	push	r0
     fa2:	2f 93       	push	r18
     fa4:	3f 93       	push	r19
     fa6:	4f 93       	push	r20
     fa8:	5f 93       	push	r21
     faa:	6f 93       	push	r22
     fac:	7f 93       	push	r23
     fae:	8f 93       	push	r24
     fb0:	9f 93       	push	r25
     fb2:	af 93       	push	r26
     fb4:	bf 93       	push	r27
     fb6:	ef 93       	push	r30
     fb8:	ff 93       	push	r31
	if (tc_tcd0_ccb_callback) {
     fba:	e0 91 2f 20 	lds	r30, 0x202F
     fbe:	f0 91 30 20 	lds	r31, 0x2030
     fc2:	30 97       	sbiw	r30, 0x00	; 0
     fc4:	09 f0       	breq	.+2      	; 0xfc8 <__vector_80+0x34>
		tc_tcd0_ccb_callback();
     fc6:	19 95       	eicall
	}
}
     fc8:	ff 91       	pop	r31
     fca:	ef 91       	pop	r30
     fcc:	bf 91       	pop	r27
     fce:	af 91       	pop	r26
     fd0:	9f 91       	pop	r25
     fd2:	8f 91       	pop	r24
     fd4:	7f 91       	pop	r23
     fd6:	6f 91       	pop	r22
     fd8:	5f 91       	pop	r21
     fda:	4f 91       	pop	r20
     fdc:	3f 91       	pop	r19
     fde:	2f 91       	pop	r18
     fe0:	0f 90       	pop	r0
     fe2:	0b be       	out	0x3b, r0	; 59
     fe4:	0f 90       	pop	r0
     fe6:	0f be       	out	0x3f, r0	; 63
     fe8:	0f 90       	pop	r0
     fea:	1f 90       	pop	r1
     fec:	18 95       	reti

00000fee <__vector_81>:
 *
 * This function will handle interrupt on Timer Counter D0 Compare/CaptureC and
 * call the callback function.
 */
ISR(TCD0_CCC_vect)
{
     fee:	1f 92       	push	r1
     ff0:	0f 92       	push	r0
     ff2:	0f b6       	in	r0, 0x3f	; 63
     ff4:	0f 92       	push	r0
     ff6:	11 24       	eor	r1, r1
     ff8:	0b b6       	in	r0, 0x3b	; 59
     ffa:	0f 92       	push	r0
     ffc:	2f 93       	push	r18
     ffe:	3f 93       	push	r19
    1000:	4f 93       	push	r20
    1002:	5f 93       	push	r21
    1004:	6f 93       	push	r22
    1006:	7f 93       	push	r23
    1008:	8f 93       	push	r24
    100a:	9f 93       	push	r25
    100c:	af 93       	push	r26
    100e:	bf 93       	push	r27
    1010:	ef 93       	push	r30
    1012:	ff 93       	push	r31
	if (tc_tcd0_ccc_callback) {
    1014:	e0 91 2d 20 	lds	r30, 0x202D
    1018:	f0 91 2e 20 	lds	r31, 0x202E
    101c:	30 97       	sbiw	r30, 0x00	; 0
    101e:	09 f0       	breq	.+2      	; 0x1022 <__vector_81+0x34>
		tc_tcd0_ccc_callback();
    1020:	19 95       	eicall
	}
}
    1022:	ff 91       	pop	r31
    1024:	ef 91       	pop	r30
    1026:	bf 91       	pop	r27
    1028:	af 91       	pop	r26
    102a:	9f 91       	pop	r25
    102c:	8f 91       	pop	r24
    102e:	7f 91       	pop	r23
    1030:	6f 91       	pop	r22
    1032:	5f 91       	pop	r21
    1034:	4f 91       	pop	r20
    1036:	3f 91       	pop	r19
    1038:	2f 91       	pop	r18
    103a:	0f 90       	pop	r0
    103c:	0b be       	out	0x3b, r0	; 59
    103e:	0f 90       	pop	r0
    1040:	0f be       	out	0x3f, r0	; 63
    1042:	0f 90       	pop	r0
    1044:	1f 90       	pop	r1
    1046:	18 95       	reti

00001048 <__vector_82>:
 *
 * This function will handle interrupt on Timer Counter D0 Compare/CaptureD and
 * call the callback function.
 */
ISR(TCD0_CCD_vect)
{
    1048:	1f 92       	push	r1
    104a:	0f 92       	push	r0
    104c:	0f b6       	in	r0, 0x3f	; 63
    104e:	0f 92       	push	r0
    1050:	11 24       	eor	r1, r1
    1052:	0b b6       	in	r0, 0x3b	; 59
    1054:	0f 92       	push	r0
    1056:	2f 93       	push	r18
    1058:	3f 93       	push	r19
    105a:	4f 93       	push	r20
    105c:	5f 93       	push	r21
    105e:	6f 93       	push	r22
    1060:	7f 93       	push	r23
    1062:	8f 93       	push	r24
    1064:	9f 93       	push	r25
    1066:	af 93       	push	r26
    1068:	bf 93       	push	r27
    106a:	ef 93       	push	r30
    106c:	ff 93       	push	r31
	if (tc_tcd0_ccd_callback) {
    106e:	e0 91 2b 20 	lds	r30, 0x202B
    1072:	f0 91 2c 20 	lds	r31, 0x202C
    1076:	30 97       	sbiw	r30, 0x00	; 0
    1078:	09 f0       	breq	.+2      	; 0x107c <__vector_82+0x34>
		tc_tcd0_ccd_callback();
    107a:	19 95       	eicall
	}
}
    107c:	ff 91       	pop	r31
    107e:	ef 91       	pop	r30
    1080:	bf 91       	pop	r27
    1082:	af 91       	pop	r26
    1084:	9f 91       	pop	r25
    1086:	8f 91       	pop	r24
    1088:	7f 91       	pop	r23
    108a:	6f 91       	pop	r22
    108c:	5f 91       	pop	r21
    108e:	4f 91       	pop	r20
    1090:	3f 91       	pop	r19
    1092:	2f 91       	pop	r18
    1094:	0f 90       	pop	r0
    1096:	0b be       	out	0x3b, r0	; 59
    1098:	0f 90       	pop	r0
    109a:	0f be       	out	0x3f, r0	; 63
    109c:	0f 90       	pop	r0
    109e:	1f 90       	pop	r1
    10a0:	18 95       	reti

000010a2 <__vector_83>:
 *
 * This function will handle interrupt on Timer Counter D1 overflow and
 * call the callback function.
 */
ISR(TCD1_OVF_vect)
{
    10a2:	1f 92       	push	r1
    10a4:	0f 92       	push	r0
    10a6:	0f b6       	in	r0, 0x3f	; 63
    10a8:	0f 92       	push	r0
    10aa:	11 24       	eor	r1, r1
    10ac:	0b b6       	in	r0, 0x3b	; 59
    10ae:	0f 92       	push	r0
    10b0:	2f 93       	push	r18
    10b2:	3f 93       	push	r19
    10b4:	4f 93       	push	r20
    10b6:	5f 93       	push	r21
    10b8:	6f 93       	push	r22
    10ba:	7f 93       	push	r23
    10bc:	8f 93       	push	r24
    10be:	9f 93       	push	r25
    10c0:	af 93       	push	r26
    10c2:	bf 93       	push	r27
    10c4:	ef 93       	push	r30
    10c6:	ff 93       	push	r31
	if (tc_tcd1_ovf_callback) {
    10c8:	e0 91 29 20 	lds	r30, 0x2029
    10cc:	f0 91 2a 20 	lds	r31, 0x202A
    10d0:	30 97       	sbiw	r30, 0x00	; 0
    10d2:	09 f0       	breq	.+2      	; 0x10d6 <__vector_83+0x34>
		tc_tcd1_ovf_callback();
    10d4:	19 95       	eicall
	}
}
    10d6:	ff 91       	pop	r31
    10d8:	ef 91       	pop	r30
    10da:	bf 91       	pop	r27
    10dc:	af 91       	pop	r26
    10de:	9f 91       	pop	r25
    10e0:	8f 91       	pop	r24
    10e2:	7f 91       	pop	r23
    10e4:	6f 91       	pop	r22
    10e6:	5f 91       	pop	r21
    10e8:	4f 91       	pop	r20
    10ea:	3f 91       	pop	r19
    10ec:	2f 91       	pop	r18
    10ee:	0f 90       	pop	r0
    10f0:	0b be       	out	0x3b, r0	; 59
    10f2:	0f 90       	pop	r0
    10f4:	0f be       	out	0x3f, r0	; 63
    10f6:	0f 90       	pop	r0
    10f8:	1f 90       	pop	r1
    10fa:	18 95       	reti

000010fc <__vector_84>:
 *
 * This function will handle interrupt on Timer Counter D1 error and
 * call the callback function.
 */
ISR(TCD1_ERR_vect)
{
    10fc:	1f 92       	push	r1
    10fe:	0f 92       	push	r0
    1100:	0f b6       	in	r0, 0x3f	; 63
    1102:	0f 92       	push	r0
    1104:	11 24       	eor	r1, r1
    1106:	0b b6       	in	r0, 0x3b	; 59
    1108:	0f 92       	push	r0
    110a:	2f 93       	push	r18
    110c:	3f 93       	push	r19
    110e:	4f 93       	push	r20
    1110:	5f 93       	push	r21
    1112:	6f 93       	push	r22
    1114:	7f 93       	push	r23
    1116:	8f 93       	push	r24
    1118:	9f 93       	push	r25
    111a:	af 93       	push	r26
    111c:	bf 93       	push	r27
    111e:	ef 93       	push	r30
    1120:	ff 93       	push	r31
	if (tc_tcd1_err_callback) {
    1122:	e0 91 27 20 	lds	r30, 0x2027
    1126:	f0 91 28 20 	lds	r31, 0x2028
    112a:	30 97       	sbiw	r30, 0x00	; 0
    112c:	09 f0       	breq	.+2      	; 0x1130 <__vector_84+0x34>
		tc_tcd1_err_callback();
    112e:	19 95       	eicall
	}
}
    1130:	ff 91       	pop	r31
    1132:	ef 91       	pop	r30
    1134:	bf 91       	pop	r27
    1136:	af 91       	pop	r26
    1138:	9f 91       	pop	r25
    113a:	8f 91       	pop	r24
    113c:	7f 91       	pop	r23
    113e:	6f 91       	pop	r22
    1140:	5f 91       	pop	r21
    1142:	4f 91       	pop	r20
    1144:	3f 91       	pop	r19
    1146:	2f 91       	pop	r18
    1148:	0f 90       	pop	r0
    114a:	0b be       	out	0x3b, r0	; 59
    114c:	0f 90       	pop	r0
    114e:	0f be       	out	0x3f, r0	; 63
    1150:	0f 90       	pop	r0
    1152:	1f 90       	pop	r1
    1154:	18 95       	reti

00001156 <__vector_85>:
 *
 * This function will handle interrupt on Timer Counter D1 Compare/CaptureA and
 * call the callback function.
 */
ISR(TCD1_CCA_vect)
{
    1156:	1f 92       	push	r1
    1158:	0f 92       	push	r0
    115a:	0f b6       	in	r0, 0x3f	; 63
    115c:	0f 92       	push	r0
    115e:	11 24       	eor	r1, r1
    1160:	0b b6       	in	r0, 0x3b	; 59
    1162:	0f 92       	push	r0
    1164:	2f 93       	push	r18
    1166:	3f 93       	push	r19
    1168:	4f 93       	push	r20
    116a:	5f 93       	push	r21
    116c:	6f 93       	push	r22
    116e:	7f 93       	push	r23
    1170:	8f 93       	push	r24
    1172:	9f 93       	push	r25
    1174:	af 93       	push	r26
    1176:	bf 93       	push	r27
    1178:	ef 93       	push	r30
    117a:	ff 93       	push	r31
	if (tc_tcd1_cca_callback) {
    117c:	e0 91 25 20 	lds	r30, 0x2025
    1180:	f0 91 26 20 	lds	r31, 0x2026
    1184:	30 97       	sbiw	r30, 0x00	; 0
    1186:	09 f0       	breq	.+2      	; 0x118a <__vector_85+0x34>
		tc_tcd1_cca_callback();
    1188:	19 95       	eicall
	}
}
    118a:	ff 91       	pop	r31
    118c:	ef 91       	pop	r30
    118e:	bf 91       	pop	r27
    1190:	af 91       	pop	r26
    1192:	9f 91       	pop	r25
    1194:	8f 91       	pop	r24
    1196:	7f 91       	pop	r23
    1198:	6f 91       	pop	r22
    119a:	5f 91       	pop	r21
    119c:	4f 91       	pop	r20
    119e:	3f 91       	pop	r19
    11a0:	2f 91       	pop	r18
    11a2:	0f 90       	pop	r0
    11a4:	0b be       	out	0x3b, r0	; 59
    11a6:	0f 90       	pop	r0
    11a8:	0f be       	out	0x3f, r0	; 63
    11aa:	0f 90       	pop	r0
    11ac:	1f 90       	pop	r1
    11ae:	18 95       	reti

000011b0 <__vector_86>:
 *
 * This function will handle interrupt on Timer Counter D1 Compare/CaptureB and
 * call the callback function.
 */
ISR(TCD1_CCB_vect)
{
    11b0:	1f 92       	push	r1
    11b2:	0f 92       	push	r0
    11b4:	0f b6       	in	r0, 0x3f	; 63
    11b6:	0f 92       	push	r0
    11b8:	11 24       	eor	r1, r1
    11ba:	0b b6       	in	r0, 0x3b	; 59
    11bc:	0f 92       	push	r0
    11be:	2f 93       	push	r18
    11c0:	3f 93       	push	r19
    11c2:	4f 93       	push	r20
    11c4:	5f 93       	push	r21
    11c6:	6f 93       	push	r22
    11c8:	7f 93       	push	r23
    11ca:	8f 93       	push	r24
    11cc:	9f 93       	push	r25
    11ce:	af 93       	push	r26
    11d0:	bf 93       	push	r27
    11d2:	ef 93       	push	r30
    11d4:	ff 93       	push	r31
	if (tc_tcd1_ccb_callback) {
    11d6:	e0 91 23 20 	lds	r30, 0x2023
    11da:	f0 91 24 20 	lds	r31, 0x2024
    11de:	30 97       	sbiw	r30, 0x00	; 0
    11e0:	09 f0       	breq	.+2      	; 0x11e4 <__vector_86+0x34>
		tc_tcd1_ccb_callback();
    11e2:	19 95       	eicall
	}
}
    11e4:	ff 91       	pop	r31
    11e6:	ef 91       	pop	r30
    11e8:	bf 91       	pop	r27
    11ea:	af 91       	pop	r26
    11ec:	9f 91       	pop	r25
    11ee:	8f 91       	pop	r24
    11f0:	7f 91       	pop	r23
    11f2:	6f 91       	pop	r22
    11f4:	5f 91       	pop	r21
    11f6:	4f 91       	pop	r20
    11f8:	3f 91       	pop	r19
    11fa:	2f 91       	pop	r18
    11fc:	0f 90       	pop	r0
    11fe:	0b be       	out	0x3b, r0	; 59
    1200:	0f 90       	pop	r0
    1202:	0f be       	out	0x3f, r0	; 63
    1204:	0f 90       	pop	r0
    1206:	1f 90       	pop	r1
    1208:	18 95       	reti

0000120a <__vector_47>:
 *
 * This function will handle interrupt on Timer Counter E0 overflow and
 * call the callback function.
 */
ISR(TCE0_OVF_vect)
{
    120a:	1f 92       	push	r1
    120c:	0f 92       	push	r0
    120e:	0f b6       	in	r0, 0x3f	; 63
    1210:	0f 92       	push	r0
    1212:	11 24       	eor	r1, r1
    1214:	0b b6       	in	r0, 0x3b	; 59
    1216:	0f 92       	push	r0
    1218:	2f 93       	push	r18
    121a:	3f 93       	push	r19
    121c:	4f 93       	push	r20
    121e:	5f 93       	push	r21
    1220:	6f 93       	push	r22
    1222:	7f 93       	push	r23
    1224:	8f 93       	push	r24
    1226:	9f 93       	push	r25
    1228:	af 93       	push	r26
    122a:	bf 93       	push	r27
    122c:	ef 93       	push	r30
    122e:	ff 93       	push	r31
	if (tc_tce0_ovf_callback) {
    1230:	e0 91 21 20 	lds	r30, 0x2021
    1234:	f0 91 22 20 	lds	r31, 0x2022
    1238:	30 97       	sbiw	r30, 0x00	; 0
    123a:	09 f0       	breq	.+2      	; 0x123e <__vector_47+0x34>
		tc_tce0_ovf_callback();
    123c:	19 95       	eicall
	}
}
    123e:	ff 91       	pop	r31
    1240:	ef 91       	pop	r30
    1242:	bf 91       	pop	r27
    1244:	af 91       	pop	r26
    1246:	9f 91       	pop	r25
    1248:	8f 91       	pop	r24
    124a:	7f 91       	pop	r23
    124c:	6f 91       	pop	r22
    124e:	5f 91       	pop	r21
    1250:	4f 91       	pop	r20
    1252:	3f 91       	pop	r19
    1254:	2f 91       	pop	r18
    1256:	0f 90       	pop	r0
    1258:	0b be       	out	0x3b, r0	; 59
    125a:	0f 90       	pop	r0
    125c:	0f be       	out	0x3f, r0	; 63
    125e:	0f 90       	pop	r0
    1260:	1f 90       	pop	r1
    1262:	18 95       	reti

00001264 <__vector_48>:
 *
 * This function will handle interrupt on Timer Counter E0 error and
 * call the callback function.
 */
ISR(TCE0_ERR_vect)
{
    1264:	1f 92       	push	r1
    1266:	0f 92       	push	r0
    1268:	0f b6       	in	r0, 0x3f	; 63
    126a:	0f 92       	push	r0
    126c:	11 24       	eor	r1, r1
    126e:	0b b6       	in	r0, 0x3b	; 59
    1270:	0f 92       	push	r0
    1272:	2f 93       	push	r18
    1274:	3f 93       	push	r19
    1276:	4f 93       	push	r20
    1278:	5f 93       	push	r21
    127a:	6f 93       	push	r22
    127c:	7f 93       	push	r23
    127e:	8f 93       	push	r24
    1280:	9f 93       	push	r25
    1282:	af 93       	push	r26
    1284:	bf 93       	push	r27
    1286:	ef 93       	push	r30
    1288:	ff 93       	push	r31
	if (tc_tce0_err_callback) {
    128a:	e0 91 1f 20 	lds	r30, 0x201F
    128e:	f0 91 20 20 	lds	r31, 0x2020
    1292:	30 97       	sbiw	r30, 0x00	; 0
    1294:	09 f0       	breq	.+2      	; 0x1298 <__vector_48+0x34>
		tc_tce0_err_callback();
    1296:	19 95       	eicall
	}
}
    1298:	ff 91       	pop	r31
    129a:	ef 91       	pop	r30
    129c:	bf 91       	pop	r27
    129e:	af 91       	pop	r26
    12a0:	9f 91       	pop	r25
    12a2:	8f 91       	pop	r24
    12a4:	7f 91       	pop	r23
    12a6:	6f 91       	pop	r22
    12a8:	5f 91       	pop	r21
    12aa:	4f 91       	pop	r20
    12ac:	3f 91       	pop	r19
    12ae:	2f 91       	pop	r18
    12b0:	0f 90       	pop	r0
    12b2:	0b be       	out	0x3b, r0	; 59
    12b4:	0f 90       	pop	r0
    12b6:	0f be       	out	0x3f, r0	; 63
    12b8:	0f 90       	pop	r0
    12ba:	1f 90       	pop	r1
    12bc:	18 95       	reti

000012be <__vector_49>:
 *
 * This function will handle interrupt on Timer Counter E0 Compare/CaptureA and
 * call the callback function.
 */
ISR(TCE0_CCA_vect)
{
    12be:	1f 92       	push	r1
    12c0:	0f 92       	push	r0
    12c2:	0f b6       	in	r0, 0x3f	; 63
    12c4:	0f 92       	push	r0
    12c6:	11 24       	eor	r1, r1
    12c8:	0b b6       	in	r0, 0x3b	; 59
    12ca:	0f 92       	push	r0
    12cc:	2f 93       	push	r18
    12ce:	3f 93       	push	r19
    12d0:	4f 93       	push	r20
    12d2:	5f 93       	push	r21
    12d4:	6f 93       	push	r22
    12d6:	7f 93       	push	r23
    12d8:	8f 93       	push	r24
    12da:	9f 93       	push	r25
    12dc:	af 93       	push	r26
    12de:	bf 93       	push	r27
    12e0:	ef 93       	push	r30
    12e2:	ff 93       	push	r31
	if (tc_tce0_cca_callback) {
    12e4:	e0 91 1d 20 	lds	r30, 0x201D
    12e8:	f0 91 1e 20 	lds	r31, 0x201E
    12ec:	30 97       	sbiw	r30, 0x00	; 0
    12ee:	09 f0       	breq	.+2      	; 0x12f2 <__vector_49+0x34>
		tc_tce0_cca_callback();
    12f0:	19 95       	eicall
	}
}
    12f2:	ff 91       	pop	r31
    12f4:	ef 91       	pop	r30
    12f6:	bf 91       	pop	r27
    12f8:	af 91       	pop	r26
    12fa:	9f 91       	pop	r25
    12fc:	8f 91       	pop	r24
    12fe:	7f 91       	pop	r23
    1300:	6f 91       	pop	r22
    1302:	5f 91       	pop	r21
    1304:	4f 91       	pop	r20
    1306:	3f 91       	pop	r19
    1308:	2f 91       	pop	r18
    130a:	0f 90       	pop	r0
    130c:	0b be       	out	0x3b, r0	; 59
    130e:	0f 90       	pop	r0
    1310:	0f be       	out	0x3f, r0	; 63
    1312:	0f 90       	pop	r0
    1314:	1f 90       	pop	r1
    1316:	18 95       	reti

00001318 <__vector_50>:
 *
 * This function will handle interrupt on Timer Counter E0 Compare/CaptureB and
 * call the callback function.
 */
ISR(TCE0_CCB_vect)
{
    1318:	1f 92       	push	r1
    131a:	0f 92       	push	r0
    131c:	0f b6       	in	r0, 0x3f	; 63
    131e:	0f 92       	push	r0
    1320:	11 24       	eor	r1, r1
    1322:	0b b6       	in	r0, 0x3b	; 59
    1324:	0f 92       	push	r0
    1326:	2f 93       	push	r18
    1328:	3f 93       	push	r19
    132a:	4f 93       	push	r20
    132c:	5f 93       	push	r21
    132e:	6f 93       	push	r22
    1330:	7f 93       	push	r23
    1332:	8f 93       	push	r24
    1334:	9f 93       	push	r25
    1336:	af 93       	push	r26
    1338:	bf 93       	push	r27
    133a:	ef 93       	push	r30
    133c:	ff 93       	push	r31
	if (tc_tce0_ccb_callback) {
    133e:	e0 91 1b 20 	lds	r30, 0x201B
    1342:	f0 91 1c 20 	lds	r31, 0x201C
    1346:	30 97       	sbiw	r30, 0x00	; 0
    1348:	09 f0       	breq	.+2      	; 0x134c <__vector_50+0x34>
		tc_tce0_ccb_callback();
    134a:	19 95       	eicall
	}
}
    134c:	ff 91       	pop	r31
    134e:	ef 91       	pop	r30
    1350:	bf 91       	pop	r27
    1352:	af 91       	pop	r26
    1354:	9f 91       	pop	r25
    1356:	8f 91       	pop	r24
    1358:	7f 91       	pop	r23
    135a:	6f 91       	pop	r22
    135c:	5f 91       	pop	r21
    135e:	4f 91       	pop	r20
    1360:	3f 91       	pop	r19
    1362:	2f 91       	pop	r18
    1364:	0f 90       	pop	r0
    1366:	0b be       	out	0x3b, r0	; 59
    1368:	0f 90       	pop	r0
    136a:	0f be       	out	0x3f, r0	; 63
    136c:	0f 90       	pop	r0
    136e:	1f 90       	pop	r1
    1370:	18 95       	reti

00001372 <__vector_51>:
 *
 * This function will handle interrupt on Timer Counter E0 Compare/CaptureC and
 * call the callback function.
 */
ISR(TCE0_CCC_vect)
{
    1372:	1f 92       	push	r1
    1374:	0f 92       	push	r0
    1376:	0f b6       	in	r0, 0x3f	; 63
    1378:	0f 92       	push	r0
    137a:	11 24       	eor	r1, r1
    137c:	0b b6       	in	r0, 0x3b	; 59
    137e:	0f 92       	push	r0
    1380:	2f 93       	push	r18
    1382:	3f 93       	push	r19
    1384:	4f 93       	push	r20
    1386:	5f 93       	push	r21
    1388:	6f 93       	push	r22
    138a:	7f 93       	push	r23
    138c:	8f 93       	push	r24
    138e:	9f 93       	push	r25
    1390:	af 93       	push	r26
    1392:	bf 93       	push	r27
    1394:	ef 93       	push	r30
    1396:	ff 93       	push	r31
	if (tc_tce0_ccc_callback) {
    1398:	e0 91 19 20 	lds	r30, 0x2019
    139c:	f0 91 1a 20 	lds	r31, 0x201A
    13a0:	30 97       	sbiw	r30, 0x00	; 0
    13a2:	09 f0       	breq	.+2      	; 0x13a6 <__vector_51+0x34>
		tc_tce0_ccc_callback();
    13a4:	19 95       	eicall
	}
}
    13a6:	ff 91       	pop	r31
    13a8:	ef 91       	pop	r30
    13aa:	bf 91       	pop	r27
    13ac:	af 91       	pop	r26
    13ae:	9f 91       	pop	r25
    13b0:	8f 91       	pop	r24
    13b2:	7f 91       	pop	r23
    13b4:	6f 91       	pop	r22
    13b6:	5f 91       	pop	r21
    13b8:	4f 91       	pop	r20
    13ba:	3f 91       	pop	r19
    13bc:	2f 91       	pop	r18
    13be:	0f 90       	pop	r0
    13c0:	0b be       	out	0x3b, r0	; 59
    13c2:	0f 90       	pop	r0
    13c4:	0f be       	out	0x3f, r0	; 63
    13c6:	0f 90       	pop	r0
    13c8:	1f 90       	pop	r1
    13ca:	18 95       	reti

000013cc <__vector_52>:
 *
 * This function will handle interrupt on Timer Counter E0 Compare/CaptureD and
 * call the callback function.
 */
ISR(TCE0_CCD_vect)
{
    13cc:	1f 92       	push	r1
    13ce:	0f 92       	push	r0
    13d0:	0f b6       	in	r0, 0x3f	; 63
    13d2:	0f 92       	push	r0
    13d4:	11 24       	eor	r1, r1
    13d6:	0b b6       	in	r0, 0x3b	; 59
    13d8:	0f 92       	push	r0
    13da:	2f 93       	push	r18
    13dc:	3f 93       	push	r19
    13de:	4f 93       	push	r20
    13e0:	5f 93       	push	r21
    13e2:	6f 93       	push	r22
    13e4:	7f 93       	push	r23
    13e6:	8f 93       	push	r24
    13e8:	9f 93       	push	r25
    13ea:	af 93       	push	r26
    13ec:	bf 93       	push	r27
    13ee:	ef 93       	push	r30
    13f0:	ff 93       	push	r31
	if (tc_tce0_ccd_callback) {
    13f2:	e0 91 17 20 	lds	r30, 0x2017
    13f6:	f0 91 18 20 	lds	r31, 0x2018
    13fa:	30 97       	sbiw	r30, 0x00	; 0
    13fc:	09 f0       	breq	.+2      	; 0x1400 <__vector_52+0x34>
		tc_tce0_ccd_callback();
    13fe:	19 95       	eicall
	}
}
    1400:	ff 91       	pop	r31
    1402:	ef 91       	pop	r30
    1404:	bf 91       	pop	r27
    1406:	af 91       	pop	r26
    1408:	9f 91       	pop	r25
    140a:	8f 91       	pop	r24
    140c:	7f 91       	pop	r23
    140e:	6f 91       	pop	r22
    1410:	5f 91       	pop	r21
    1412:	4f 91       	pop	r20
    1414:	3f 91       	pop	r19
    1416:	2f 91       	pop	r18
    1418:	0f 90       	pop	r0
    141a:	0b be       	out	0x3b, r0	; 59
    141c:	0f 90       	pop	r0
    141e:	0f be       	out	0x3f, r0	; 63
    1420:	0f 90       	pop	r0
    1422:	1f 90       	pop	r1
    1424:	18 95       	reti

00001426 <__vector_53>:
 *
 * This function will handle interrupt on Timer Counter E1 overflow and
 * call the callback function.
 */
ISR(TCE1_OVF_vect)
{
    1426:	1f 92       	push	r1
    1428:	0f 92       	push	r0
    142a:	0f b6       	in	r0, 0x3f	; 63
    142c:	0f 92       	push	r0
    142e:	11 24       	eor	r1, r1
    1430:	0b b6       	in	r0, 0x3b	; 59
    1432:	0f 92       	push	r0
    1434:	2f 93       	push	r18
    1436:	3f 93       	push	r19
    1438:	4f 93       	push	r20
    143a:	5f 93       	push	r21
    143c:	6f 93       	push	r22
    143e:	7f 93       	push	r23
    1440:	8f 93       	push	r24
    1442:	9f 93       	push	r25
    1444:	af 93       	push	r26
    1446:	bf 93       	push	r27
    1448:	ef 93       	push	r30
    144a:	ff 93       	push	r31
	if (tc_tce1_ovf_callback) {
    144c:	e0 91 15 20 	lds	r30, 0x2015
    1450:	f0 91 16 20 	lds	r31, 0x2016
    1454:	30 97       	sbiw	r30, 0x00	; 0
    1456:	09 f0       	breq	.+2      	; 0x145a <__vector_53+0x34>
		tc_tce1_ovf_callback();
    1458:	19 95       	eicall
	}
}
    145a:	ff 91       	pop	r31
    145c:	ef 91       	pop	r30
    145e:	bf 91       	pop	r27
    1460:	af 91       	pop	r26
    1462:	9f 91       	pop	r25
    1464:	8f 91       	pop	r24
    1466:	7f 91       	pop	r23
    1468:	6f 91       	pop	r22
    146a:	5f 91       	pop	r21
    146c:	4f 91       	pop	r20
    146e:	3f 91       	pop	r19
    1470:	2f 91       	pop	r18
    1472:	0f 90       	pop	r0
    1474:	0b be       	out	0x3b, r0	; 59
    1476:	0f 90       	pop	r0
    1478:	0f be       	out	0x3f, r0	; 63
    147a:	0f 90       	pop	r0
    147c:	1f 90       	pop	r1
    147e:	18 95       	reti

00001480 <__vector_54>:
 *
 * This function will handle interrupt on Timer Counter E1 error and
 * call the callback function.
 */
ISR(TCE1_ERR_vect)
{
    1480:	1f 92       	push	r1
    1482:	0f 92       	push	r0
    1484:	0f b6       	in	r0, 0x3f	; 63
    1486:	0f 92       	push	r0
    1488:	11 24       	eor	r1, r1
    148a:	0b b6       	in	r0, 0x3b	; 59
    148c:	0f 92       	push	r0
    148e:	2f 93       	push	r18
    1490:	3f 93       	push	r19
    1492:	4f 93       	push	r20
    1494:	5f 93       	push	r21
    1496:	6f 93       	push	r22
    1498:	7f 93       	push	r23
    149a:	8f 93       	push	r24
    149c:	9f 93       	push	r25
    149e:	af 93       	push	r26
    14a0:	bf 93       	push	r27
    14a2:	ef 93       	push	r30
    14a4:	ff 93       	push	r31
	if (tc_tce1_err_callback) {
    14a6:	e0 91 13 20 	lds	r30, 0x2013
    14aa:	f0 91 14 20 	lds	r31, 0x2014
    14ae:	30 97       	sbiw	r30, 0x00	; 0
    14b0:	09 f0       	breq	.+2      	; 0x14b4 <__vector_54+0x34>
		tc_tce1_err_callback();
    14b2:	19 95       	eicall
	}
}
    14b4:	ff 91       	pop	r31
    14b6:	ef 91       	pop	r30
    14b8:	bf 91       	pop	r27
    14ba:	af 91       	pop	r26
    14bc:	9f 91       	pop	r25
    14be:	8f 91       	pop	r24
    14c0:	7f 91       	pop	r23
    14c2:	6f 91       	pop	r22
    14c4:	5f 91       	pop	r21
    14c6:	4f 91       	pop	r20
    14c8:	3f 91       	pop	r19
    14ca:	2f 91       	pop	r18
    14cc:	0f 90       	pop	r0
    14ce:	0b be       	out	0x3b, r0	; 59
    14d0:	0f 90       	pop	r0
    14d2:	0f be       	out	0x3f, r0	; 63
    14d4:	0f 90       	pop	r0
    14d6:	1f 90       	pop	r1
    14d8:	18 95       	reti

000014da <__vector_55>:
 *
 * This function will handle interrupt on Timer Counter E1 Compare/CaptureA and
 * call the callback function.
 */
ISR(TCE1_CCA_vect)
{
    14da:	1f 92       	push	r1
    14dc:	0f 92       	push	r0
    14de:	0f b6       	in	r0, 0x3f	; 63
    14e0:	0f 92       	push	r0
    14e2:	11 24       	eor	r1, r1
    14e4:	0b b6       	in	r0, 0x3b	; 59
    14e6:	0f 92       	push	r0
    14e8:	2f 93       	push	r18
    14ea:	3f 93       	push	r19
    14ec:	4f 93       	push	r20
    14ee:	5f 93       	push	r21
    14f0:	6f 93       	push	r22
    14f2:	7f 93       	push	r23
    14f4:	8f 93       	push	r24
    14f6:	9f 93       	push	r25
    14f8:	af 93       	push	r26
    14fa:	bf 93       	push	r27
    14fc:	ef 93       	push	r30
    14fe:	ff 93       	push	r31
	if (tc_tce1_cca_callback) {
    1500:	e0 91 11 20 	lds	r30, 0x2011
    1504:	f0 91 12 20 	lds	r31, 0x2012
    1508:	30 97       	sbiw	r30, 0x00	; 0
    150a:	09 f0       	breq	.+2      	; 0x150e <__vector_55+0x34>
		tc_tce1_cca_callback();
    150c:	19 95       	eicall
	}
}
    150e:	ff 91       	pop	r31
    1510:	ef 91       	pop	r30
    1512:	bf 91       	pop	r27
    1514:	af 91       	pop	r26
    1516:	9f 91       	pop	r25
    1518:	8f 91       	pop	r24
    151a:	7f 91       	pop	r23
    151c:	6f 91       	pop	r22
    151e:	5f 91       	pop	r21
    1520:	4f 91       	pop	r20
    1522:	3f 91       	pop	r19
    1524:	2f 91       	pop	r18
    1526:	0f 90       	pop	r0
    1528:	0b be       	out	0x3b, r0	; 59
    152a:	0f 90       	pop	r0
    152c:	0f be       	out	0x3f, r0	; 63
    152e:	0f 90       	pop	r0
    1530:	1f 90       	pop	r1
    1532:	18 95       	reti

00001534 <__vector_56>:
 *
 * This function will handle interrupt on Timer Counter E1 Compare/CaptureB and
 * call the callback function.
 */
ISR(TCE1_CCB_vect)
{
    1534:	1f 92       	push	r1
    1536:	0f 92       	push	r0
    1538:	0f b6       	in	r0, 0x3f	; 63
    153a:	0f 92       	push	r0
    153c:	11 24       	eor	r1, r1
    153e:	0b b6       	in	r0, 0x3b	; 59
    1540:	0f 92       	push	r0
    1542:	2f 93       	push	r18
    1544:	3f 93       	push	r19
    1546:	4f 93       	push	r20
    1548:	5f 93       	push	r21
    154a:	6f 93       	push	r22
    154c:	7f 93       	push	r23
    154e:	8f 93       	push	r24
    1550:	9f 93       	push	r25
    1552:	af 93       	push	r26
    1554:	bf 93       	push	r27
    1556:	ef 93       	push	r30
    1558:	ff 93       	push	r31
	if (tc_tce1_ccb_callback) {
    155a:	e0 91 0f 20 	lds	r30, 0x200F
    155e:	f0 91 10 20 	lds	r31, 0x2010
    1562:	30 97       	sbiw	r30, 0x00	; 0
    1564:	09 f0       	breq	.+2      	; 0x1568 <__vector_56+0x34>
		tc_tce1_ccb_callback();
    1566:	19 95       	eicall
	}
}
    1568:	ff 91       	pop	r31
    156a:	ef 91       	pop	r30
    156c:	bf 91       	pop	r27
    156e:	af 91       	pop	r26
    1570:	9f 91       	pop	r25
    1572:	8f 91       	pop	r24
    1574:	7f 91       	pop	r23
    1576:	6f 91       	pop	r22
    1578:	5f 91       	pop	r21
    157a:	4f 91       	pop	r20
    157c:	3f 91       	pop	r19
    157e:	2f 91       	pop	r18
    1580:	0f 90       	pop	r0
    1582:	0b be       	out	0x3b, r0	; 59
    1584:	0f 90       	pop	r0
    1586:	0f be       	out	0x3f, r0	; 63
    1588:	0f 90       	pop	r0
    158a:	1f 90       	pop	r1
    158c:	18 95       	reti

0000158e <__vector_108>:
 *
 * This function will handle interrupt on Timer Counter F0 overflow and
 * call the callback function.
 */
ISR(TCF0_OVF_vect)
{
    158e:	1f 92       	push	r1
    1590:	0f 92       	push	r0
    1592:	0f b6       	in	r0, 0x3f	; 63
    1594:	0f 92       	push	r0
    1596:	11 24       	eor	r1, r1
    1598:	0b b6       	in	r0, 0x3b	; 59
    159a:	0f 92       	push	r0
    159c:	2f 93       	push	r18
    159e:	3f 93       	push	r19
    15a0:	4f 93       	push	r20
    15a2:	5f 93       	push	r21
    15a4:	6f 93       	push	r22
    15a6:	7f 93       	push	r23
    15a8:	8f 93       	push	r24
    15aa:	9f 93       	push	r25
    15ac:	af 93       	push	r26
    15ae:	bf 93       	push	r27
    15b0:	ef 93       	push	r30
    15b2:	ff 93       	push	r31
	if (tc_tcf0_ovf_callback) {
    15b4:	e0 91 0d 20 	lds	r30, 0x200D
    15b8:	f0 91 0e 20 	lds	r31, 0x200E
    15bc:	30 97       	sbiw	r30, 0x00	; 0
    15be:	09 f0       	breq	.+2      	; 0x15c2 <__vector_108+0x34>
		tc_tcf0_ovf_callback();
    15c0:	19 95       	eicall
	}
}
    15c2:	ff 91       	pop	r31
    15c4:	ef 91       	pop	r30
    15c6:	bf 91       	pop	r27
    15c8:	af 91       	pop	r26
    15ca:	9f 91       	pop	r25
    15cc:	8f 91       	pop	r24
    15ce:	7f 91       	pop	r23
    15d0:	6f 91       	pop	r22
    15d2:	5f 91       	pop	r21
    15d4:	4f 91       	pop	r20
    15d6:	3f 91       	pop	r19
    15d8:	2f 91       	pop	r18
    15da:	0f 90       	pop	r0
    15dc:	0b be       	out	0x3b, r0	; 59
    15de:	0f 90       	pop	r0
    15e0:	0f be       	out	0x3f, r0	; 63
    15e2:	0f 90       	pop	r0
    15e4:	1f 90       	pop	r1
    15e6:	18 95       	reti

000015e8 <__vector_109>:
 *
 * This function will handle interrupt on Timer Counter F0 error and
 * call the callback function.
 */
ISR(TCF0_ERR_vect)
{
    15e8:	1f 92       	push	r1
    15ea:	0f 92       	push	r0
    15ec:	0f b6       	in	r0, 0x3f	; 63
    15ee:	0f 92       	push	r0
    15f0:	11 24       	eor	r1, r1
    15f2:	0b b6       	in	r0, 0x3b	; 59
    15f4:	0f 92       	push	r0
    15f6:	2f 93       	push	r18
    15f8:	3f 93       	push	r19
    15fa:	4f 93       	push	r20
    15fc:	5f 93       	push	r21
    15fe:	6f 93       	push	r22
    1600:	7f 93       	push	r23
    1602:	8f 93       	push	r24
    1604:	9f 93       	push	r25
    1606:	af 93       	push	r26
    1608:	bf 93       	push	r27
    160a:	ef 93       	push	r30
    160c:	ff 93       	push	r31
	if (tc_tcf0_err_callback) {
    160e:	e0 91 0b 20 	lds	r30, 0x200B
    1612:	f0 91 0c 20 	lds	r31, 0x200C
    1616:	30 97       	sbiw	r30, 0x00	; 0
    1618:	09 f0       	breq	.+2      	; 0x161c <__vector_109+0x34>
		tc_tcf0_err_callback();
    161a:	19 95       	eicall
	}
}
    161c:	ff 91       	pop	r31
    161e:	ef 91       	pop	r30
    1620:	bf 91       	pop	r27
    1622:	af 91       	pop	r26
    1624:	9f 91       	pop	r25
    1626:	8f 91       	pop	r24
    1628:	7f 91       	pop	r23
    162a:	6f 91       	pop	r22
    162c:	5f 91       	pop	r21
    162e:	4f 91       	pop	r20
    1630:	3f 91       	pop	r19
    1632:	2f 91       	pop	r18
    1634:	0f 90       	pop	r0
    1636:	0b be       	out	0x3b, r0	; 59
    1638:	0f 90       	pop	r0
    163a:	0f be       	out	0x3f, r0	; 63
    163c:	0f 90       	pop	r0
    163e:	1f 90       	pop	r1
    1640:	18 95       	reti

00001642 <__vector_110>:
 *
 * This function will handle interrupt on Timer Counter F0 Compare/CaptureA and
 * call the callback function.
 */
ISR(TCF0_CCA_vect)
{
    1642:	1f 92       	push	r1
    1644:	0f 92       	push	r0
    1646:	0f b6       	in	r0, 0x3f	; 63
    1648:	0f 92       	push	r0
    164a:	11 24       	eor	r1, r1
    164c:	0b b6       	in	r0, 0x3b	; 59
    164e:	0f 92       	push	r0
    1650:	2f 93       	push	r18
    1652:	3f 93       	push	r19
    1654:	4f 93       	push	r20
    1656:	5f 93       	push	r21
    1658:	6f 93       	push	r22
    165a:	7f 93       	push	r23
    165c:	8f 93       	push	r24
    165e:	9f 93       	push	r25
    1660:	af 93       	push	r26
    1662:	bf 93       	push	r27
    1664:	ef 93       	push	r30
    1666:	ff 93       	push	r31
	if (tc_tcf0_cca_callback) {
    1668:	e0 91 09 20 	lds	r30, 0x2009
    166c:	f0 91 0a 20 	lds	r31, 0x200A
    1670:	30 97       	sbiw	r30, 0x00	; 0
    1672:	09 f0       	breq	.+2      	; 0x1676 <__vector_110+0x34>
		tc_tcf0_cca_callback();
    1674:	19 95       	eicall
	}
}
    1676:	ff 91       	pop	r31
    1678:	ef 91       	pop	r30
    167a:	bf 91       	pop	r27
    167c:	af 91       	pop	r26
    167e:	9f 91       	pop	r25
    1680:	8f 91       	pop	r24
    1682:	7f 91       	pop	r23
    1684:	6f 91       	pop	r22
    1686:	5f 91       	pop	r21
    1688:	4f 91       	pop	r20
    168a:	3f 91       	pop	r19
    168c:	2f 91       	pop	r18
    168e:	0f 90       	pop	r0
    1690:	0b be       	out	0x3b, r0	; 59
    1692:	0f 90       	pop	r0
    1694:	0f be       	out	0x3f, r0	; 63
    1696:	0f 90       	pop	r0
    1698:	1f 90       	pop	r1
    169a:	18 95       	reti

0000169c <__vector_111>:
 *
 * This function will handle interrupt on Timer Counter F0 Compare/CaptureB and
 * call the callback function.
 */
ISR(TCF0_CCB_vect)
{
    169c:	1f 92       	push	r1
    169e:	0f 92       	push	r0
    16a0:	0f b6       	in	r0, 0x3f	; 63
    16a2:	0f 92       	push	r0
    16a4:	11 24       	eor	r1, r1
    16a6:	0b b6       	in	r0, 0x3b	; 59
    16a8:	0f 92       	push	r0
    16aa:	2f 93       	push	r18
    16ac:	3f 93       	push	r19
    16ae:	4f 93       	push	r20
    16b0:	5f 93       	push	r21
    16b2:	6f 93       	push	r22
    16b4:	7f 93       	push	r23
    16b6:	8f 93       	push	r24
    16b8:	9f 93       	push	r25
    16ba:	af 93       	push	r26
    16bc:	bf 93       	push	r27
    16be:	ef 93       	push	r30
    16c0:	ff 93       	push	r31
	if (tc_tcf0_ccb_callback) {
    16c2:	e0 91 07 20 	lds	r30, 0x2007
    16c6:	f0 91 08 20 	lds	r31, 0x2008
    16ca:	30 97       	sbiw	r30, 0x00	; 0
    16cc:	09 f0       	breq	.+2      	; 0x16d0 <__vector_111+0x34>
		tc_tcf0_ccb_callback();
    16ce:	19 95       	eicall
	}
}
    16d0:	ff 91       	pop	r31
    16d2:	ef 91       	pop	r30
    16d4:	bf 91       	pop	r27
    16d6:	af 91       	pop	r26
    16d8:	9f 91       	pop	r25
    16da:	8f 91       	pop	r24
    16dc:	7f 91       	pop	r23
    16de:	6f 91       	pop	r22
    16e0:	5f 91       	pop	r21
    16e2:	4f 91       	pop	r20
    16e4:	3f 91       	pop	r19
    16e6:	2f 91       	pop	r18
    16e8:	0f 90       	pop	r0
    16ea:	0b be       	out	0x3b, r0	; 59
    16ec:	0f 90       	pop	r0
    16ee:	0f be       	out	0x3f, r0	; 63
    16f0:	0f 90       	pop	r0
    16f2:	1f 90       	pop	r1
    16f4:	18 95       	reti

000016f6 <__vector_112>:
 *
 * This function will handle interrupt on Timer Counter F0 Compare/CaptureC and
 * call the callback function.
 */
ISR(TCF0_CCC_vect)
{
    16f6:	1f 92       	push	r1
    16f8:	0f 92       	push	r0
    16fa:	0f b6       	in	r0, 0x3f	; 63
    16fc:	0f 92       	push	r0
    16fe:	11 24       	eor	r1, r1
    1700:	0b b6       	in	r0, 0x3b	; 59
    1702:	0f 92       	push	r0
    1704:	2f 93       	push	r18
    1706:	3f 93       	push	r19
    1708:	4f 93       	push	r20
    170a:	5f 93       	push	r21
    170c:	6f 93       	push	r22
    170e:	7f 93       	push	r23
    1710:	8f 93       	push	r24
    1712:	9f 93       	push	r25
    1714:	af 93       	push	r26
    1716:	bf 93       	push	r27
    1718:	ef 93       	push	r30
    171a:	ff 93       	push	r31
	if (tc_tcf0_ccc_callback) {
    171c:	e0 91 05 20 	lds	r30, 0x2005
    1720:	f0 91 06 20 	lds	r31, 0x2006
    1724:	30 97       	sbiw	r30, 0x00	; 0
    1726:	09 f0       	breq	.+2      	; 0x172a <__vector_112+0x34>
		tc_tcf0_ccc_callback();
    1728:	19 95       	eicall
	}
}
    172a:	ff 91       	pop	r31
    172c:	ef 91       	pop	r30
    172e:	bf 91       	pop	r27
    1730:	af 91       	pop	r26
    1732:	9f 91       	pop	r25
    1734:	8f 91       	pop	r24
    1736:	7f 91       	pop	r23
    1738:	6f 91       	pop	r22
    173a:	5f 91       	pop	r21
    173c:	4f 91       	pop	r20
    173e:	3f 91       	pop	r19
    1740:	2f 91       	pop	r18
    1742:	0f 90       	pop	r0
    1744:	0b be       	out	0x3b, r0	; 59
    1746:	0f 90       	pop	r0
    1748:	0f be       	out	0x3f, r0	; 63
    174a:	0f 90       	pop	r0
    174c:	1f 90       	pop	r1
    174e:	18 95       	reti

00001750 <__vector_113>:
 *
 * This function will handle interrupt on Timer Counter F0 Compare/CaptureD and
 * call the callback function.
 */
ISR(TCF0_CCD_vect)
{
    1750:	1f 92       	push	r1
    1752:	0f 92       	push	r0
    1754:	0f b6       	in	r0, 0x3f	; 63
    1756:	0f 92       	push	r0
    1758:	11 24       	eor	r1, r1
    175a:	0b b6       	in	r0, 0x3b	; 59
    175c:	0f 92       	push	r0
    175e:	2f 93       	push	r18
    1760:	3f 93       	push	r19
    1762:	4f 93       	push	r20
    1764:	5f 93       	push	r21
    1766:	6f 93       	push	r22
    1768:	7f 93       	push	r23
    176a:	8f 93       	push	r24
    176c:	9f 93       	push	r25
    176e:	af 93       	push	r26
    1770:	bf 93       	push	r27
    1772:	ef 93       	push	r30
    1774:	ff 93       	push	r31
	if (tc_tcf0_ccd_callback) {
    1776:	e0 91 03 20 	lds	r30, 0x2003
    177a:	f0 91 04 20 	lds	r31, 0x2004
    177e:	30 97       	sbiw	r30, 0x00	; 0
    1780:	09 f0       	breq	.+2      	; 0x1784 <__vector_113+0x34>
		tc_tcf0_ccd_callback();
    1782:	19 95       	eicall
	}
}
    1784:	ff 91       	pop	r31
    1786:	ef 91       	pop	r30
    1788:	bf 91       	pop	r27
    178a:	af 91       	pop	r26
    178c:	9f 91       	pop	r25
    178e:	8f 91       	pop	r24
    1790:	7f 91       	pop	r23
    1792:	6f 91       	pop	r22
    1794:	5f 91       	pop	r21
    1796:	4f 91       	pop	r20
    1798:	3f 91       	pop	r19
    179a:	2f 91       	pop	r18
    179c:	0f 90       	pop	r0
    179e:	0b be       	out	0x3b, r0	; 59
    17a0:	0f 90       	pop	r0
    17a2:	0f be       	out	0x3f, r0	; 63
    17a4:	0f 90       	pop	r0
    17a6:	1f 90       	pop	r1
    17a8:	18 95       	reti

000017aa <tc_enable>:
 *
 * \note
 * unmask TC clock (sysclk), but does not configure the TC clock source.
 */
void tc_enable(volatile void *tc)
{
    17aa:	cf 93       	push	r28

typedef uint8_t irqflags_t;

static inline irqflags_t cpu_irq_save(void)
{
	irqflags_t flags = SREG;
    17ac:	cf b7       	in	r28, 0x3f	; 63
	cpu_irq_disable();
    17ae:	f8 94       	cli
	irqflags_t iflags = cpu_irq_save();

#ifdef TCC0
	if ((uintptr_t) tc == (uintptr_t) & TCC0) {
    17b0:	28 2f       	mov	r18, r24
    17b2:	39 2f       	mov	r19, r25
    17b4:	21 15       	cp	r18, r1
    17b6:	88 e0       	ldi	r24, 0x08	; 8
    17b8:	38 07       	cpc	r19, r24
    17ba:	39 f4       	brne	.+14     	; 0x17ca <tc_enable+0x20>
		sysclk_enable_module(SYSCLK_PORT_C, SYSCLK_TC0);
    17bc:	61 e0       	ldi	r22, 0x01	; 1
    17be:	83 e0       	ldi	r24, 0x03	; 3
    17c0:	1e d8       	rcall	.-4036   	; 0x7fe <sysclk_enable_module>
		sysclk_enable_module(SYSCLK_PORT_C, SYSCLK_HIRES);
    17c2:	64 e0       	ldi	r22, 0x04	; 4
    17c4:	83 e0       	ldi	r24, 0x03	; 3
    17c6:	1b d8       	rcall	.-4042   	; 0x7fe <sysclk_enable_module>
    17c8:	4b c0       	rjmp	.+150    	; 0x1860 <tc_enable+0xb6>
	} else
#endif
#ifdef TCC1
	if ((uintptr_t) tc == (uintptr_t) & TCC1) {
    17ca:	20 34       	cpi	r18, 0x40	; 64
    17cc:	88 e0       	ldi	r24, 0x08	; 8
    17ce:	38 07       	cpc	r19, r24
    17d0:	39 f4       	brne	.+14     	; 0x17e0 <tc_enable+0x36>
		sysclk_enable_module(SYSCLK_PORT_C, SYSCLK_TC1);
    17d2:	62 e0       	ldi	r22, 0x02	; 2
    17d4:	83 e0       	ldi	r24, 0x03	; 3
    17d6:	13 d8       	rcall	.-4058   	; 0x7fe <sysclk_enable_module>
		sysclk_enable_module(SYSCLK_PORT_C, SYSCLK_HIRES);
    17d8:	64 e0       	ldi	r22, 0x04	; 4
    17da:	83 e0       	ldi	r24, 0x03	; 3
    17dc:	10 d8       	rcall	.-4064   	; 0x7fe <sysclk_enable_module>
    17de:	40 c0       	rjmp	.+128    	; 0x1860 <tc_enable+0xb6>
	} else
#endif
#ifdef TCD0
	if ((uintptr_t) tc == (uintptr_t) & TCD0) {
    17e0:	21 15       	cp	r18, r1
    17e2:	89 e0       	ldi	r24, 0x09	; 9
    17e4:	38 07       	cpc	r19, r24
    17e6:	39 f4       	brne	.+14     	; 0x17f6 <tc_enable+0x4c>
		sysclk_enable_module(SYSCLK_PORT_D, SYSCLK_TC0);
    17e8:	61 e0       	ldi	r22, 0x01	; 1
    17ea:	84 e0       	ldi	r24, 0x04	; 4
    17ec:	08 d8       	rcall	.-4080   	; 0x7fe <sysclk_enable_module>
		sysclk_enable_module(SYSCLK_PORT_D, SYSCLK_HIRES);
    17ee:	64 e0       	ldi	r22, 0x04	; 4
    17f0:	84 e0       	ldi	r24, 0x04	; 4
    17f2:	05 d8       	rcall	.-4086   	; 0x7fe <sysclk_enable_module>
    17f4:	35 c0       	rjmp	.+106    	; 0x1860 <tc_enable+0xb6>
	} else
#endif
#ifdef TCD1
	if ((uintptr_t) tc == (uintptr_t) & TCD1) {
    17f6:	20 34       	cpi	r18, 0x40	; 64
    17f8:	89 e0       	ldi	r24, 0x09	; 9
    17fa:	38 07       	cpc	r19, r24
    17fc:	49 f4       	brne	.+18     	; 0x1810 <tc_enable+0x66>
		sysclk_enable_module(SYSCLK_PORT_D, SYSCLK_TC1);
    17fe:	62 e0       	ldi	r22, 0x02	; 2
    1800:	84 e0       	ldi	r24, 0x04	; 4
    1802:	0e 94 ff 03 	call	0x7fe	; 0x7fe <sysclk_enable_module>
		sysclk_enable_module(SYSCLK_PORT_D, SYSCLK_HIRES);
    1806:	64 e0       	ldi	r22, 0x04	; 4
    1808:	84 e0       	ldi	r24, 0x04	; 4
    180a:	0e 94 ff 03 	call	0x7fe	; 0x7fe <sysclk_enable_module>
    180e:	28 c0       	rjmp	.+80     	; 0x1860 <tc_enable+0xb6>
	} else
#endif
#ifdef TCE0
	if ((uintptr_t) tc == (uintptr_t) & TCE0) {
    1810:	21 15       	cp	r18, r1
    1812:	8a e0       	ldi	r24, 0x0A	; 10
    1814:	38 07       	cpc	r19, r24
    1816:	49 f4       	brne	.+18     	; 0x182a <tc_enable+0x80>
		sysclk_enable_module(SYSCLK_PORT_E, SYSCLK_TC0);
    1818:	61 e0       	ldi	r22, 0x01	; 1
    181a:	85 e0       	ldi	r24, 0x05	; 5
    181c:	0e 94 ff 03 	call	0x7fe	; 0x7fe <sysclk_enable_module>
		sysclk_enable_module(SYSCLK_PORT_E, SYSCLK_HIRES);
    1820:	64 e0       	ldi	r22, 0x04	; 4
    1822:	85 e0       	ldi	r24, 0x05	; 5
    1824:	0e 94 ff 03 	call	0x7fe	; 0x7fe <sysclk_enable_module>
    1828:	1b c0       	rjmp	.+54     	; 0x1860 <tc_enable+0xb6>
	} else
#endif
#ifdef TCE1
	if ((uintptr_t) tc == (uintptr_t) & TCE1) {
    182a:	20 34       	cpi	r18, 0x40	; 64
    182c:	8a e0       	ldi	r24, 0x0A	; 10
    182e:	38 07       	cpc	r19, r24
    1830:	49 f4       	brne	.+18     	; 0x1844 <tc_enable+0x9a>
		sysclk_enable_module(SYSCLK_PORT_E, SYSCLK_TC1);
    1832:	62 e0       	ldi	r22, 0x02	; 2
    1834:	85 e0       	ldi	r24, 0x05	; 5
    1836:	0e 94 ff 03 	call	0x7fe	; 0x7fe <sysclk_enable_module>
		sysclk_enable_module(SYSCLK_PORT_E, SYSCLK_HIRES);
    183a:	64 e0       	ldi	r22, 0x04	; 4
    183c:	85 e0       	ldi	r24, 0x05	; 5
    183e:	0e 94 ff 03 	call	0x7fe	; 0x7fe <sysclk_enable_module>
    1842:	0e c0       	rjmp	.+28     	; 0x1860 <tc_enable+0xb6>
	} else
#endif
#ifdef TCF0
	if ((uintptr_t) tc == (uintptr_t) & TCF0) {
    1844:	21 15       	cp	r18, r1
    1846:	3b 40       	sbci	r19, 0x0B	; 11
    1848:	49 f4       	brne	.+18     	; 0x185c <tc_enable+0xb2>
		sysclk_enable_module(SYSCLK_PORT_F, SYSCLK_TC0);
    184a:	61 e0       	ldi	r22, 0x01	; 1
    184c:	86 e0       	ldi	r24, 0x06	; 6
    184e:	0e 94 ff 03 	call	0x7fe	; 0x7fe <sysclk_enable_module>
		sysclk_enable_module(SYSCLK_PORT_F, SYSCLK_HIRES);
    1852:	64 e0       	ldi	r22, 0x04	; 4
    1854:	86 e0       	ldi	r24, 0x06	; 6
    1856:	0e 94 ff 03 	call	0x7fe	; 0x7fe <sysclk_enable_module>
    185a:	02 c0       	rjmp	.+4      	; 0x1860 <tc_enable+0xb6>
}

static inline void cpu_irq_restore(irqflags_t flags)
{
	barrier();
	SREG = flags;
    185c:	cf bf       	out	0x3f, r28	; 63
    185e:	0e c0       	rjmp	.+28     	; 0x187c <tc_enable+0xd2>
static inline void sleepmgr_lock_mode(enum sleepmgr_mode mode)
{
#ifdef CONFIG_SLEEPMGR_ENABLE
	irqflags_t flags;

	if(sleepmgr_locks[mode] >= 0xff) {
    1860:	80 91 50 20 	lds	r24, 0x2050
    1864:	8f 3f       	cpi	r24, 0xFF	; 255
    1866:	09 f4       	brne	.+2      	; 0x186a <tc_enable+0xc0>
    1868:	ff cf       	rjmp	.-2      	; 0x1868 <tc_enable+0xbe>

typedef uint8_t irqflags_t;

static inline irqflags_t cpu_irq_save(void)
{
	irqflags_t flags = SREG;
    186a:	8f b7       	in	r24, 0x3f	; 63
	cpu_irq_disable();
    186c:	f8 94       	cli
	}

	// Enter a critical section
	flags = cpu_irq_save();

	++sleepmgr_locks[mode];
    186e:	e0 e5       	ldi	r30, 0x50	; 80
    1870:	f0 e2       	ldi	r31, 0x20	; 32
    1872:	90 81       	ld	r25, Z
    1874:	9f 5f       	subi	r25, 0xFF	; 255
    1876:	90 83       	st	Z, r25
}

static inline void cpu_irq_restore(irqflags_t flags)
{
	barrier();
	SREG = flags;
    1878:	8f bf       	out	0x3f, r24	; 63
    187a:	cf bf       	out	0x3f, r28	; 63
		cpu_irq_restore(iflags);
		return;
	}
	sleepmgr_lock_mode(SLEEPMGR_IDLE);
	cpu_irq_restore(iflags);
}
    187c:	cf 91       	pop	r28
    187e:	08 95       	ret

00001880 <dac_init>:
		}
	}
}

void dac_init()
{
    1880:	ff 92       	push	r15
    1882:	0f 93       	push	r16
    1884:	1f 93       	push	r17
    1886:	cf 93       	push	r28
    1888:	df 93       	push	r29
    188a:	00 d0       	rcall	.+0      	; 0x188c <dac_init+0xc>
    188c:	1f 92       	push	r1
    188e:	cd b7       	in	r28, 0x3d	; 61
    1890:	de b7       	in	r29, 0x3e	; 62
	struct dac_config conf;
	// Initialize the dac configuration.
	dac_read_configuration(&SPEAKER_DAC, &conf);
    1892:	be 01       	movw	r22, r28
    1894:	6f 5f       	subi	r22, 0xFF	; 255
    1896:	7f 4f       	sbci	r23, 0xFF	; 255
    1898:	80 e2       	ldi	r24, 0x20	; 32
    189a:	93 e0       	ldi	r25, 0x03	; 3
    189c:	46 d8       	rcall	.-3956   	; 0x92a <dac_read_configuration>
 */
__always_inline static void dac_set_conversion_parameters(
		struct dac_config *conf, enum dac_reference ref,
		enum dac_adjust adj)
{
	conf->ctrlc = (uint8_t)ref | (uint8_t)adj;
    189e:	ff 24       	eor	r15, r15
    18a0:	f3 94       	inc	r15
    18a2:	fb 82       	std	Y+3, r15	; 0x03
	Assert(ilog2(ch_mask) <= 2);
	Assert((ch_mask & int_out_ch_mask) == int_out_ch_mask);
	Assert(int_out_ch_mask != (DAC_CH0 | DAC_CH1));

	// Enable internal and external output channels.
	conf->ctrla = ((ch_mask ^ int_out_ch_mask) << DAC_CH0EN_bp) |
    18a4:	84 e0       	ldi	r24, 0x04	; 4
    18a6:	89 83       	std	Y+1, r24	; 0x01
__always_inline static void dac_set_conversion_trigger(struct dac_config *conf,
		uint8_t ch_mask, uint8_t ev_ch)
{
	Assert(ev_ch <= 7);

	conf->ctrlb &= ~(DAC_CH1TRIG_bm | DAC_CH0TRIG_bm);
    18a8:	8a 81       	ldd	r24, Y+2	; 0x02
    18aa:	8c 79       	andi	r24, 0x9C	; 156
	conf->ctrlb |= (ch_mask << DAC_CH0TRIG_bp);
    18ac:	81 60       	ori	r24, 0x01	; 1
    18ae:	8a 83       	std	Y+2, r24	; 0x02
	conf->evctrl = ev_ch << DAC_EVSEL_gp;
    18b0:	83 e0       	ldi	r24, 0x03	; 3
    18b2:	8c 83       	std	Y+4, r24	; 0x04
	//dac_set_conversion_trigger(&conf, 0, 0);
	dac_set_conversion_trigger(&conf, SPEAKER_DAC_CHANNEL, 3);
#if XMEGA_DAC_VERSION_1
	dac_set_conversion_interval(&conf, 1);
#endif
	dac_write_configuration(&SPEAKER_DAC, &conf);
    18b4:	be 01       	movw	r22, r28
    18b6:	6f 5f       	subi	r22, 0xFF	; 255
    18b8:	7f 4f       	sbci	r23, 0xFF	; 255
    18ba:	80 e2       	ldi	r24, 0x20	; 32
    18bc:	93 e0       	ldi	r25, 0x03	; 3
    18be:	0e 94 50 04 	call	0x8a0	; 0x8a0 <dac_write_configuration>
	dac_enable(&SPEAKER_DAC);
    18c2:	80 e2       	ldi	r24, 0x20	; 32
    18c4:	93 e0       	ldi	r25, 0x03	; 3
    18c6:	0e 94 33 04 	call	0x866	; 0x866 <dac_enable>

	// Start the timer/counter.
	TCC4.CTRLA = TC45_CLKSEL_DIV1_gc;
#else
	// Configure timer/counter to generate events at sample rate.
	sysclk_enable_module(SYSCLK_PORT_C, SYSCLK_TC0);
    18ca:	61 e0       	ldi	r22, 0x01	; 1
    18cc:	83 e0       	ldi	r24, 0x03	; 3
    18ce:	0e 94 ff 03 	call	0x7fe	; 0x7fe <sysclk_enable_module>
	TCC0.PER = (sysclk_get_per_hz() / SAMPLING_RATE) - 1;
    18d2:	00 e0       	ldi	r16, 0x00	; 0
    18d4:	18 e0       	ldi	r17, 0x08	; 8
    18d6:	83 e1       	ldi	r24, 0x13	; 19
    18d8:	90 e0       	ldi	r25, 0x00	; 0
    18da:	f8 01       	movw	r30, r16
    18dc:	86 a3       	std	Z+38, r24	; 0x26
    18de:	97 a3       	std	Z+39, r25	; 0x27

	// Configure event channel 0 to generate events upon T/C overflow.
	sysclk_enable_module(SYSCLK_PORT_GEN, SYSCLK_EVSYS);
    18e0:	62 e0       	ldi	r22, 0x02	; 2
    18e2:	80 e0       	ldi	r24, 0x00	; 0
    18e4:	0e 94 ff 03 	call	0x7fe	; 0x7fe <sysclk_enable_module>
	EVSYS.CH0MUX = EVSYS_CHMUX_TCC0_OVF_gc;
    18e8:	80 ec       	ldi	r24, 0xC0	; 192
    18ea:	80 93 80 01 	sts	0x0180, r24

	// Start the timer/counter.
	TCC0.CTRLA = TC_CLKSEL_DIV1_gc;
    18ee:	f8 01       	movw	r30, r16
    18f0:	f0 82       	st	Z, r15
#endif

#endif
	
}
    18f2:	24 96       	adiw	r28, 0x04	; 4
    18f4:	cd bf       	out	0x3d, r28	; 61
    18f6:	de bf       	out	0x3e, r29	; 62
    18f8:	df 91       	pop	r29
    18fa:	cf 91       	pop	r28
    18fc:	1f 91       	pop	r17
    18fe:	0f 91       	pop	r16
    1900:	ff 90       	pop	r15
    1902:	08 95       	ret

00001904 <main>:
	tc_write_period(&TCC0, (sysclk_get_per_hz() / SAMPLING_RATE) - 1);
	tc_write_clock_source(&TCC0, TC_CLKSEL_DIV1_gc);
}

int main (void)
{
    1904:	cf 93       	push	r28
    1906:	df 93       	push	r29
    1908:	cd b7       	in	r28, 0x3d	; 61
    190a:	de b7       	in	r29, 0x3e	; 62
    190c:	2b 97       	sbiw	r28, 0x0b	; 11
    190e:	cd bf       	out	0x3d, r28	; 61
    1910:	de bf       	out	0x3e, r29	; 62
	board_init();
    1912:	5a d8       	rcall	.-3916   	; 0x9c8 <board_init>
	sysclk_init();
    1914:	0e 94 ef 03 	call	0x7de	; 0x7de <sysclk_init>

static void adc_init(void)
{
	struct adc_config adc_conf;
	struct adc_channel_config adcch_conf;
	adc_read_configuration(&MY_ADC, &adc_conf);
    1918:	be 01       	movw	r22, r28
    191a:	6f 5f       	subi	r22, 0xFF	; 255
    191c:	7f 4f       	sbci	r23, 0xFF	; 255
    191e:	80 e0       	ldi	r24, 0x00	; 0
    1920:	92 e0       	ldi	r25, 0x02	; 2
    1922:	0e 94 59 03 	call	0x6b2	; 0x6b2 <adc_read_configuration>
	adcch_read_configuration(&MY_ADC, MY_ADC_CH, &adcch_conf);
    1926:	ae 01       	movw	r20, r28
    1928:	48 5f       	subi	r20, 0xF8	; 248
    192a:	5f 4f       	sbci	r21, 0xFF	; 255
    192c:	61 e0       	ldi	r22, 0x01	; 1
    192e:	80 e0       	ldi	r24, 0x00	; 0
    1930:	92 e0       	ldi	r25, 0x02	; 2
    1932:	0e 94 b5 03 	call	0x76a	; 0x76a <adcch_read_configuration>
static inline void adc_set_conversion_parameters(struct adc_config *conf,
		enum adc_sign sign, enum adc_resolution res,
		enum adc_reference ref)
{
	/* Preserve all but conversion and resolution config. */
	conf->ctrlb &= ~(ADC_CONMODE_bm | ADC_RESOLUTION_gm);
    1936:	8a 81       	ldd	r24, Y+2	; 0x02
	conf->ctrlb |= (uint8_t)res | (uint8_t)sign;

	conf->refctrl &= ~ADC_REFSEL_gm;
    1938:	9b 81       	ldd	r25, Y+3	; 0x03
    193a:	9f 78       	andi	r25, 0x8F	; 143
	conf->refctrl |= ref;
    193c:	90 61       	ori	r25, 0x10	; 16
    193e:	9b 83       	std	Y+3, r25	; 0x03
	Assert(base_ev_ch <= 3);
#endif

	switch (trig) {
	case ADC_TRIG_MANUAL:
		conf->ctrlb &= ~ADC_FREERUN_bm;
    1940:	81 7e       	andi	r24, 0xE1	; 225
    1942:	80 61       	ori	r24, 0x10	; 16
    1944:	8a 83       	std	Y+2, r24	; 0x02
		conf->evctrl = ADC_EVACT_NONE_gc;
    1946:	1c 82       	std	Y+4, r1	; 0x04
		psc = ADC_PRESCALER_DIV256_gc;
	} else {
		psc = ADC_PRESCALER_DIV512_gc;
	}

	conf->prescaler = psc;
    1948:	83 e0       	ldi	r24, 0x03	; 3
    194a:	8d 83       	std	Y+5, r24	; 0x05
				ADC_CH_MUXPOS_gp;
	} else if (neg == ADCCH_NEG_NONE) {
		/* Configure for single-ended measurement. */
		Assert(gain == 1);

		ch_conf->ctrl = ADC_CH_INPUTMODE_SINGLEENDED_gc;
    194c:	81 e0       	ldi	r24, 0x01	; 1
    194e:	88 87       	std	Y+8, r24	; 0x08
		ch_conf->muxctrl = pos << ADC_CH_MUXPOS_gp;
    1950:	80 e2       	ldi	r24, 0x20	; 32
    1952:	89 87       	std	Y+9, r24	; 0x09
	adc_set_conversion_parameters(&adc_conf, ADC_SIGN_ON, ADC_RES_12,
	ADC_REF_VCC);
	adc_set_conversion_trigger(&adc_conf, ADC_TRIG_MANUAL, 1, 0);
	adc_set_clock_rate(&adc_conf, SAMPLING_RATE);
	adcch_set_input(&adcch_conf, ADCCH_POS_PIN4, ADCCH_NEG_NONE, 1);
	adc_write_configuration(&MY_ADC, &adc_conf);
    1954:	be 01       	movw	r22, r28
    1956:	6f 5f       	subi	r22, 0xFF	; 255
    1958:	7f 4f       	sbci	r23, 0xFF	; 255
    195a:	80 e0       	ldi	r24, 0x00	; 0
    195c:	92 e0       	ldi	r25, 0x02	; 2
    195e:	0e 94 08 03 	call	0x610	; 0x610 <adc_write_configuration>
	adcch_write_configuration(&MY_ADC, MY_ADC_CH, &adcch_conf);
    1962:	ae 01       	movw	r20, r28
    1964:	48 5f       	subi	r20, 0xF8	; 248
    1966:	5f 4f       	sbci	r21, 0xFF	; 255
    1968:	61 e0       	ldi	r22, 0x01	; 1
    196a:	80 e0       	ldi	r24, 0x00	; 0
    196c:	92 e0       	ldi	r25, 0x02	; 2
    196e:	0e 94 7c 03 	call	0x6f8	; 0x6f8 <adcch_write_configuration>
}

static void evsys_init(void)
{
	sysclk_enable_module(SYSCLK_PORT_GEN, SYSCLK_EVSYS);
    1972:	62 e0       	ldi	r22, 0x02	; 2
    1974:	80 e0       	ldi	r24, 0x00	; 0
    1976:	0e 94 ff 03 	call	0x7fe	; 0x7fe <sysclk_enable_module>
	EVSYS.CH3MUX = EVSYS_CHMUX_TCC0_OVF_gc;
    197a:	80 ec       	ldi	r24, 0xC0	; 192
    197c:	e0 e8       	ldi	r30, 0x80	; 128
    197e:	f1 e0       	ldi	r31, 0x01	; 1
    1980:	83 83       	std	Z+3, r24	; 0x03
}

static void tc_init(void)
{
	tc_enable(&TCC0);
    1982:	80 e0       	ldi	r24, 0x00	; 0
    1984:	98 e0       	ldi	r25, 0x08	; 8
    1986:	11 df       	rcall	.-478    	; 0x17aa <tc_enable>
 * \param tc Pointer to TC module.
 * \param wgm : waveform generator
 */
static inline void tc_set_wgm(volatile void *tc, enum tc_wg_mode_t wgm)
{
	((TC0_t *)tc)->CTRLB = (((TC0_t *)tc)->CTRLB & ~TC0_WGMODE_gm) | wgm;
    1988:	e0 e0       	ldi	r30, 0x00	; 0
    198a:	f8 e0       	ldi	r31, 0x08	; 8
    198c:	81 81       	ldd	r24, Z+1	; 0x01
    198e:	88 7f       	andi	r24, 0xF8	; 248
    1990:	81 83       	std	Z+1, r24	; 0x01
 * \param tc Pointer to TC module.
 * \param per_value Period value : PER
 */
static inline void tc_write_period(volatile void *tc, uint16_t per_value)
{
	((TC0_t *)tc)->PER = per_value;
    1992:	83 e1       	ldi	r24, 0x13	; 19
    1994:	90 e0       	ldi	r25, 0x00	; 0
    1996:	86 a3       	std	Z+38, r24	; 0x26
    1998:	97 a3       	std	Z+39, r25	; 0x27
 */
static inline void tc_write_clock_source(volatile void *tc,
		TC_CLKSEL_t TC_CLKSEL_enum)
{
	((TC0_t *)tc)->CTRLA =
			(((TC0_t *)tc)->CTRLA & ~TC0_CLKSEL_gm) |
    199a:	80 81       	ld	r24, Z
 * \note Configuring the clock also starts the timer
 */
static inline void tc_write_clock_source(volatile void *tc,
		TC_CLKSEL_t TC_CLKSEL_enum)
{
	((TC0_t *)tc)->CTRLA =
    199c:	80 7f       	andi	r24, 0xF0	; 240
    199e:	81 60       	ori	r24, 0x01	; 1
    19a0:	80 83       	st	Z, r24
	board_init();
	sysclk_init();
	adc_init();
	evsys_init();
	tc_init();
	dac_init();
    19a2:	6e df       	rcall	.-292    	; 0x1880 <dac_init>

typedef uint8_t irqflags_t;

static inline irqflags_t cpu_irq_save(void)
{
	irqflags_t flags = SREG;
    19a4:	8f b7       	in	r24, 0x3f	; 63
	cpu_irq_disable();
    19a6:	f8 94       	cli
	volatile uint8_t *pin_ctrl
		= (&base->PIN0CTRL + arch_ioport_pin_to_index(pin));

	uint8_t flags = cpu_irq_save();

	*pin_ctrl &= ~PORT_ISC_gm;
    19a8:	e5 e1       	ldi	r30, 0x15	; 21
    19aa:	f6 e0       	ldi	r31, 0x06	; 6
    19ac:	90 81       	ld	r25, Z
    19ae:	98 7f       	andi	r25, 0xF8	; 248
    19b0:	90 83       	st	Z, r25
}

static inline void cpu_irq_restore(irqflags_t flags)
{
	barrier();
	SREG = flags;
    19b2:	8f bf       	out	0x3f, r24	; 63
		enum ioport_direction dir)
{
	PORT_t *base = arch_ioport_pin_to_base(pin);

	if (dir == IOPORT_DIR_OUTPUT) {
		base->DIRSET = arch_ioport_pin_to_mask(pin);
    19b4:	80 e2       	ldi	r24, 0x20	; 32
    19b6:	e0 e0       	ldi	r30, 0x00	; 0
    19b8:	f6 e0       	ldi	r31, 0x06	; 6
    19ba:	81 83       	std	Z+1, r24	; 0x01
	ioport_init();
	ioport_enable_pin(TRIGGER_PIN);
	ioport_set_pin_dir(TRIGGER_PIN, IOPORT_DIR_OUTPUT);

	/* Insert application code here, after the board has been initialized. */
	adc_enable(&MY_ADC);
    19bc:	80 e0       	ldi	r24, 0x00	; 0
    19be:	92 e0       	ldi	r25, 0x02	; 2
    19c0:	0e 94 5c 01 	call	0x2b8	; 0x2b8 <adc_enable>
	dac_enable(&SPEAKER_DAC);
    19c4:	80 e2       	ldi	r24, 0x20	; 32
    19c6:	93 e0       	ldi	r25, 0x03	; 3
    19c8:	0e 94 33 04 	call	0x866	; 0x866 <dac_enable>
		bool level)
{
	PORT_t *base = arch_ioport_pin_to_base(pin);

	if (level) {
		base->OUTSET = arch_ioport_pin_to_mask(pin);
    19cc:	68 94       	set
    19ce:	dd 24       	eor	r13, r13
    19d0:	d5 f8       	bld	r13, 5
    19d2:	45 ed       	ldi	r20, 0xD5	; 213
    19d4:	5e e5       	ldi	r21, 0x5E	; 94
    19d6:	65 e5       	ldi	r22, 0x55	; 85
    19d8:	70 e2       	ldi	r23, 0x20	; 32
 */
static inline void adc_start_conversion(ADC_t *adc, uint8_t ch_mask)
{
	irqflags_t flags = cpu_irq_save();
#if !XMEGA_E
	adc->CTRLA |= ch_mask << ADC_CH0START_bp;
    19da:	20 e0       	ldi	r18, 0x00	; 0
    19dc:	32 e0       	ldi	r19, 0x02	; 2
 */
__always_inline static bool dac_channel_is_ready(DAC_t *dac, uint8_t ch_mask)
{
	Assert(dac);

	return (dac->STATUS & ch_mask) == ch_mask;
    19de:	e0 e2       	ldi	r30, 0x20	; 32
    19e0:	f3 e0       	ldi	r31, 0x03	; 3
    19e2:	d0 92 05 06 	sts	0x0605, r13
    19e6:	8b 01       	movw	r16, r22

typedef uint8_t irqflags_t;

static inline irqflags_t cpu_irq_save(void)
{
	irqflags_t flags = SREG;
    19e8:	8f b7       	in	r24, 0x3f	; 63
	cpu_irq_disable();
    19ea:	f8 94       	cli
    19ec:	d9 01       	movw	r26, r18
    19ee:	9c 91       	ld	r25, X
    19f0:	94 60       	ori	r25, 0x04	; 4
    19f2:	9c 93       	st	X, r25
}

static inline void cpu_irq_restore(irqflags_t flags)
{
	barrier();
	SREG = flags;
    19f4:	8f bf       	out	0x3f, r24	; 63
		ioport_set_pin_level(TRIGGER_PIN, true);
		
		for (uint16_t adc_index = 0; adc_index < NUMBER_OF_SAMPLES; adc_index++) {
			adc_start_conversion(&MY_ADC, MY_ADC_CH);
			//adc_wait_for_interrupt_flag(&MY_ADC, MY_ADC_CH);
			adc_samples[adc_index] = adc_get_result(&MY_ADC, MY_ADC_CH) << 4;
    19f6:	d9 01       	movw	r26, r18
    19f8:	94 96       	adiw	r26, 0x24	; 36
    19fa:	8d 91       	ld	r24, X+
    19fc:	9c 91       	ld	r25, X
    19fe:	95 97       	sbiw	r26, 0x25	; 37
    1a00:	82 95       	swap	r24
    1a02:	92 95       	swap	r25
    1a04:	90 7f       	andi	r25, 0xF0	; 240
    1a06:	98 27       	eor	r25, r24
    1a08:	80 7f       	andi	r24, 0xF0	; 240
    1a0a:	98 27       	eor	r25, r24
    1a0c:	d8 01       	movw	r26, r16
    1a0e:	8d 93       	st	X+, r24
    1a10:	9d 93       	st	X+, r25
    1a12:	8d 01       	movw	r16, r26
	while (1)
	{
//		ioport_toggle_pin(TRIGGER_PIN);
		ioport_set_pin_level(TRIGGER_PIN, true);
		
		for (uint16_t adc_index = 0; adc_index < NUMBER_OF_SAMPLES; adc_index++) {
    1a14:	a4 17       	cp	r26, r20
    1a16:	b5 07       	cpc	r27, r21
    1a18:	39 f7       	brne	.-50     	; 0x19e8 <main+0xe4>
	} else {
		base->OUTCLR = arch_ioport_pin_to_mask(pin);
    1a1a:	d0 92 06 06 	sts	0x0606, r13
    1a1e:	db 01       	movw	r26, r22
    1a20:	11 c0       	rjmp	.+34     	; 0x1a44 <main+0x140>
    1a22:	85 81       	ldd	r24, Z+5	; 0x05
__always_inline static void dac_wait_for_channel_ready(DAC_t *dac,
		uint8_t ch_mask)
{
	Assert(dac);

	do { } while (!dac_channel_is_ready(dac, ch_mask));
    1a24:	80 ff       	sbrs	r24, 0
    1a26:	fd cf       	rjmp	.-6      	; 0x1a22 <main+0x11e>
		
		for (uint16_t dac_index = 0; dac_index < NUMBER_OF_SAMPLES; dac_index++) {
			for (uint8_t i = 0; i < STRETCH_RATIO; i++)
			{
				dac_wait_for_channel_ready(&SPEAKER_DAC, SPEAKER_DAC_CHANNEL);
				dac_set_channel_value(&SPEAKER_DAC, SPEAKER_DAC_CHANNEL, adc_samples[dac_index]);
    1a28:	8d 91       	ld	r24, X+
    1a2a:	9c 91       	ld	r25, X
    1a2c:	11 97       	sbiw	r26, 0x01	; 1

typedef uint8_t irqflags_t;

static inline irqflags_t cpu_irq_save(void)
{
	irqflags_t flags = SREG;
    1a2e:	ef b6       	in	r14, 0x3f	; 63
	cpu_irq_disable();
    1a30:	f8 94       	cli
	ch = ilog2(ch_mask);
	Assert(ch <= 1);
	dac_ch = (uint16_t *)&dac->CH0DATA + ch;

	flags = cpu_irq_save();
	*dac_ch = val;
    1a32:	80 8f       	std	Z+24, r24	; 0x18
    1a34:	91 8f       	std	Z+25, r25	; 0x19
}

static inline void cpu_irq_restore(irqflags_t flags)
{
	barrier();
	SREG = flags;
    1a36:	ef be       	out	0x3f, r14	; 63
    1a38:	11 50       	subi	r17, 0x01	; 1
			adc_samples[adc_index] = adc_get_result(&MY_ADC, MY_ADC_CH) << 4;
		}
		ioport_set_pin_level(TRIGGER_PIN, false);
		
		for (uint16_t dac_index = 0; dac_index < NUMBER_OF_SAMPLES; dac_index++) {
			for (uint8_t i = 0; i < STRETCH_RATIO; i++)
    1a3a:	99 f7       	brne	.-26     	; 0x1a22 <main+0x11e>
    1a3c:	12 96       	adiw	r26, 0x02	; 2
			//adc_wait_for_interrupt_flag(&MY_ADC, MY_ADC_CH);
			adc_samples[adc_index] = adc_get_result(&MY_ADC, MY_ADC_CH) << 4;
		}
		ioport_set_pin_level(TRIGGER_PIN, false);
		
		for (uint16_t dac_index = 0; dac_index < NUMBER_OF_SAMPLES; dac_index++) {
    1a3e:	a4 17       	cp	r26, r20
    1a40:	b5 07       	cpc	r27, r21
    1a42:	79 f2       	breq	.-98     	; 0x19e2 <main+0xde>
		bool level)
{
	PORT_t *base = arch_ioport_pin_to_base(pin);

	if (level) {
		base->OUTSET = arch_ioport_pin_to_mask(pin);
    1a44:	13 e0       	ldi	r17, 0x03	; 3
    1a46:	ed cf       	rjmp	.-38     	; 0x1a22 <main+0x11e>

00001a48 <_exit>:
    1a48:	f8 94       	cli

00001a4a <__stop_program>:
    1a4a:	ff cf       	rjmp	.-2      	; 0x1a4a <__stop_program>
