:10000000FDC000001CC100001AC1000018C10000A2
:1000100016C1000014C1000012C1000010C1000090
:100020000EC100000CC100000AC1000008C10000A0
:1000300006C1000004C1000064C500008FC50000B7
:10004000BAC50000E5C5000010C600003BC60000B0
:1000500066C6000091C60000BCC60000E7C60000EE
:10006000EEC00000ECC00000EAC00000E8C00000E4
:10007000E6C00000E4C00000E2C00000E0C00000F4
:10008000DEC00000DCC00000DAC00000D8C0000004
:10009000D6C00000D4C00000D2C00000F1C10000F2
:1000A00021C2000051C2000081C20000C8C000008F
:1000B000C6C00000C4C00000C2C000000C94050906
:1000C0000C9432090C945F090C948C090C94B909B6
:1000D0000C94E6090C94130A0C94400A0C946D0AD3
:1000E0000C949A0AACC00000AAC00000A8C000008E
:1000F000A6C00000A4C00000A2C00000A0C0000074
:100100009EC000009CC000009AC0000098C0000083
:1001100096C0000094C0000092C00000E9C000003A
:1001200019C1000049C1000079C1000088C0000069
:1001300086C00000A8C60000D3C60000FEC60000AE
:1001400029C7000054C700007FC70000AAC70000ED
:10015000D5C700000C94AB080C94D80870C0000000
:100160006EC000006CC000006AC0000068C00000E3
:1001700066C0000064C0000062C0000060C00000F3
:100180005EC000005CC000005AC0000058C0000003
:1001900056C0000054C0000052C0000050C0000013
:1001A0004EC000004CC000004AC0000048C0000023
:1001B0000C94C70A0C94F40A0C94210B0C944E0B6B
:1001C0000C947B0B0C94A80B3AC0000038C00000C4
:1001D00036C0000034C0000032C0000030C0000053
:1001E0002EC000002CC000002AC0000028C0000063
:1001F00026C0000024C0000022C0000011241FBE41
:10020000CFEFCDBFDFE5DEBF00E00CBF10E2A0E026
:10021000B0E2ECE4FAE100E00BBF02C007900D92FF
:10022000A030B107D9F72EE5A0E0B0E201C01D92E1
:10023000A53DB207E1F70E94820C0C94240DE0CE9C
:10024000811522E0920761F48091012091E0980FDE
:1002500090930120811112C062E081E0D0C2089524
:100260008034924059F48091002091E0980F90934F
:100270000020811103C062E082E0C1C208958115AF
:1002800022E0920759F4809101208150809301204F
:10029000811111C062E081E0BEC2089580349240B5
:1002A00051F480910020815080930020811103C07F
:1002B00062E082E0B0C208951F93CF93DF93EC0118
:1002C0001FB7F894BDDF8881816088831FBF80914C
:1002D00050208F3F09F4FFCF8FB7F894E0E5F0E2AC
:1002E00090819F5F90838FBFDF91CF911F91089581
:1002F0001F920F920FB60F9211240BB60F922F93ED
:100300003F934F935F936F937F938F939F93AF939D
:10031000BF93EF93FF93E0E0F2E044A155A1E09199
:100320004D20F0914E2061E080E092E01995FF9120
:10033000EF91BF91AF919F918F917F916F915F915D
:100340004F913F912F910F900BBE0F900FBE0F90CA
:100350001F9018951F920F920FB60F9211240BB693
:100360000F922F933F934F935F936F937F938F934E
:100370009F93AF93BF93EF93FF93E8E2F2E0448142
:100380005581E0914D20F0914E2062E080E092E0B6
:100390001995FF91EF91BF91AF919F918F917F91AF
:1003A0006F915F914F913F912F910F900BBE0F90E6
:1003B0000FBE0F901F9018951F920F920FB60F92BD
:1003C00011240BB60F922F933F934F935F936F932C
:1003D0007F938F939F93AF93BF93EF93FF93E0E34C
:1003E000F2E044815581E0914D20F0914E2064E08F
:1003F00080E092E01995FF91EF91BF91AF919F91AD
:100400008F917F916F915F914F913F912F910F90BD
:100410000BBE0F900FBE0F901F9018951F920F925A
:100420000FB60F9211240BB60F922F933F934F9359
:100430005F936F937F938F939F93AF93BF93EF934C
:10044000FF93E8E3F2E044815581E0914D20F09183
:100450004E2068E080E092E01995FF91EF91BF9106
:10046000AF919F918F917F916F915F914F913F914C
:100470002F910F900BBE0F900FBE0F901F901895ED
:100480001F920F920FB60F9211240BB60F922F935B
:100490003F934F935F936F937F938F939F93AF930C
:1004A000BF93EF93FF93E0E4F2E044A155A1E09104
:1004B0004B20F0914C2061E080E492E01995FF918F
:1004C000EF91BF91AF919F918F917F916F915F91CC
:1004D0004F913F912F910F900BBE0F900FBE0F9039
:1004E0001F9018951F920F920FB60F9211240BB602
:1004F0000F922F933F934F935F936F937F938F93BD
:100500009F93AF93BF93EF93FF93E8E6F2E04481AC
:100510005581E0914B20F0914C2062E080E492E024
:100520001995FF91EF91BF91AF919F918F917F911D
:100530006F915F914F913F912F910F900BBE0F9054
:100540000FBE0F901F9018951F920F920FB60F922B
:1005500011240BB60F922F933F934F935F936F939A
:100560007F938F939F93AF93BF93EF93FF93E0E7B6
:10057000F2E044815581E0914B20F0914C2064E001
:1005800080E492E01995FF91EF91BF91AF919F9117
:100590008F917F916F915F914F913F912F910F902C
:1005A0000BBE0F900FBE0F901F9018951F920F92C9
:1005B0000FB60F9211240BB60F922F933F934F93C8
:1005C0005F936F937F938F939F93AF93BF93EF93BB
:1005D000FF93E8E7F2E044815581E0914B20F091F0
:1005E0004C2068E080E492E01995FF91EF91BF9173
:1005F000AF919F918F917F916F915F914F913F91BB
:100600002F910F900BBE0F900FBE0F901F9018955B
:10061000DF92EF92FF920F931F93CF93DF93EC0142
:100620008B01C11522E0D20771F461E270E082E033
:1006300099D1E82EF12C60E270E082E093D1FE2C9B
:10064000EE24E82A10C08034924059F565E270E04B
:1006500082E088D1E82EF12C64E270E082E082D161
:10066000FE2CEE24E82ADFB6F894CE01E9DD2881DD
:1006700082E08883EC86FD86F80185819681888FEB
:10068000998F82818A8384818C8383818B8381810A
:100690008983822F81709081892B8883CE01EFDD41
:1006A000DFBEDF91CF911F910F91FF90EF90DF9010
:1006B0000895FF920F931F93CF93DF93EC018B016B
:1006C000FFB6F894BDDD8881807CF8018083888D39
:1006D000998D858396838A8182838C8184838B81A3
:1006E000838389818183CE01CADDFFBEDF91CF91F3
:1006F0001F910F91FF900895CF92DF92EF92FF929A
:100700000F931F93CF93DF937C01D62E8A01862F00
:10071000837029F4962F9695969582E002C0962FC5
:1007200080E090FF8F5FE701A09698E0899FC00D61
:10073000D11D1124CFB6F894C70182DDF801808164
:10074000888382818A8381818983D0FE02C08381EC
:100750008E83C70194DDCFBEDF91CF911F910F91A2
:10076000FF90EF90DF90CF900895CF92DF92EF92BD
:10077000FF920F931F93CF93DF937C01D62EEA0154
:10078000862F837029F4962F9695969582E002C065
:10079000962F80E090FF8F5F8701005E1F4F98E0EB
:1007A000899F000D111D1124CFB6F894C70148DDB3
:1007B000F8018081888382818A8381818983D0FE48
:1007C00002C086818B83C7015ADDCFBEDF91CF91F6
:1007D0001F910F91FF90EF90DF90CF9008958FEFD2
:1007E00080937000809371008093720080937300F7
:1007F00080937400809375008093760008959FB76E
:10080000F894E82FF0E0E059FF4F6095808168236D
:1008100060839FBF08959FB7F894E82FF0E0E059F8
:10082000FF4F8081682B60839FBF08958032934083
:1008300059F48091022091E0980F90930220811149
:1008400003C064E082E0DBCF08958032934051F42E
:1008500080910220815080930220811103C064E0C6
:1008600082E0D9CF08951F93CF93DF93EC011FB798
:10087000F894809150208F3F09F4FFCF8FB7F89400
:10088000E0E5F0E290819F5F90838FBFCE01CEDFE5
:100890008881816088831FBFDF91CF911F91089568
:1008A000BF92CF92DF92EF92FF920F931F93CF935D
:1008B000DF93EC018B01C03283E0D80761F563E37D
:1008C00070E082E04FD0B82E62E370E082E04AD060
:1008D000C82E67E370E082E045D0D82E66E370E072
:1008E00082E040D0E82EFFB6F894CE019FDF8881E9
:1008F0001882F8019181998392819A8393819B83D5
:10090000B886C986DA86EB8681709081892B8883C8
:10091000CE019BDFFFBEDF91CF911F910F91FF9022
:10092000EF90DF90CF90BF900895FF920F931F93A9
:10093000CF93DF93EC018B01FFB6F89477DF8881CA
:100940008E7FF8018083898181838A8182838B8174
:100950008383CE017ADFFFBEDF91CF911F910F918C
:10096000FF9008954091CA01E62FF72F8093CA01A6
:1009700084914093CA010895CF93DF93FC01709650
:1009800020E030E0C62FD0E0DE01022E02C0B59597
:10099000A7950A94E2F7A0FD50832F5F3F4F319651
:1009A0002830310589F740FF0AC041FF03C0FC0130
:1009B000658302C0FC016683FC01618302C0FC0107
:1009C0006283DF91CF91089543E050E061E080EED3
:1009D00097E0D2DF43E050E062E080EE97E0CCDFCA
:1009E00043E050E060E180E696E0C6DF41E050E49D
:1009F00060E280E696E0C0DF40E05BE160E280E834
:100A000096E0BADF40E05BE162E080EA96E0B4DFC6
:100A100040E05BE164E080EA96E0AEDF43E050E076
:100A200062E080E696E0A8DF43E050E068E080E620
:100A300096E0A2DF43E050E068E080EA96E09CDFC9
:100A400043E050E061E080E696E096DF43E050E06E
:100A500068E080E096E090DF41E050E060E180E80F
:100A600096E08ADF43E050E062E080E696E084DFD3
:100A700043E050E068E080E696E07EDF40E050E052
:100A800064E080E696E078DF43E050E060E180EAF1
:100A900096E072DF40E050E061E080E096E06CDFDD
:100AA00040E050E064E080E096E066DF40E050E047
:100AB00062E080E296E060DF43E050E068E080E4DE
:100AC00096E05ADF40E050E064E080E496E054DFD6
:100AD00043E050E068E080E696E04EDF40E050E022
:100AE00064E080E696E048DF43E050E068E080E8BC
:100AF00096E042DF40E050E064E080E896E03CCFE2
:100B000008951F920F920FB60F9211240BB60F92F9
:100B10002F933F934F935F936F937F938F939F9305
:100B2000AF93BF93EF93FF93E0914920F0914A2058
:100B3000309709F01995FF91EF91BF91AF919F9177
:100B40008F917F916F915F914F913F912F910F9076
:100B50000BBE0F900FBE0F901F9018951F920F9213
:100B60000FB60F9211240BB60F922F933F934F9312
:100B70005F936F937F938F939F93AF93BF93EF9305
:100B8000FF93E0914720F0914820309709F01995A4
:100B9000FF91EF91BF91AF919F918F917F916F9155
:100BA0005F914F913F912F910F900BBE0F900FBE11
:100BB0000F901F9018951F920F920FB60F9211244D
:100BC0000BB60F922F933F934F935F936F937F9347
:100BD0008F939F93AF93BF93EF93FF93E091452043
:100BE000F0914620309709F01995FF91EF91BF9150
:100BF000AF919F918F917F916F915F914F913F91B5
:100C00002F910F900BBE0F900FBE0F901F90189555
:100C10001F920F920FB60F9211240BB60F922F93C3
:100C20003F934F935F936F937F938F939F93AF9374
:100C3000BF93EF93FF93E0914320F09144203097CE
:100C400009F01995FF91EF91BF91AF919F918F910D
:100C50007F916F915F914F913F912F910F900BBEBC
:100C60000F900FBE0F901F9018951F920F920FB606
:100C70000F9211240BB60F922F933F934F935F93D4
:100C80006F937F938F939F93AF93BF93EF93FF9354
:100C9000E0914120F0914220309709F01995FF91A1
:100CA000EF91BF91AF919F918F917F916F915F91E4
:100CB0004F913F912F910F900BBE0F900FBE0F9051
:100CC0001F9018951F920F920FB60F9211240BB61A
:100CD0000F922F933F934F935F936F937F938F93D5
:100CE0009F93AF93BF93EF93FF93E0913F20F091D9
:100CF0004020309709F01995FF91EF91BF91AF9186
:100D00009F918F917F916F915F914F913F912F9123
:100D10000F900BBE0F900FBE0F901F9018951F9253
:100D20000F920FB60F9211240BB60F922F933F9391
:100D30004F935F936F937F938F939F93AF93BF93E3
:100D4000EF93FF93E0913D20F0913E20309709F022
:100D50001995FF91EF91BF91AF919F918F917F91E5
:100D60006F915F914F913F912F910F900BBE0F901C
:100D70000FBE0F901F9018951F920F920FB60F92F3
:100D800011240BB60F922F933F934F935F936F9362
:100D90007F938F939F93AF93BF93EF93FF93E091D4
:100DA0003B20F0913C20309709F01995FF91EF918D
:100DB000BF91AF919F918F917F916F915F914F9173
:100DC0003F912F910F900BBE0F900FBE0F901F9071
:100DD00018951F920F920FB60F9211240BB60F9217
:100DE0002F933F934F935F936F937F938F939F9333
:100DF000AF93BF93EF93FF93E0913920F0913A20A6
:100E0000309709F01995FF91EF91BF91AF919F91A4
:100E10008F917F916F915F914F913F912F910F90A3
:100E20000BBE0F900FBE0F901F9018951F920F9240
:100E30000FB60F9211240BB60F922F933F934F933F
:100E40005F936F937F938F939F93AF93BF93EF9332
:100E5000FF93E0913720F0913820309709F01995F1
:100E6000FF91EF91BF91AF919F918F917F916F9182
:100E70005F914F913F912F910F900BBE0F900FBE3E
:100E80000F901F9018951F920F920FB60F9211247A
:100E90000BB60F922F933F934F935F936F937F9374
:100EA0008F939F93AF93BF93EF93FF93E091352080
:100EB000F0913620309709F01995FF91EF91BF918D
:100EC000AF919F918F917F916F915F914F913F91E2
:100ED0002F910F900BBE0F900FBE0F901F90189583
:100EE0001F920F920FB60F9211240BB60F922F93F1
:100EF0003F934F935F936F937F938F939F93AF93A2
:100F0000BF93EF93FF93E0913320F091342030971B
:100F100009F01995FF91EF91BF91AF919F918F913A
:100F20007F916F915F914F913F912F910F900BBEE9
:100F30000F900FBE0F901F9018951F920F920FB633
:100F40000F9211240BB60F922F933F934F935F9301
:100F50006F937F938F939F93AF93BF93EF93FF9381
:100F6000E0913120F0913220309709F01995FF91EE
:100F7000EF91BF91AF919F918F917F916F915F9111
:100F80004F913F912F910F900BBE0F900FBE0F907E
:100F90001F9018951F920F920FB60F9211240BB647
:100FA0000F922F933F934F935F936F937F938F9302
:100FB0009F93AF93BF93EF93FF93E0912F20F09116
:100FC0003020309709F01995FF91EF91BF91AF91C3
:100FD0009F918F917F916F915F914F913F912F9151
:100FE0000F900BBE0F900FBE0F901F9018951F9281
:100FF0000F920FB60F9211240BB60F922F933F93BF
:101000004F935F936F937F938F939F93AF93BF9310
:10101000EF93FF93E0912D20F0912E20309709F06F
:101020001995FF91EF91BF91AF919F918F917F9112
:101030006F915F914F913F912F910F900BBE0F9049
:101040000FBE0F901F9018951F920F920FB60F9220
:1010500011240BB60F922F933F934F935F936F938F
:101060007F938F939F93AF93BF93EF93FF93E09101
:101070002B20F0912C20309709F01995FF91EF91DA
:10108000BF91AF919F918F917F916F915F914F91A0
:101090003F912F910F900BBE0F900FBE0F901F909E
:1010A00018951F920F920FB60F9211240BB60F9244
:1010B0002F933F934F935F936F937F938F939F9360
:1010C000AF93BF93EF93FF93E0912920F0912A20F3
:1010D000309709F01995FF91EF91BF91AF919F91D2
:1010E0008F917F916F915F914F913F912F910F90D1
:1010F0000BBE0F900FBE0F901F9018951F920F926E
:101100000FB60F9211240BB60F922F933F934F936C
:101110005F936F937F938F939F93AF93BF93EF935F
:10112000FF93E0912720F0912820309709F019953E
:10113000FF91EF91BF91AF919F918F917F916F91AF
:101140005F914F913F912F910F900BBE0F900FBE6B
:101150000F901F9018951F920F920FB60F921124A7
:101160000BB60F922F933F934F935F936F937F93A1
:101170008F939F93AF93BF93EF93FF93E0912520BD
:10118000F0912620309709F01995FF91EF91BF91CA
:10119000AF919F918F917F916F915F914F913F910F
:1011A0002F910F900BBE0F900FBE0F901F901895B0
:1011B0001F920F920FB60F9211240BB60F922F931E
:1011C0003F934F935F936F937F938F939F93AF93CF
:1011D000BF93EF93FF93E0912320F0912420309769
:1011E00009F01995FF91EF91BF91AF919F918F9168
:1011F0007F916F915F914F913F912F910F900BBE17
:101200000F900FBE0F901F9018951F920F920FB660
:101210000F9211240BB60F922F933F934F935F932E
:101220006F937F938F939F93AF93BF93EF93FF93AE
:10123000E0912120F0912220309709F01995FF913B
:10124000EF91BF91AF919F918F917F916F915F913E
:101250004F913F912F910F900BBE0F900FBE0F90AB
:101260001F9018951F920F920FB60F9211240BB674
:101270000F922F933F934F935F936F937F938F932F
:101280009F93AF93BF93EF93FF93E0911F20F09153
:101290002020309709F01995FF91EF91BF91AF9100
:1012A0009F918F917F916F915F914F913F912F917E
:1012B0000F900BBE0F900FBE0F901F9018951F92AE
:1012C0000F920FB60F9211240BB60F922F933F93EC
:1012D0004F935F936F937F938F939F93AF93BF933E
:1012E000EF93FF93E0911D20F0911E20309709F0BD
:1012F0001995FF91EF91BF91AF919F918F917F9140
:101300006F915F914F913F912F910F900BBE0F9076
:101310000FBE0F901F9018951F920F920FB60F924D
:1013200011240BB60F922F933F934F935F936F93BC
:101330007F938F939F93AF93BF93EF93FF93E0912E
:101340001B20F0911C20309709F01995FF91EF9127
:10135000BF91AF919F918F917F916F915F914F91CD
:101360003F912F910F900BBE0F900FBE0F901F90CB
:1013700018951F920F920FB60F9211240BB60F9271
:101380002F933F934F935F936F937F938F939F938D
:10139000AF93BF93EF93FF93E0911920F0911A2040
:1013A000309709F01995FF91EF91BF91AF919F91FF
:1013B0008F917F916F915F914F913F912F910F90FE
:1013C0000BBE0F900FBE0F901F9018951F920F929B
:1013D0000FB60F9211240BB60F922F933F934F939A
:1013E0005F936F937F938F939F93AF93BF93EF938D
:1013F000FF93E0911720F0911820309709F019958C
:10140000FF91EF91BF91AF919F918F917F916F91DC
:101410005F914F913F912F910F900BBE0F900FBE98
:101420000F901F9018951F920F920FB60F921124D4
:101430000BB60F922F933F934F935F936F937F93CE
:101440008F939F93AF93BF93EF93FF93E0911520FA
:10145000F0911620309709F01995FF91EF91BF9107
:10146000AF919F918F917F916F915F914F913F913C
:101470002F910F900BBE0F900FBE0F901F901895DD
:101480001F920F920FB60F9211240BB60F922F934B
:101490003F934F935F936F937F938F939F93AF93FC
:1014A000BF93EF93FF93E0911320F09114203097B6
:1014B00009F01995FF91EF91BF91AF919F918F9195
:1014C0007F916F915F914F913F912F910F900BBE44
:1014D0000F900FBE0F901F9018951F920F920FB68E
:1014E0000F9211240BB60F922F933F934F935F935C
:1014F0006F937F938F939F93AF93BF93EF93FF93DC
:10150000E0911120F0911220309709F01995FF9188
:10151000EF91BF91AF919F918F917F916F915F916B
:101520004F913F912F910F900BBE0F900FBE0F90D8
:101530001F9018951F920F920FB60F9211240BB6A1
:101540000F922F933F934F935F936F937F938F935C
:101550009F93AF93BF93EF93FF93E0910F20F09190
:101560001020309709F01995FF91EF91BF91AF913D
:101570009F918F917F916F915F914F913F912F91AB
:101580000F900BBE0F900FBE0F901F9018951F92DB
:101590000F920FB60F9211240BB60F922F933F9319
:1015A0004F935F936F937F938F939F93AF93BF936B
:1015B000EF93FF93E0910D20F0910E20309709F00A
:1015C0001995FF91EF91BF91AF919F918F917F916D
:1015D0006F915F914F913F912F910F900BBE0F90A4
:1015E0000FBE0F901F9018951F920F920FB60F927B
:1015F00011240BB60F922F933F934F935F936F93EA
:101600007F938F939F93AF93BF93EF93FF93E0915B
:101610000B20F0910C20309709F01995FF91EF9174
:10162000BF91AF919F918F917F916F915F914F91FA
:101630003F912F910F900BBE0F900FBE0F901F90F8
:1016400018951F920F920FB60F9211240BB60F929E
:101650002F933F934F935F936F937F938F939F93BA
:10166000AF93BF93EF93FF93E0910920F0910A208D
:10167000309709F01995FF91EF91BF91AF919F912C
:101680008F917F916F915F914F913F912F910F902B
:101690000BBE0F900FBE0F901F9018951F920F92C8
:1016A0000FB60F9211240BB60F922F933F934F93C7
:1016B0005F936F937F938F939F93AF93BF93EF93BA
:1016C000FF93E0910720F0910820309709F01995D9
:1016D000FF91EF91BF91AF919F918F917F916F910A
:1016E0005F914F913F912F910F900BBE0F900FBEC6
:1016F0000F901F9018951F920F920FB60F92112402
:101700000BB60F922F933F934F935F936F937F93FB
:101710008F939F93AF93BF93EF93FF93E091052037
:10172000F0910620309709F01995FF91EF91BF9144
:10173000AF919F918F917F916F915F914F913F9169
:101740002F910F900BBE0F900FBE0F901F9018950A
:101750001F920F920FB60F9211240BB60F922F9378
:101760003F934F935F936F937F938F939F93AF9329
:10177000BF93EF93FF93E0910320F0910420309703
:1017800009F01995FF91EF91BF91AF919F918F91C2
:101790007F916F915F914F913F912F910F900BBE71
:1017A0000F900FBE0F901F901895CF93CFB7F8945E
:1017B000282F392F211588E0380739F461E083E0BC
:1017C0001ED864E083E01BD84BC0203488E0380783
:1017D00039F462E083E013D864E083E010D840C0BD
:1017E000211589E0380739F461E084E008D864E025
:1017F00084E005D835C0203489E0380749F462E038
:1018000084E00E94FF0364E084E00E94FF0328C09C
:1018100021158AE0380749F461E085E00E94FF0362
:1018200064E085E00E94FF031BC020348AE0380793
:1018300049F462E085E00E94FF0364E085E00E94D5
:10184000FF030EC021153B4049F461E086E00E9491
:10185000FF0364E086E00E94FF0302C0CFBF0EC01A
:10186000809150208F3F09F4FFCF8FB7F894E0E5C7
:10187000F0E290819F5F90838FBFCFBFCF9108959B
:10188000FF920F931F93CF93DF9300D01F92CDB79A
:10189000DEB7BE016F5F7F4F80E293E046D8FF2442
:1018A000F394FB8284E089838A818C7981608A83C6
:1018B00083E08C83BE016F5F7F4F80E293E00E94E4
:1018C000500480E293E00E94330461E083E00E94D0
:1018D000FF0300E018E083E190E0F80186A397A3FE
:1018E00062E080E00E94FF0380EC80938001F801B9
:1018F000F0822496CDBFDEBFDF91CF911F910F9173
:10190000FF900895CF93DF93CDB7DEB72B97CDBF70
:10191000DEBF5AD80E94EF03BE016F5F7F4F80E0A9
:1019200092E00E945903AE01485F5F4F61E080E0A2
:1019300092E00E94B5038A819B819F7890619B838E
:10194000817E80618A831C8283E08D8381E0888729
:1019500080E28987BE016F5F7F4F80E092E00E9446
:101960000803AE01485F5F4F61E080E092E00E94B3
:101970007C0362E080E00E94FF0380ECE0E8F1E09D
:10198000838380E098E011DFE0E0F8E08181887FE8
:10199000818383E190E086A397A38081807F81602B
:1019A00080836EDF8FB7F894E5E1F6E09081987F51
:1019B00090838FBF80E2E0E0F6E0818380E092E0F8
:1019C0000E945C0180E293E00E9433046894DD246D
:1019D000D5F845ED5EE565E570E220E032E0E0E255
:1019E000F3E0D09205068B018FB7F894D9019C9152
:1019F00094609C938FBFD90194968D919C919597FB
:101A000082959295907F9827807F9827D8018D9313
:101A10009D938D01A417B50739F7D0920606DB0117
:101A200011C0858180FFFDCF8D919C911197EFB6FC
:101A3000F894808F918FEFBE115099F71296A417EA
:0C1A4000B50779F213E0EDCFF894FFCF6A
:00000001FF
